S0140000464639315F694C444D5F424C2E7372656388
S214000000F06F002011040000950400009504000025
S2140000109504000095040000950400000000000010
S2140000200000000000000000000000009504000032
S21400003095040000000000009504000095040000F0
S2140000409504000095040000950400009504000047
S2140000509504000095040000950400009504000037
S2140000609504000095040000950400009504000027
S2140000709504000095040000950400009504000017
S2140000809504000095040000950400009504000007
S21400009095040000950400009504000095040000F7
S2140000A095040000950400009504000095040000E7
S2140000B095040000950400009504000095040000D7
S2140000C095040000950400009504000095040000C7
S2140000D0950400009504000095040000CD4600003D
S2140000E095040000950400009504000095040000A7
S2140000F09504000095040000950400009504000097
S2140001007D4E000095040000950400009504000054
S2140001109504000095040000950400009504000076
S2140001209504000095040000950400009504000066
S2140001309504000095040000950400009504000056
S2140001409504000095040000950400009504000046
S2140001509504000095040000950400009504000036
S2140001609504000095040000950400009504000026
S2140001709504000095040000514C00005D4C000002
S214000180694C0000394C0000454C00009504000006
S21400019095040000950400009504000095040000F6
S2140001A095040000950400009504000095040000E6
S2140001B095040000950400009504000095040000D6
S2140001C095040000950400009504000095040000C6
S2140003F0950400009504000095040000FFFFFFFF31
S214000400FFFFFFFFFFFFFFFFFFFFFFFFFE7FFFFF78
S21400041072B6184F3868B0F1A53F14D0164F38683A
S2140004207968B0F1FF3F0ED0B1F1FF3F0BD0134F0C
S2140004303A68B2F1A53F06D1114A176080F30888E2
S21400044080F309888F460F490E4A0E4B0D4C0D4D12
S2140004500C4E0C4FB846B946BA46BB46BC460A4890
S21400046085460A4880470A48804762B604F0C0FEC0
S214000470FEE70000F06F0020008000000000020091
S21400048008ED00E000000000F06F002049050000C5
S21400049099040000FFF7FEBF10B41F4B1F4A9A4294
S2140004A00FD01F4CA40808D01946002351F8040B9F
S2140004B042F8040B0133A342F8D11A4B174A1A60CC
S2140004C002E0184B144A1A60174B184A9A4208D092
S2140004D01346174A144813F8011B02F8011B8342FF
S2140004E0F9D1144B144A9A4208D01346134A1148BD
S2140004F013F8011B02F8011B8342F9D1104B114A75
S2140005009A4206D0134600210D4A03F8011B934277
S214000510FBD15DF8044B7047000000000080FF1F11
S2140005200004000008ED00E0D45E0000145E000049
S2140005300084FF1F285F0000D45E0000C084FF1FF9
S2140005405045002000000020054B064A5A605A68B5
S21400055042F220121A604FF6FF729A60704700BF90
S2140005600020054020C528D94FF0E021D1F80C2DF9
S21400057092B2024B1343C1F80C3D70470400FA05D3
S21400058001282AD810B58CB0019102929DF8382027
S2140005908DF82C20013B0DF10B020DF12B0413F806
S2140005A0011F02F8011FA242F9D100EB40000D4BDB
S2140005B003EB8000846820464FF4805104F08EFBE5
S2140005C0C0B260B92046302101AA04F0CBFBC0B20D
S2140005D000280CBF0420022002E002207047022000
S2140005E00CB010BD545B00000022154B1A704FF47F
S2140005F00042144B1A60144B14490B6014490A60ED
S214000600144A1360144A531E02F6FF72002103F8C0
S214000610011F9342FBD10023104A1370104A138027
S214000620104A1370104A1370104A13700121104AB2
S2140006301170104A136005220F4B1A70704700BFE6
S2140006405C1000200C000020FF0F020000000020BD
S2140006505810002008000020500000201000002045
S21400066048000020501000201A0000201B00002028
S2140006700084FF1F6010002040320020B0F5004FBD
S21400068005D101F5FF437F33B3F5043F0CD3B0F536
S214000690C02F0BD101F5BF2101F2FF710448814242
S2140006A08CBF002001207047012070470020704753
S2140006B0FF1F0600B0F5004F04D34B1E0344B3F5EE
S2140006C0043F0AD3B0F5C02F09D308440138B0F56B
S2140006D0C42F2CBF00200120704700207047002048
S2140006E0704700BF38B504460D46FFF7C7FF012820
S2140006F00CD1074B1C60013D2C44064B1C600620A9
S214000700054B18700122054B1A7038BD022038BD03
S2140007100C000020000000201A0000205C100020C2
S21400072038B505460C46FFF7A9FF01281AD10F4B2E
S2140007301B78032B18D128462146FFF7BBFF0C4B2E
S21400074018700C4B1D600C4B1D602C440B4B1C6032
S21400075000220B4B1A8006200A4B18700422034B0B
S2140007601A7038BD022038BD022038BD5C1000204B
S2140007705010002058100020140000200800002010
S214000780480000201A00002038B50F4B1B7803EBFA
S21400079043050E4C54F82540A04210D30B4C04EBF6
S2140007A085035B6898420CD813460A46194604F03F
S2140007B0D9FAC0B200280CBF0420032038BD05209B
S2140007C038BD052038BD00BF50100020545B000027
S2140007D000B583B0704B1B780A2B00F2C380DFE8AD
S2140007E013F0D8000B001900D800390068006C0020
S2140007F0D8008000D800AA00684B1A68684B1A60B8
S214000800684B186804F0FAFA674B18600222624BCD
S2140008101A70BEE0624B1868624B1B68984212D88A
S2140008204FF4805104F05AFAC0B228B95C4A1368F3
S21400083003F580531360ACE001225C4B1A70002273
S214000840554B1A70A5E00422584B1A700322524BDF
S2140008501A709EE0564B1B78012B22D1554B186818
S2140008605549564B1A88FFF78FFF042840F08980B9
S214000870504A524B198813680B441360504A12684A
S214000880934273D3042300E003230521424A1170E8
S2140008900021474A1170454A137003F00503042BE4
S2140008A003D10422414B1A7073E000223A4B1A70AF
S2140008B06FE00022384B1A706BE0424B1B780E2B11
S2140008C003D10722344B1A7063E00D2B03D10022AC
S2140008D0314B1A705DE00C2B5BD000222E4B1A7049
S2140008E057E0384B1B78122B14D1374B1B78012B53
S2140008F00CD0364A1078364A526800930021354BA1
S214000900FFF73EFE0022244B1A7042E00922224BDB
S2140009101A703EE0112B08D12F4B1B68284A11682D
S2140009201846C91AFFF7DEFE33E0102B31D000223E
S214000930194B1A702DE0234B1B781C2B0ED1234B22
S2140009401878234B5A68204B1B7800930021214BC4
S214000950FFF716FE0022104B1A701AE000220E4B0C
S2140009601A7016E000220C4B1A7012E00022104B90
S2140009701A7096E700220E4B1A7003220B4B1A7061
S21400098093E70C4B1A680E4B1B689A42BFF47CAF79
S214000990F0E703B05DF804FB5C1000200C000020BC
S2140009A03C32002000000020303200201A000020D8
S2140009B01000002014000020500000200600002038
S2140009C0080000201B0000200084FF1F501000209D
S2140009D01C000020B83200205810002008B5FFF791
S2140009E0F7FE024A13880133138008BD0400002076
S2140009F01F4B1B78002B36D170B4012803D11D483D
S214000A0003801D4803801B4B1E8876B11B481A4B7B
S214000A101C88013C0444002314F8015F00F8015BC5
S214000A2001339BB2B342F7D300E014484AB1431EE9
S214000A30541E10FA84F011F8014B03F8014F83425C
S214000A40F9D10F490B8801330B80324492B202F081
S214000A500706084B1E80921B074B1A800122044B88
S214000A601A70042001E00620704770BC704700BF73
S214000A701000002018000020060000205000002073
S214000A8048000020704700BF014B1878704700BF31
S214000A901B00002070B40F25104C257063B1013A7E
S214000AA00F4DEC1D013BDBB208331D4412F8013F2D
S214000AB004F8013FAC42F9D10A4B18600A4B1960A2
S214000AC0074B5960094B1B78072B04D10822074BAC
S214000AD01A70022000E0002070BC70471B00002047
S214000AE01C0000204C000020541000205C10002049
S214000AF0084B1B78122B08D1022808D10A22064B75
S214000B001A701B22034B1A70704700207047002093
S214000B10704700BF1B0000205C100020014B1878B7
S214000B20704700BF1A000020014B1878704700BFBE
S214000B305C10002000220023C0E912230A4B036544
S214000B400A4B43650A4B83650A4BC3650A4B03662B
S214000B500A4B43660A4B836603F17453A3F52303DB
S214000B60A3F69243C366704767E6096A85AE67BB1D
S214000B7072F36E3C3AF54FA57F520E518C68059B7A
S214000B80ABD9831F2DE9F04FADF5097D064648A881
S214000B9052494FF4807204F0D9FE701C07AC17ADB2
S214000BA010F8011C0278130443EA016283781343A9
S214000BB0427843EA022344F8043F0430AC42EFD1C3
S214000BC00DF1540E08AC10AF17AD30205EF8041FC0
S214000BD063684FEA714282EAF14282EA912257F84C
S214000BE0041F0A4454F8041B11444FEAF31282EA25
S214000BF0B34282EAD3030B4445F8043F0138E5D1FB
S214000C00336D1C460193736D1A460293B36D1F46EF
S214000C100393F36D19460493336E18460593736E6B
S214000C201D460693B36E0093F36E0793DDF800C07F
S214000C30A8468946964600250DF5907A9B4605E01F
S214000C40C446804608467746A6461C4608AB53F878
S214000C5025105AF825200A444FEAB01383EAF023F9
S214000C6083EA70631A442CEA000308EA00014B404A
S214000C701A4402EB0B0387EA0E02224007EA0E0133
S214000C8051404FEAB40282EA743282EAB4520A440D
S214000C9009EB030113440135B946E346402DCFD195
S214000CA01A46019B13443365029B1C447465039BE0
S214000CB07344B365049B1F44F765059B0B4433667A
S214000CC0069B18447066009B4344B366079B6344C8
S214000CD0F3660DF5097DBDE8F08F00BFF8590000FA
S214000CE038B504460D46036C372B0DD88022C25407
S214000CF05A1C372A20D8034400F13701002203F893
S214000D00012F8B42FBD117E08022C2545A1C3F2A87
S214000D1007D8034400F13F01002203F8012F8B425D
S214000D20FBD12046FFF72EFF631E04F13701002299
S214000D3003F8012F8B42FBD12564690FE800D4E944
S214000D40122312184B41C4E9122384F83F20110ADB
S214000D5084F83E10110C84F83D10120E84F83C20E6
S214000D6084F83B301A0A84F83A201A0C84F83920A2
S214000D701B0E84F838302046FFF704FF38BD00BF4E
S214000D80014B1868704700BFF06F00200020014B31
S214000D9018607047F06F002008B50222034B1A70E7
S214000DA00320034903F0F2FD08BD00BFD83200203F
S214000DB00484FF1F10B582B0034600685C799A6809
S214000DC01B790091214603F05DFD02B010BD00BF07
S214000DD0164B1B784BB370B504460023144D134EC8
S214000DE003EB4302216855F82220914217D103EB0A
S214000DF0430205EB82022179127991420FD103EB6F
S214000E00430205EB820261795279914207D103EBE6
S214000E10430005EB80039B682046984733780133F0
S214000E20DBB232789A42DBD870BD7047D8320020E9
S214000E300484FF1F08B500F04DFC08BD034B186086
S214000E40034B1960034B1A60704700BF0484FF1FF2
S214000E501C84FF1F2084FF1F10B588B08DE80F008C
S214000E60084B1B68059300218DF818109DF8053077
S214000E708DF819300DF10603079305A8FFF79AFFC2
S214000E8008B010BD1C84FF1F00B585B00C4B1B6856
S214000E90019300238DF8083008238DF80930094B9C
S214000EA0187848B10138C0B200F00EF80F30039041
S214000EB001A80221FFF77EFF05B05DF804FB00BF26
S214000EC02084FF1F0432002070B50646764B1B7840
S214000ED0764AD55C0133DBB2112B02D8724A137006
S214000EE002E00022704B1A70714CE57384F82750AC
S214000EF084F83F5084F8575084F86F5084F8875031
S214000F0004F110005521072204F02BFD04F12800FF
S214000F105521072204F025FD04F140005521072243
S214000F2004F01FFD04F158005521072204F019FDB6
S214000F3004F170005521072204F013FD04F1880027
S214000F405521072204F00DFD15B1012D55D0A3E063
S214000F50584A1578564B1D7454785C74907898747B
S214000F60D178D97400221A755A759A7583F8285064
S214000F7083F8294083F82A0083F82B1083F82C2066
S214000F8083F82D2083F82E2083F8405083F84140C4
S214000F9083F8420083F8431083F8442083F8452002
S214000FA083F8462083F8585083F8594083F85A004F
S214000FB083F85B1083F85C2083F85D2083F85E205E
S214000FC083F8705083F8714083F8720083F87310CA
S214000FD083F8742083F8752083F8762083F8885089
S214000FE083F8894083F88A0083F88B1083F88C2076
S214000FF083F88D2083F88E204EE02D4B00221A7445
S2140010005A749A74DA741A755A759A7583F8282081
S21400101083F8292083F82A2083F82B2083F82C20B5
S21400102083F82D2083F82E2083F8402083F8412073
S21400103083F8422083F8432083F8442083F8452031
S21400104083F8462083F8582083F8592083F85A20DE
S21400105083F85B2083F85C2083F85D2083F85E20AD
S21400106083F8702083F8712083F8722083F8732049
S21400107083F8742083F8752083F8762083F8882018
S21400108083F8892083F88A2083F88B2083F88C20C5
S21400109083F88D2083F88E2006F0030606EB4606BE
S2140010A0034800EBC60070BDF41000206C5B000027
S2140010B064100020007F00000023074A1380074AC0
S2140010C01370074A1380074A137053705380064AFA
S2140010D01370064A137070470C2100201C21002054
S2140010E01E210020F81000200421002020210020CE
S2140010F0C0B2062807D80449FF220B18DA7101305F
S214001100C0B20728F9D170473431002000230A4ABC
S21400111013700A4A13700A4A13600A4A13600A4A8E
S21400112013600A4A13700A4A13800A4A137040F280
S2140011309B72094B1A607047202100201D21002059
S2140011400821002000210020102100201C21002062
S2140011501E21002004210020343100203D4B1B7846
S214001160002B72D170B58488B4F5805F6FD20322ED
S214001170394B1A70394B1B6803EB83035B00384A04
S21400118013600122374B1A60072C23D80222314BFA
S2140011901A70354B5C80354B9C7182887AB100237F
S2140011A0314D324C0268D25CE9180A71E118CA71F6
S2140011B001339BB282889A42F4D8062A02D8104697
S2140011C0FFF796FF294B08225A710FCBFFF744FE14
S2140011D0012070BD08221F4B1A70234B5C80C4F39D
S2140011E0032646F010061E7000225A70838853B1FC
S2140011F013461D4D0268D15CEA18117101339BB28B
S21400120082889A42F6D8154A536803EB83035B003C
S21400121017490B60936803EB83035B00154A136062
S214001220124A967102F8074F0F48C31C093013F88C
S214001230011F02F8011F8342F9D10C4B08225A7194
S2140012400FCBFFF709FE012070BD0020704700207D
S21400125070BD00BF202100201D210020805B000003
S2140012602421002008210020F8100020343100201E
S214001270142100201821002070B582B004469E4D2F
S2140012800FC885E80F006379082B40F00382A37926
S21400129003F0F002102A57D001D83AB1FAE1202A1A
S2140012A000F0BB80302A00F06881F3E1934A1278A0
S2140012B0023AD2B2012A40F2ED8103F00F06904BBB
S2140012C01B78012B12D18F4B5E805EB1A31D8E4A18
S2140012D0711E89B207310C4413F8011F02F8011F72
S2140012E0A342F9D1874802F0BFFED3E1751EADB226
S2140012F0062D00F2CF81854B1B7843B10023844A2C
S2140013001360844A1360844A1360FFF7D5FE834B4C
S2140013105E804EB1A31D824AE81D204413F8011FCB
S21400132002F8011F8342F9D100227E4B1A7122680F
S21400133040F2FF739A4279480CBF0221012102F065
S21400134065FEFFF7B9FEA5E16C4A1278023AD2B202
S214001350012A40F29F8103F00F03E27902EB032596
S214001360227A714B1A700122654B1A70B5F5805FB0
S21400137050D2072D4BD9654B1B7843B10023644AE6
S2140013801360644A1360644A1360FFF795FE634B6C
S2140013905D80226840F2FF739A4260480CBF0221CB
S2140013A0012102F0BFFE0122544B1A70E31D5C4A75
S2140013B00D3413F8011F02F8011FA342F9D10622CB
S2140013C05A4B1A80554B5A88063A5A8000225A7051
S2140013D030221A70564AD36803EB83035B005549E4
S2140013E00B60136903EB83035B0053490B6053697F
S2140013F003EB83035B00514A13600122454B1A60DE
S2140014000522424B1A704E48FFF7A8FE42E1FFF74E
S21400141053FE3FE1FFF750FE3CE1384A1278012ABE
S21400142040F03881394A1278062A40F0338103F0BA
S2140014300F030021384A1160384A5278013202F010
S2140014400F02934240F08080344A537007212F4B9E
S21400145019705388062B01D8ABB923E02F49073BF8
S2140014604B80A31D314A128803320A4404F10D0052
S21400147013F8011F02F8011F8342F9D12B4A138883
S2140014800733138011E0A21D284908882449014427
S214001490013B9BB20733234412F8010F01F8010FFA
S2140014A09A42F9D100221D4B5A80264A1388073BE0
S2140014B09BB21380194A52887AB9226840F2FF73A9
S2140014C09A4216480CBF0221012102F09FFD00221D
S2140014D00B4B1A70FFF7F0FDDCE033B101220E4B28
S2140014E01A600622094B1A70D4E00122094B1A60D2
S2140014F00522064B1A70CDE0DC3200201D210020AC
S21400150004210020282100202B210020202100205B
S214001510082100200021002010210020F8100020C3
S214001520FB100020E0430020052100201E210020A3
S214001530805B0000242100201421002018210020B8
S2140015402884FF1F0C210020FFF7B6FD7F238DF8AF
S2140015500430514B1B788DF8053024238DF8063067
S2140015604E4801AB036003238380FFF7F7FD02F0CC
S214001570EDFD00224A4B1A708CE0494A1278032A85
S21400158040F08880474A1278092A40F0838013F09A
S2140015900F035AD1444B1B780BBBE279434B1A70AE
S2140015A0237A13F0800F09D003F10F02D2B2082A73
S2140015B009D940F2F6423E4B1A800DE003F10F02C5
S2140015C0D2B2082A03D8F03B394A138004E003EB72
S2140015D083035B00364A13800122334B1A70334B69
S2140015E01B7823B9334B5A88334B1A803DE0C3EB44
S2140015F0C303314A138038E080B1304B19882D4D33
S214001600CB1C2B442E4A0C1D411E14FA81F16C187B
S21400161013F8011F02F8011FA342F9D1FFF768FD76
S2140016200822284B5A7108E012F8011F03F8011F20
S2140016308342F9D10822234B5A710122224B1A60A9
S214001640204B0FCBFFF708FC24E0012B03D101222F
S2140016501E4B1A601EE000241C4B1C60FFF72CFD7E
S21400166002F074FD0E4B1C7014E00022174B1A603B
S2140016700A220C4B1A700F4B1978124A917158882F
S2140016800628B9D90D4B1A88114B1A440D48831DEC
S2140016900D30C9E702B070BD052100202C310020B6
S2140016A01D210020202100201C2100200E210020CA
S2140016B0FC200020F81000200C2100201E21002015
S2140016C03A3100203431002008210020002100207B
S2140016D0FB10002008B5454B1B78023B082B00F298
S2140016E08480DFE803F00582278282820F82390039
S2140016F000233F4A13603F4A137002F049FDFFF78C
S214001700DBFC08BD3C4A5388063B538053780133C4
S214001710DBB2537043F0200313700622374B1A8057
S2140017200022334B1A600122354B1A6009222F4BD8
S2140017301A7008BD00222E4B1A602F4B1B7813F030
S2140017400F0F06D101222F4B1A600622274B1A7064
S21400175008BDFFF7B1FC08BD2B4B1B88062B02D932
S214001760073B294A1380244B5B88062B03D80022AC
S214001770214B5A8002E0073B1F4A538000221C4B35
S2140017801A601D4B5B8833B91A4B1A7002F000FDC5
S214001790FFF792FC08BD1C4B1B889BB1174A1388A9
S2140017A007331380144A5378013303F00F03537042
S2140017B043F0200313700122124B1A600B220B4BCE
S2140017C01A7008BD0D4A1388073313800A4A5378E7
S2140017D0013303F00F03537043F02003137001220C
S2140017E0074B1A600922014B1A7008BD2021002001
S2140017F0082100201D210020F81000201E210020B6
S21400180000210020102100200C21002038B5554B67
S2140018101B780B2B42D1544B1B68544A12889A42B1
S2140018205AD8534B1978534A91715888062817D8B6
S21400183080B1514B19884E4DCB1C2B4406320C1DE3
S214001840411E14FA81F16C1813F8011F02F8011FEB
S214001850A342F9D1FFF74CFC0822464B5A710FE021
S214001860454B1A88454B1A444248831D0D3012F8E2
S214001870011F03F8011F8342F9D108223D4B5A711C
S2140018800022394B1A6001223D4B1A600A22354B62
S2140018901A70384B0FCBFFF7DFFA1DE0052B1BD174
S2140018A0344C334B1B78A3710A23E3714622354B25
S2140018B01A80012525720220FFF71AFC082363719F
S2140018C00022314B1A602E4B1D600422254B1A70E5
S2140018D094E80F00FFF7C0FA294B1B689BB1284B12
S2140018E01A682A4B1B689A4209D3FFF7E5FB02F0F9
S2140018F02DFC0023224A1360254A137003E0204A79
S21400190013680A331360204B1B689BB11E4B1A6882
S214001910204B1B689A4209D3FFF7CEFB02F016FC59
S2140019200023194A13601A4A137003E0164A136814
S2140019300A3313600C4B1B689BB10B4B1A68164B93
S2140019401B689A4209D3FFF7B7FB02F0FFFB0023A0
S214001950054A13600E4A137038BD034A13680A33EB
S214001960136038BD2021002010210020FC2000201C
S214001970F8100020343100201E210020FB1000202B
S214001980082100200C210020002100202421002016
S2140019901D2100201421002018210020014B18785A
S2140019A0704700BF2021002004234370C388012B0A
S2140019B016D910B50A7802F07F04631EDBB2012B3D
S2140019C00BD812F0800F05D10C700223C3800323BE
S2140019D0437010BD02F0BAFB10BD1223C37010BDD9
S2140019E01323C370704700BF08B504234370C38831
S2140019F0032B13D10B7803F07F02032A0BD813F0C6
S214001A00800F05D10A700223C3800323437008BDEC
S214001A1002F09CFB08BD1223C37008BD1323C370DD
S214001A2008BD00BFF8B504234370C388022B27D136
S214001A300F7807F07F06731EDBB2022B1DD80D460B
S214001A400446012000F0EAFC012813D1304602F0DB
S214001A5037FD01220C4B1A7017F0800F07D12E703D
S214001A600223E38003236370084B1A70F8BD02F06C
S214001A706DFBF8BD3323E370F8BD1223C370F8BDC9
S214001A801323C370F8BD00BFD0330020ED43002001
S214001A902DE9F04FADF5805D83B081467E4B1A7818
S214001AA07E4B1A70C388012B40F2DC808A46013BCD
S214001AB013F00102009240F0D88003EBD373C3F317
S214001AC04F03002B00F0D4804D1C5E1EB6B201EB17
S214001AD0460603364FF0000ECDF804E0704F714C0A
S214001AE033467646984615F801CC2B7803EB0C2C3B
S214001AF01FFA8CFC3978009B002201E0594602460A
S214001B005FFA83FB1801005B604500F0B4808B46EB
S214001B1010460D2B05D00133012AEFD1FFE73970AF
S214001B2002E03970012A60D13A7804EB02131B7B7D
S214001B30594909780B4113F0010F52D004EB0213F8
S214001B4099780EEB0103023340F6FE70834242DCC6
S214001B504FEA1C2302A800F80E300EF101039BB2D8
S214001B6000F803C00EF1020B1FFA8BFB04EB021306
S214001B709B688BB1584498473B7804EB031393F863
S214001B8002E0DE441FFA8EFE002865D001285AD1F6
S214001B902222454B1A7076E004EB021250680028A9
S214001BA050D0002957D001384A1ED2B2D31C9E44CA
S214001BB01FFA8EFE5B4610F8011F0DF1080C0CF89C
S214001BC0031001339BB27345F5D102F1010EDE44DA
S214001BD01FFA8EFE40E03122334B1A700023019329
S214001BE051E03122304B1A7039E031222E4B1A70F8
S214001BF035E02D4B1E78023545457FF474AFB04670
S214001C00019B012B18D1BEF1000F0DD00DF107027C
S214001C100AF1FF330EF1FF311AFA81FA12F8011FAA
S214001C2003F8011F5345F9D10EF1010EA9F806E09D
S214001C30032389F8013029E0042389F8013089F864
S214001C40038023E0DE46184B1B78312B019B08BF30
S214001C500023019317E0DE4601230193CBE7002E15
S214001C60C7D0C8E74FF01308E6E74FF01308E3E7DE
S214001C704FF00008E0E70D2B18BF59467FF44FAF32
S214001C80594601224DE7002EB3D0B4E70DF5805D2E
S214001C9003B0BDE8F08F00BFD03300202033002013
S214001CA045310020A85B0000443100200A4681B17F
S214001CB0094B1978094B03EB011359684B1E013881
S214001CC0013A51FA82F113F8012F00F8012F8B42E6
S214001CD0F9D10020704700BF45310020A85B000006
S214001CE02DE9F04782B004460D464E780423437033
S214001CF0012000F093FB012840F09080E288032A40
S214001D0040F2898006F00F0303EB16160336B24244
S214001D1040F08180697801F00F08C646424BC3F850
S214001D20008009090E46414B19602B78002B6FD1B5
S214001D303F4A13603F4A136005F102098DF80730E9
S214001D40B8F1000F18D04FF0000C0346E246C3EB84
S214001D500802D2B28DF806209DF8067019F80A20FF
S214001D60FF00BA404CEA020C9A460133DBB2D64575
S214001D70EDD82F4BC3F800C0B1B12E4B1F684FF003
S214001D80000CCE440B1ADBB28DF806309DF8062008
S214001D901EF80C30D20093401F4384460130C0B278
S214001DA06645EFD8234B1F60214B1868214B1968F6
S214001DB0FEF764FC012804BF01238DF807309DF868
S214001DC00730DBB2012B20D101F010FF012819D11A
S214001DD0174B1868174B1968012201F0C7FE012837
S214001DE00DD140232B7000236B70AB700423EB7077
S214001DF002232B710623E3800323637010E0222363
S214001E00E3700DE07023E3700AE03123E37007E02F
S214001E103123E37004E01323E37001E03323E3701F
S214001E2002B0BDE8F08700BF4C31002054310020DE
S214001E304831002050310020F8B5C388032B40F20B
S214001E40C0804E788B7803EB0626B6B2634B1D78BF
S214001E50002213461446DFF888C101E03D4674466A
S214001E605FFA83FE32F80C70B74200F0AF802F4660
S214001E70A646042B08D001330C32012CEED100E02C
S214001E807546564B1D7004E0544B1D70012C40F0F7
S214001E9093800D460446012000F0C0FA012840F069
S214001EA086804E4B1A7802EB42014D4B03EB8103C2
S214001EB01B7A4C4909780B4113F0010F72D02B782E
S214001EC0012B29D102EB4202454B03EB82035B68F0
S214001ED0204629469847444B1870012807D13F4BA7
S214001EE01B780121414AD15403236370F8BD0228B0
S214001EF004D1042363707223E370F8BD032804D171
S214001F00042363707823E370F8BD062864D10423A5
S214001F1063701323E370F8BD022B19D1334B9B5C1F
S214001F20012B10D1304B1B78012B07D102212F4BF0
S214001F3099540423E38003236370F8BD042363707D
S214001F402223E370F8BD042363702423E370F8BDF6
S214001F50032B22D1254B9B5C013BDBB2012B17D810
S214001F60214B1B78012B05D12B700023EB7003232C
S214001F706370F8BD0BB1032B05D101232B70EB70FA
S214001F8003236370F8BD042363702223E370F8BD57
S214001F90042363702423E370F8BD042363701223C4
S214001FA0E370F8BD042363703123E370F8BD0423A7
S214001FB063703323E370F8BD042343703123C3708A
S214001FC0F8BD042343701323C370F8BD042B7FF4BD
S214001FD057AF7546012457E7F8BD00BF58310020BB
S214001FE09C5C0000D0330020593100205C3100207A
S214001FF038B504464378022B2CD10D46C388052BF2
S2140020004FD1CB78023BDBB2012B4CD80423C380E4
S21400201043700022254B1A70FEF786FDB0B9EB78A8
S214002020022B0FD14FF400404FF4C831FEF75AFB95
S214002030062803D105236370032038BD042363708C
S214002040022038BD04236370312038BD042363703A
S214002050002038BDFEF762FD0546FEF765FD28B98F
S214002060042363707223E370022038BD022803D174
S21400207005236370032038BD03280ED1042D06D136
S2140020800423E380132002F029FA012038BD04233C
S21400209063707223E370022038BD0423637002204D
S2140020A038BD062038BD062038BD00BF5A31002096
S2140020B008B50423C380032343704FF40030102177
S2140020C0024A02F04FFE012008BD00BFD85C0000A7
S2140020D008B50523C3800023CB70032343704FF459
S2140020E000301021024A02F03DFE012008BD00BF6C
S2140020F0E85C0000F0B589B007464378022B39D17A
S214002100C8780B791B0443EA00638879034348794F
S21400211043EA002091F807E00B7A1B0443EA0E63BB
S21400212091F80AE043EA0E0391F809E043EA0E2E1E
S214002130FD88A5F10C0313F0FF030DD001F10A0290
S2140021400DF1FF340D3DEDB20B354E1912F8015F5F
S21400215004F8015FB242F9D171466A46FEF79AFC6E
S214002160022803D105237B7003201CE004237B7028
S214002170022018E0FEF788FC112803D104237B70A8
S214002180022010E0122805D10423FB8003237B7075
S214002190012008E0102803D004237B70022002E010
S2140021A005237B70032009B0F0BD00BF10B50446C0
S2140021B04378022B0CD1C878FEF79AFC022803D18C
S2140021C005236370032010BD04236370022010BD36
S2140021D0FEF75AFC1C2808D10423E380032363700F
S2140021E00122034B1A70022010BD022010BD00BF52
S2140021F0593100200246F0B90023224A137001220A
S21400220021490A7021490A6021490A7021490B7048
S21400221021490B7021490B6021490B6021490B6055
S21400222021490B7021490B6021490B6021490B6045
S214002230214B1A7021E0002313490B7013490B60E1
S21400224001211348017013480370134803701348A4
S2140022500360134803601348036013480370134871
S21400226003601348036013480360134B19708A42D7
S21400227003D10222114B1A70704701220F4B1A70BD
S214002280704700BFDC43002095330020B4330020A5
S214002290A833002094330020BC330020A433002051
S2140022A098330020B03300208C330020B833002051
S2140022B090330020AC33002064310020A03300208F
S2140022C00023074A1360074A1360074A1360074A49
S2140022D013600121064A1170064A1370704700BF4A
S2140022E0B833002090330020A43300209833002019
S2140022F064310020DC43002008B53A4B1B686BB104
S214002300394A934207D9FFF7DBFF0023374A1360A9
S214002310344A136002E00333324A1360344B1B68BE
S21400232093B141F2873293420BD9FFF7C9FF314A86
S21400233013780133137000232F4A13602C4A13605E
S21400234002E003332A4A13602C4B1B68B3B1264ABB
S214002350934210D9FFF7B4FF0023264A1370284A89
S2140023601360264A13600121264A11601D4A136035
S2140023701F4A136002E00333204A1360214B1B6898
S2140023808BB1214A93420BD9FFF79AFF0023194AD3
S21400239013701B4A1360194A13601A4A136002E04E
S2140023A00333184A1360194B1A78194B1B789A4254
S2140023B001D0FFF785FF174B1B686BB1164A1278E2
S2140023C0012A09D1B3F57A7F03D90022124B1A707D
S2140023D002E003330F4A13600D4B1A780B4B1A704A
S2140023E008BD00BFA4330020BFD40100B8330020CE
S2140023F098330020BC33002090330020B0330020F8
S214002400AC3300209C3300201FBF0200A033002006
S214002410D0330020B43300209533002001207047CD
S214002420022942D170B5BCB0064609A821495B22F4
S21400243003F08CFA20A8FEF77DFB082130910023DC
S2140024408DF8803003228DF8812001228DF88220BD
S2140024508DF88330184B1A788DF884205A788DF8CA
S21400246085209A788DF88620DB788DF8873020A82E
S214002470FEF736FC33A90DF105033BAD51F8042FEA
S214002480140E03F8014C140C1C70140A5C709A703D
S2140024900433A942F2D10DF13F0001A9324600F003
S2140024A0F3FF003018BF012001E0002070473CB069
S2140024B070BD00BFF85A00006831002070B582B0C9
S2140024C00B7813F0010617D0002B00F00781292B9C
S2140024D000F2098101248A4A14708A4A1268A242CC
S2140024E040F0068103E05A1ED2B2282A04D80423FC
S2140024F043703723C37001E10D460446804A1178C5
S2140025004A1E032A00F2E580DFE802F0027D027D23
S2140025106278022A72D17C4A1370002E5ED05A1E50
S214002520D2B27C2A5AD8E288022A52D1012B4BD149
S2140025300422764B1A8000F001F9754A80F0660393
S2140025401370C0F3072383F066035370C0F307438A
S21400255083F066039370030E83F06603D3709DF8D2
S214002560083083F0660313712B1D05F1080012F87E
S214002570011B03F8011F8342F9D100236B7003226D
S214002580AA700122EA702B71614B1A786A715A7828
S214002590AA719A78EA71DB782B725E4B1B78012B56
S2140025A00CBF04220222564B1A7001225A4B1A60A4
S2140025B0554B1B78594A13702B70544B1B880633A7
S2140025C0E3800323637099E0042363701223E370AF
S2140025D094E0042363701323E3708FE0042B03D08E
S2140025E0082B01D07E2B04D1042363702423E370D0
S2140025F084E0042363701223E3707FE00423637097
S2140026001323E3707AE06278022A77D1022975D123
S214002610002E59D19A1ED2B27C2A55D8042B03D04C
S2140026207E2B01D0022B4AD1681C1946FFF7F8FE14
S21400263030B93B4B1B78012B14BF00230123D3B1C9
S2140026400122344B1A70304B1B7834490B701344FC
S2140026502B700223E38003216170324B1A60324BE9
S2140026601A600023314A1370254A1170304A1360ED
S214002670294A136042E0EBB92C4A13780133DBB2E7
S2140026801370052B0CD92B4B1B6823B90123294A41
S21400269013601C4A1360042363703623E3702DE036
S2140026A0042363703523E3700023214A13601A4A1B
S2140026B0136023E0042363701223E3701EE00423F8
S2140026C063701223E37019E0042363701323E3702E
S2140026D014E0042363701323E3700FE0094A1268C2
S2140026E0012A05D108E7074A1268012A3FF404AF19
S2140026F0114A1278012A7FF4FFAEF4E602B070BDEC
S21400270064310020AC3300208C330020623100207E
S21400271068310020DC4300209833002094330020EA
S2140027200084FF1FB8330020A4330020BC330020F1
S21400273090330020B03300209533002070B5084E4B
S21400274043F23904002503F0F1F8C317A0FB060195
S21400275006FB03110019694150EA0103F3D070BD6E
S2140027606D4EC64130B4A0F1080318300024002591
S214002770E3E902458342FBD130BC7047D0E9002331
S21400278013430BD130B403461830F3E9024554EA3C
S214002790050205D18342F8D1012002E000207047EF
S2140027A0002030BC704700BF30B4D0E90623134386
S2140027B00FD100F11802022303E0013BB3F1FF3F03
S2140027C01FD072E9024554EA0501F6D0591C01D122
S2140027D018E0042100EBC10050E9022352EA03008E
S2140027E008D000205B084FEA3202013052EA0304A8
S2140027F0F8D100E0002001F18063013B00EB83117B
S21400280000E00021084630BC704700BF30B4A1F19C
S214002810080308381831F3E90245E0E902458B421F
S214002820F9D130BC704700BFF0B4D0E90645D1E915
S2140028300623AB4208BFA24216D39D4208BF94426D
S21400284014D300F11803183173E9026771E90245E1
S214002850BD4208BFB4420CD3AF4208BFA6420AD35B
S2140028608342F1D1002008E0012006E04FF0FF305F
S21400287003E0012001E04FF0FF30F0BC704700BFDE
S2140028802DE9F04F85B0A1F10807A0F1080C01F181
S214002890180A00200021A2F1200BC2F120030193A8
S2140028A0C2F1400ECEF120030293AEF12003039353
S2140028B0009257F8086F7B68009A03FA02F506FA4A
S2140028C00BF845EA0805019A26FA02F845EA0805D3
S2140028D0009A06FA02F440EA040841EA0509ECE91F
S2140028E0028926FA0EF0029A03FA02F63043039A99
S2140028F023FA02F6304323FA0EF15745D9D105B034
S214002900BDE8F08F2DE9D00300F1200100F1180496
S214002910884213D20026002771E902895FEA59032C
S2140029204FEA380232433B43C1E900234FEAC877F7
S2140029300026083C04F108039842EDD3BDE8D00316
S214002940704700BF2DE9F041A1F10803083AA0F155
S214002950080E01F1180C002000214FF00008F3E9E2
S2140029600267F2E90245A4197D4124184D41AF42A1
S21400297008BFA64206D0BD4208BFB44234BF0120FD
S21400298000204146EEE902456345E8D1BDE8F08106
S2140029902DE9F041A1F10803083AA0F1080E01F173
S2140029A0180C002000214FF00008F3E90267F2E956
S2140029B00245341B67EB0505241A65EB0105AF429B
S2140029C008BFA64203D034BF012000204146EEE9EE
S2140029D002456345E9D1BDE8F08100BF2DE9F04F1F
S2140029E095B0139011911292A0F1080310936FF016
S2140029F002030F9300220023CDE90823CDE9062326
S214002A0000230E930E9B032B09D90F9A0E998A4228
S214002A1000F28B80032A00F29280964601E04FF087
S214002A20000E119B03EBCE030B930E9BCEEB030C19
S214002A30129B03EBCC0CDDE90823CDE90C23DDE982
S214002A400623CDE9082300230693079301E0CDE98A
S214002A500C230B9BF3E802890B937CE8020100230E
S214002A600446002500FB03F008FB0500A4FB0867EE
S214002A700744A1FB08AB01FB03BBA1FB0901A4FBB8
S214002A80092309FB053312EB0A0243EB0B030097FD
S214002A9000240194DDE90045A4185D4122462B463A
S214002AA05D4508BF544502D2003041F10101029352
S214002AB000240394DDE9028918EB000449EB0105C4
S214002AC0204629460592CDF81090DDE9042342EA17
S214002AD00602DDE90C67B41847EB030522462B46D1
S214002AE0BB4208BFB24234BF01260026841941F11A
S214002AF00005DDE9086736196F41CDE908678F42A2
S214002B0008BF864234BF01200020DDE906452418B0
S214002B1045EB0905CDE906450EF1010E0E998E45E9
S214002B2016D8BEF1030F92D912E0DDE90823DDE9DD
S214002B300601CDE9080100210691079108E0DDE9CC
S214002B400823DDE90601CDE9080100210691079179
S214002B501099E1E9022310910E9B01330E930F9A10
S214002B6001320F92072B7FF44DAF139B1946DDE918
S214002B700823C1E90E2315B0BDE8F08F38B504462A
S214002B801D46FFF7DFFE50EA010305D12046294621
S214002B90FFF74AFE002804DB204621462A46FFF7B8
S214002BA0F7FE38BD38B504461D46FFF7F1FE50EA7D
S214002BB0010304D0204621462A46FFF7C3FE38BD4F
S214002BC02DE9F04F8BB005468846FFF71FFE00261E
S214002BD00027CDE90267D8E90A2300201946CDE987
S214002BE00401D8E90C23CDE90623D8E90E23CDE964
S214002BF0082302A801460122FFF742FE04462846A3
S214002C00294602AAFFF79EFE0444D8F830304FF05B
S214002C100009CDF810900593D8F838B0D8F83400ED
S214002C2049EA00024BEA0903CDE90623D8F83C300E
S214002C300893CDF8249002A801460122FFF720FE53
S214002C4004442846294602AAFFF77CFE0444D8E935
S214002C500823CDE90223D8E90A2310460021CDE94E
S214002C600401CDE90667D8E90E23CDE908232846F6
S214002C70294602AAFFF766FE0444D8F828B0D8F81A
S214002C80240049EA00024BEA0903CDE90223D8E909
S214002C900CAB00225B46D8F82C00494602430B4397
S214002CA0CDE90423D8E90E23CDE90623D8F8203051
S214002CB00193CDF8009058464946DDE900230243CB
S214002CC00B43CDE908232846294602AAFFF73AFE19
S214002CD00444D8F830B0D8F82C0049EA00024BEA91
S214002CE00903CDE90223D8F834300493CDF81490C4
S214002CF0CDE90667D8F828B0D8F8201049EA0102CE
S214002D005B46CDE908232846294602AAFFF740FE7F
S214002D10241AD8E90C23CDE90223D8E90E23CDE9FD
S214002D200423CDE90667D8E90A230026D8F824004C
S214002D3046EA000243EA0903CDE908232846294665
S214002D4002AAFFF725FE241AD8F83060D8F838B063
S214002D50D8F8340049EA00024BEA0903CDE9022319
S214002D60D8F820B0D8F83C0049EA00024BEA09033C
S214002D70CDE90423D8F828B0D8F8240049EA0002A0
S214002D804BEA0903CDE90623CDF82090099628469C
S214002D90294602AAFFF7FCFD241AD8E90E23CDE93E
S214002DA00223D8E9082300201946CDE90401D8E912
S214002DB00A23CDE90623D8E90C2300201946CDE9DD
S214002DC008012846294602AAFFF7E2FD241A0FD575
S214002DD00D4E284629463246FFF7B4FD2418F8D48F
S214002DE00FE0284629463246FFF7D2FD241A00E0B7
S214002DF0054E002CF5D130462946FFF715FD012873
S214002E00EFD10BB0BDE8F08F9884FF1F10B590B0DF
S214002E1004466846FFF7E2FD20466946FFF7D0FE07
S214002E2010B010BDF0B5A1B005460E4614460846D3
S214002E30FFF7A4FC18B12846FFF794FCE3E018A8B7
S214002E403146FFF7E3FC10A82146FFF7DFFC08A891
S214002E50FFF788FC01220023CDE908236846FFF728
S214002E6081FCB3E0DDE9182302F0010200231343DE
S214002E701FD118A8FFF746FDDDE9082302F001027E
S214002E800023134300F0AF8008A801462246FFF750
S214002E9059FD06460F4608A8FFF734FD56EA070315
S214002EA000F09480DDE90E2343F00043CDE90E23C5
S214002EB08CE0DDE9102302F00102002313431ED14B
S214002EC010A8FFF71FFDDDE9002302F00102002332
S214002ED0134300F08C80684669462246FFF732FDB1
S214002EE006460F466846FFF70DFD56EA07036DD007
S214002EF0DDE9062343F00043CDE9062366E000291A
S214002F0032DD18A8014610AAFFF742FD18A8FFF701
S214002F10F9FC08A86946FFF787FC002804DA08A829
S214002F2001462246FFF70EFD08A801466A46FFF74F
S214002F302FFDDDE9082302F00102002313435AD0D7
S214002F4008A801462246FFF7FDFC06460F4608A8DD
S214002F50FFF7D8FC56EA070338D0DDE90E2343F026
S214002F600043CDE90E2331E010A8014618AAFFF76A
S214002F700FFD10A8FFF7C6FC684608A9FFF754FC2B
S214002F80002804DA684669462246FFF7DBFC6846F6
S214002F90694608AAFFF7FCFCDDE9002302F00102FF
S214002FA0002313432BD0684669462246FFF7CAFC27
S214002FB006460F466846FFF7A5FC56EA070305D007
S214002FC0DDE9062343F00043CDE9062318A810A93F
S214002FD0FFF72AFC014600287FF444AF284608A9DC
S214002FE0FFF714FC0FE008A8FFF78CFCEEE7684636
S214002FF0FFF788FCEAE708A8FFF784FCE6E76846E0
S214003000FFF780FCE2E721B0F0BD00BF2DE9F04FEE
S21400301089B00838A1F1200E0A7E1306019300231A
S21400302000934A7E13040393DDE900670296DDE908
S214003030022316431F43CA7F002332433B438E7E40
S21400304036020596009E0496DDE9046716431F4384
S21400305032463B46CE7E0796009E0696DDE906671C
S21400306016431F4332463B460E7F4FF0000949EA9F
S21400307016294FEA066842EA080243EA09034E7F29
S2140030804FF0000B4BEA164B4FEA064A42EA0A029A
S21400309043EA0B038E7F002545EA16653402224379
S2140030A02B43E0E9022308397145B5D109B0BDE8E4
S2140030B0F08F00BF2DE9F047A0B005468A461446BB
S2140030C098461846FFF770FB814610A851462246E0
S2140030D0FFF784FC18A8FFF767FB10B100F58074B3
S2140030E003E010A8FFF760FB04464C4504D22846D0
S2140030F010A9FFF78BFB60E06846FFF733FB08A8D4
S214003100FFF730FBC9EB04034FEA931913F03F02B5
S2140031100AD00DEBC9004146FFF7B2FB20AB03EB2C
S214003120C90949E9180104E00DEBC9004146FFF75B
S2140031306DFB2846FFF716FB01220023C5E9002396
S2140031402EE008A818A9FFF76FFB002806DBB8B921
S214003150684610A9FFF768FB002811DC10A8014696
S2140031606A46FFF715FC50EA010304D018A801468A
S2140031702A46FFF70DFC18A8014608AAFFF708FC28
S214003180089BDF07002608A8FFF7BCFB6846FFF78A
S214003190B9FBDDE9062332433B43CDE90623013C78
S2140031A0B4F5807FCDD868464146FFF73DFB002842
S2140031B0C7DA284610A9FFF729FB20B0BDE8F0873C
S2140031C02DE9F04FA7B01590149114AB139300227D
S2140031D00023CDE90023CDE9082300231293129B98
S2140031E0032B09D9A3F1030E9E4500F2B2804FF0DF
S2140031F0030CE64504D9B6E0DDF848C04FF0000EF3
S214003200149A02EBCE030B9302EBCC030A93DDE990
S2140032100823CDE90C23DDE90023CDE908230023AC
S2140032200093019301E0CDE90C450B9BF3E80245C2
S2140032300B930A9B73E802890A93224600234046B2
S214003240002108FB03F402FB0144A8FB02672744A5
S214003250A9FB02AB09FB03BBA9FB0589A0FB052361
S21400326005FB013312EB0A0243EB0B030297002126
S2140032700391DDE902018018594102460B46594583
S21400328008BF504503D218F1000849F1010905921C
S21400329000210491DDE9040104460D4644EA0604D3
S2140032A006930790DDE9062312EB080243EB0903B9
S2140032B090469946E6451DD2DB0F0E9300230F93EA
S2140032C0DDE90E01DDE90067821941EB0703CDE970
S2140032D0002318EB080849EB0909EB0F109311912E
S2140032E0DDE9102342EA080243EA090390469946BC
S2140032F024196D41DDE90C01021941EB0503144662
S2140033001D468D4208BF844234BF0121002118EBC0
S214003310010249F10003DDE9080180185941CDE9B1
S2140033200801494508BF404534BF0122002200235A
S214003330DDE9000180185941CDE900010EF1010ECA
S214003340129B9E4518D80CF1FF3CE6457FF66BAF06
S21400335012E0DDE90845DDE90023CDE90823002376
S2140033600093019308E0DDE90845DDE90023CDE997
S2140033700823002300930193139BE3E9024513936C
S214003380129B01331293072B7FF429AFDDE9082344
S214003390CDE92423159816A9FFF712FC27B0BDE83F
S2140033A0F08F00BF70B588B006460C4615466846D6
S2140033B01146FFF705FF304631466A46FFF726FD01
S2140033C0684669462A46FFF721FD204621466A469A
S2140033D0FFF71CFD08B070BD2DE9F04188B0074628
S2140033E0884614461E46274D684611463A462B46E2
S2140033F0FFF7D8FB68466946FFF7E2FE38463946CF
S2140034006A46FFF703FD204621466A46FFF7FEFCA4
S2140034103046314642462B46FFF7C4FB68463146E7
S214003420FFF7CEFE684669463A462B46FFF7BAFBDC
S2140034306846694622462B46FFF7B4FB20462146DF
S2140034403A462B46FFF7AEFB404641462246FFF77C
S214003450DDFC204639466A462B46FFF7A3FB30467E
S21400346031462246FFF7D2FC3046314642462B46CE
S214003470FFF798FB20466946FFF7C8F908B0BDE895
S214003480F08100BF9884FF1F2DE9F04FADF5077D52
S2140034900546884614465EA82946FFF7B7FD66A887
S2140034A005F12001FFF7B2FD1EA82146FFF7AEFD8D
S2140034B016A804F12001FFF7A9FD1EA8FFF75EF984
S2140034C0002840F0B181054616A8FFF757F90446D4
S2140034D0002840F0AB8183481EA9FFF7A5F9012814
S2140034E040F0A5817F4816A9FFF79EF9012840F015
S2140034F09E817C4D6EA816A92A46FFF793FC7EA8EF
S2140035004146FFF783FD7EA801466EAA2B46FFF7CD
S214003510D1FD76A81EA96EAA2B46FFF7CBFD4EADB1
S2140035200DF5BC7928464946FFF770F956A866A9F6
S214003530FFF76CF9DFF8B48136A84146FFF766F965
S2140035402EA808F12001FFF761F96EA8294636AAD1
S214003550654BFFF727FB36A82EA92A4656ABFFF782
S2140035603BFF6EA80146604AFFF75CFC284656A95A
S2140035706EAAFFF717FF00231293CDF84C80CDF804
S214003580509015957EA8FFF70FF9054676A8FFF729
S2140035900BF9854238BF0546691E4FEA911E4FEA71
S2140035A0CE0E01F03F010120A1F12008C1F1200C50
S2140035B000FA08F320FA0CFC43EA0C0300FA01F2C6
S2140035C07EA97144D1E9000110401940014314BF9F
S2140035D04FF0010C4FF0000C76A98E44DEE9000196
S2140035E002400B4013430CBF2346022343EA0C0C55
S2140035F012AB53F82C8046A84146FFF707F93EA8C1
S21400360008F12001FFF702F96EA8FFF7ABF80122D8
S21400361000236EA9C1E90023023D00F1E880DFF82F
S214003620C8806EA8FFF7AAF8002840F0918002A88C
S2140036303EA9FFF7C5FD0DF58C790AA8494602AAF2
S214003640FFF7E4FB02A80146FFF7BAFD3EA80146D5
S2140036506EAAFFF7DBFB6EA80146FFF7B1FD4846F2
S21400366049466EAA4346FFF789FA6EA80146024607
S2140036704346FFF783FA6EA8494602464346FFF7DD
S21400368091FA484649466EAAFFF7C0FB6EA849461F
S2140036904A464346FFF772FA484649466EAA4346EC
S2140036A0FFF76CFAD9E9002302F001020023134366
S2140036B01ED00DF58C79484649464246FFF742F93A
S2140036C001904846FFF71EF9019B4FEAC37B4FF077
S2140036D0000AD9E9062342EA0A0243EA0B03C9E9CB
S2140036E0062308E07884FF1F9884FF1F3884FF1F96
S2140036F046A8FFF707F96EA846A9FFF761FD6EA872
S21400370001460AAA4346FFF74DFA6EA801460AAAE2
S2140037104346FFF747FA0AA801466EAA4346FFF754
S21400372041FA46A801460AAAFFF770FB02A846A976
S21400373002464346FFF736FA46A86EA9FFF766F834
S2140037406EA83EA9FFF762F83EA802A9FFF75EF84A
S214003750AB09DB0005F03F020121A2F1200EC2F109
S214003760200001FA0EF721FA00F0074301FA02F6EC
S21400377086AA1A4452E908013040394050EA01024C
S21400378014BF0122002286A90B4453E910013040E1
S214003790394050EA01030CBF23460223134312AA02
S2140037A052F82390B9F1000F1ED036A84946FFF70D
S2140037B02DF82EA809F12001FFF728F836A82EA923
S2140037C06EAAFFF7EFFD26A846A936AA4346FFF7DE
S2140037D0E9F936A82EA946AA3EABFFF7FDFD6EA86E
S2140037E0014626AAFFF712FB013D7FF51AAF6EA829
S2140037F00146114AFFF716FB46A83EA96EAAFFF738
S214003800D1FD0E4846A9FFF70FF8012804D046A8B8
S21400381001460A4AFFF7BCF846A81EA9FFF704F8B7
S214003820B0FA80F4640902E0002400E02C4620464A
S2140038300DF5077DBDE8F08F9884FF1F7884FF1F85
S21400384010B5C388022B25D10A7802F07F03012B1E
S21400385007D11E4B1B78012B34D001241B4B1C7048
S21400386030E0032B07D1194B1B78032B2AD00324F7
S214003870164B1C7026E0022B07D1144B1B78022B2C
S21400388020D00224114B1C701CE00423437012232A
S214003890C37010BD042343701323C37010BD0B4BBD
S2140038A01B780B7000234B7032238B700123CB7078
S2140038B0F4230B710623C3800323437010BD00F06E
S2140038C045FC10BD12F0800FE9D0F8E7D033002099
S2140038D00023064A1370064A1360064A1360064A17
S2140038E01370064A1370064A13807047763100201C
S2140038F070310020783100207531002074310020AE
S2140039007C310020F8B5C388012B40F2F380914A41
S214003910127832B92423C3700323C3800423437070
S214003920F8BD541E052C00F2E180DFE804F0030326
S214003930038080800E460546023B9CB24378052BEA
S2140039402DD1FDF7EBF8042817D1834A137833708E
S21400395001331370814B1B6833B903227D4B1A70F9
S214003960152000F0BBFD03E0A3423CBF7B4B1C6070
S2140039700223EB8003236B70F8BD032801D00528D3
S21400398008D1FFF7A5FF7223EB700323EB80042317
S2140039906B70F8BD7823EB7005236B70F8BD032AB7
S2140039A000F0B98008786C4B1B78834226D16B4BAD
S2140039B01B689C421BD8022800D100BF711C2246FF
S2140039C0FDF716F8042808D0FFF782FF7223EB7085
S2140039D00323EB8004236B70F8BD02225D4B1A7044
S2140039E07823EB700323EB8004236B70F8BD712300
S2140039F0EB700323EB8004236B70F8BD012A40F0C4
S214003A0092800DE0013B33700223EB8003236B7042
S214003A10F8BD2423EB700323EB8004236B70F8BD02
S214003A207323EB700323EB8004236B70F8BD062A28
S214003A3000F081800F784A4B1B78BB423CD1474B45
S214003A40D3F800E040F6FD739E455AD81FFA8EF56F
S214003A50444BD3F800C06446002D59D0013C0E46B6
S214003A600A4614F8013F02F8013F931B9BB29D42A1
S214003A70F7D82B46AE4504D3C3EB0E04374A146082
S214003A8002E00024354A14606344364A1360364B1D
S214003A901D800F700137324B1F70304B1B681BB9EF
S214003AA006222C4B1A7002E005222A4B1A700235A9
S214003AB0C58003234370F8BD042A43D10FE0013BC1
S214003AC00B70294B1B880233C38003234370F8BD59
S214003AD02423C3700323C38004234370F8BD7323D9
S214003AE0C3700323C38004234370F8BD0022194B20
S214003AF01A70F8BD1323C3700323C38004234370D6
S214003B00F8BD184BD3F800C0644640F6FD75A5E72F
S214003B101FFA8EF3B0E7104B1B78591E327891428D
S214003B207FF477AF6EE70C4B1B78591E32789142C4
S214003B307FF476AF66E70A4B1B785C1E0A789442E1
S214003B40C6D1BCE7064B1B785C1E0A789442C6D1E9
S214003B50B5E700BF763100207531002078310020AF
S214003B6074310020703100207C31002010B5194BD4
S214003B701B789C1EE4B2012C27D9053BDBB2012B37
S214003B8025D9012A08D10123124A1370124A13704C
S214003B900022124B1A700DE0042A08D10D4B1A7041
S214003BA001220E4B1A7000220B4B1A7002E0002204
S214003BB0084B1A700A4B18600A4B1960FCF7B0FDE8
S214003BC00022094B1A80012010BD002010BD0020E5
S214003BD010BD00BF76310020753100207431002002
S214003BE070310020783100207C310020074B1B7894
S214003BF043B9074B1B783BB9064B1878B0FA80F0F0
S214003C00400970470020704700207047763100203A
S214003C107531002074310020C388012B13D110B5F4
S214003C200446FFF7E3FF48B9FFF752FE0123E3809F
S214003C3003236370162000F051FC10BD2423E370AC
S214003C400423637010BD1323C370042343707047AE
S214003C500F4B1B78012B14BF012200220D4B1A605C
S214003C60C388022B0FD10B7813F07F0F06D10023E9
S214003C700B700223C38003234370704704234370F2
S214003C801223C3707047042343701323C370704716
S214003C90D0330020C033002070B505460C461646CB
S214003CA00120FEF7BBFB012840F0A48005EB45058C
S214003CB05A4B33F825304FF28B12934256D00DD81C
S214003CC04FF28412934221D04FF28512934228D0AD
S214003CD04FF25A12934240F08F800CE04FF291124E
S214003CE0934271D0B3F5724F26D04FF28C129342A6
S214003CF040F0828051E0631E494A323413F8011FB7
S214003D0002F8011FA342F9D1012070BD631E454A87
S214003D10323413F8011F02F8011FA342F9D1012023
S214003D2070BD631E404A323413F8011F02F8011FAB
S214003D30A342F9D1012070BD012E5FD12378013B4B
S214003D40DBB2012B5CD84FF4E6204FF4805100F034
S214003D50C5FFC0B228B94FF4E6200821224601F07C
S214003D6001F82278314B1A70012070BD042E49D11B
S214003D704FF4E0204FF4805100F0B0FFC0B20028AE
S214003D8042D14FF4E0200821224600F0EBFFC0B2FB
S214003D90002814BF0220012070BD182E36D14FF423
S214003DA0E2204FF4805100F099FFC0B200282FD1D6
S214003DB04FF4E2202021224600F0D4FFC0B20028B3
S214003DC014BF0220012070BD082E23D14FF4E82036
S214003DD04FF4805100F082FFC0B2E8B94FF4E820FB
S214003DE00821224600F0BEFFC0B2002814BF022001
S214003DF0012070BD002070BD022070BD022070BD85
S214003E00022070BD022070BD022070BD022070BD71
S214003E10022070BD022070BD022070BDF85C00005C
S214003E202333002057330020EB3200200084FF1F8E
S214003E304378022B40F086802DE9F041B0F80680EA
S214003E40B8F1030F78D90E784B7803EB0626B6B296
S214003E50414B1E80414B1D78002213461446DFF866
S214003E6000C101E03D4674465FFA83FE32F80C70EE
S214003E70B7426CD02F46A646062B08D001330C322C
S214003E80012CEFD100E07546344B1D7003E0334B38
S214003E901D70012C4AD1314B1B7803EB4304304A8A
S214003EA002EB8402127A2F4C2478224112F0010F82
S214003EB036D003EB43022A4C04EB82029278D41CE1
S214003EC0A04527D10D46044603EB4300244901EBE9
S214003ED080014E681846A91CB047012809D11E4B20
S214003EE01B881A0A2A706B700323E3806370BDE890
S214003EF0F08128B9042363703323E370BDE8F081B2
S214003F0002284FF0040363700CBF13232223E370D0
S214003F10BDE8F081042343701323C370BDE8F0812D
S214003F20042343703123C370BDE8F081042343703B
S214003F303123C370BDE8F081042343701323C3709C
S214003F40BDE8F081042343703123C3707047062B0D
S214003F5099D1754601249AE77E31002080310020F1
S214003F60F85C0000D033002008B51B4A00235370CD
S214003F7013711A4A13601A4A136041F29411194ACF
S214003F80116041F28831184A116044F62061174AE0
S214003F901160174A1370174A1370174A1360174AAE
S214003FA013701022164B1A7040B90122154B1A7066
S214003FB0FEF720F90022144B1A7009E00222114B7A
S214003FC01A700120104B1870054B1860FEF712F996
S214003FD0FFF77EFC08BD00BFE043002098310020BC
S214003FE084310020E8430020C8330020CC33002072
S214003FF0EC4300209E310020F04300209C3100203E
S2140040009F310020D0330020F4430020124B5B7811
S214004010012B1FD830B4104B1B7913B942880E4BB6
S214004020DA800D4BDD8855B103300C4A002310F8BA
S214004030014F02F8014F01339CB2A542F7D8322255
S214004040074B1A600122074B1A60034B02225A7074
S214004050197030BC704700BFE0430020DB330020FF
S214004060883100209831002010B584B08278ADF8F1
S2140040700620047962B1C31C0DF10701013AD2B2E1
S2140040800432104413F8012F01F8012F8342F9D1AE
S214004090A4F110032E2B3ED8DFE803F0182A3D3D8E
S2140040A03D3D3D3D3D3D3D3D3D3D3D3D3D3D3D3D3B
S2140040B03D3D3D3D3D3D3D3D3D3D3D3D3D3D3D3D2B
S2140040C03D3D1E243D3D3D3D3D3D300068460DF1E5
S2140040D00901FFF7B5FB1EE068460DF10901FFF781
S2140040E011FC18E068460DF10901FFF795FD12E096
S2140040F068460DF10901FDF795FC0CE0074A537878
S214004100D8090749087003F07F03537068460DF11D
S2140041100901FFF79DFD04B010BD00BFDC33002091
S2140041209C310020074B5B78012B09D84288054B51
S214004130DA8001225A701A710020034A1060197042
S214004140704700BFE0430020843100200A4A002365
S214004150537093701371FF21084A1170084A137048
S214004160084B1B78012B02D00122074B1A60002255
S214004170064B1A70704700BFE04300208C310020C9
S2140041809E310020D0330020843100209C31002056
S21400419008B50E4B5B78072B01D1FFF7D7FF0C4B0A
S2140041A01B78012B10D10022094B1A700122094BF3
S2140041B01A60094B1B78934202D1FCF7D5F908BD6B
S2140041C0032B01D1FCF7D0F908BD00BFE043002067
S2140041D0EC430020F0430020DB43002008B5374BBB
S2140041E01B78012B3BD0364B1B689BB1354A1268B7
S2140041F093420CD30122314B1A700022304B1A60C6
S214004200FFF7A4FFFCF7F0F9FFF762FB02E00333C9
S2140042102B4A13602C4B1B7863B32C4B1B780F2B4D
S21400422019D90021284B1970294B06221A705020E4
S214004230587002209870D970322119711321597163
S21400424088219971AA21D97122480133036082809E
S214004250FCF784FF0EE001331C4A13700AE0FDF7FA
S2140042609DFB38B94FF400331B68B3F1A53F01D16D
S21400427001F0D4FA184B1B6863B1184A12689342CF
S21400428005D3FFF763FF0022134B1A6002E00333E7
S214004290114A1360124B1B6863B1632B07D9FFF7F3
S2140042A055FF00220E4B1A6001F0BCFA02E0033301
S2140042B00B4A1360FEF720F808BD00BFD03300207D
S2140042C084310020CC330020F44300209D310020B0
S2140042D090310020D433002098310020883100200F
S2140042E0F0430020F0B583B0674B5B78022B44D1D7
S2140042F0664B1B78644A9370102B01D03E2B08D176
S214004300624A5378D8096249087003F07F035370F5
S214004310ACE000225E4B1A70A8E00A46E7B21E46E2
S2140043205878A978884217D118782978084215D085
S214004330584B1A7801239340327A1A4206D0564BCD
S2140043401F70736850485549984794E04E4B7F223B
S214004350DA7004225A708EE0114600E011460B2CEB
S21400436004D001340C33012AD7D113E092B9464B5E
S2140043700322DA801122DA702FE0052B0AD1464B91
S2140043801B7803EB4303464A02EB83035B683E4815
S214004390424998473C4B5B78032B1CD13C4B1B781F
S2140043A083B93A49384B9A7840320A7000203D4A21
S2140043B0106007225A703C480160DB888380FCF757
S2140043C0CDFE04E00023304A5370314A13700022B9
S2140043D0364B1A6040E0042B3ED12B4BDA78782A15
S2140043E028D105225A702F4B1A68314B1B689A4207
S2140043F003D8304B1B78002B2ED17F238DF804304A
S214004400214CA3788DF8053078238DF806302648A1
S21400441001AB036003238380FCF7A0FE264B1A68DB
S214004420264B1A6001231F4A136006226270214A37
S214004430137011E0144907234B70144B7F2018703B
S214004440897859709A700021164A116016480360E0
S21400445003238380FCF782FE0B4B5B78062B02D18E
S2140044600522094B5A70FFF7B9FE0AE00C4B0024F0
S2140044702246054D52E70B2C08BF01223FF476AFCB
S21400448088E703B0F0BD00BFE0430020DC33002027
S2140044909C310020D03300208C310020DD330020FA
S2140044A04C5D000098310020D43300208431002079
S2140044B0E84300209E310020C833002088310020C9
S2140044C00123034A1370034A1360034B18707047A6
S2140044D0EC430020F0430020DB430020014B187023
S2140044E0704700BF9F310020194B8022C3F88421FB
S2140044F05A6093F82723D2B283F82723154BD3F8B4
S214004500EC2022F08042C3F8EC20D3F8EC2042F0F6
S2140045108072C3F8EC20D3F8EC2042F08042C3F857
S214004520EC208722A3F52833C3F894201A46136894
S21400453013F0800FFBD0084B1F221A6004221A6467
S214004540FF225A640022C3F89020C3F894207047D4
S21400455000E100E00050064000B00340074BD3F8EF
S214004560903013F0800F07D1054B187000F01F0035
S21400457040F04000014B1860704700BF00B0034099
S2140045805844002008B5414B1B78112B7CD8DFE837
S21400459003F00910171E252C333A414D5960676EFB
S2140045A07B7B7B750020FFF7D9FF0122374B1A7003
S2140045B008BD0120FFF7D2FF0222344B1A7008BD57
S2140045C00220FFF7CBFF0322304B1A7008BD0320F2
S2140045D0FFF7C4FF04222D4B1A7008BD0420FFF716
S2140045E0BDFF0522294B1A7008BD0520FFF7B6FF50
S2140045F00622264B1A7008BD0620FFF7AFFF0722DB
S214004600224B1A7008BD0720FFF7A8FF08221F4B91
S2140046101A7008BD1E4A536843F00403536008200E
S214004620FFF79CFF0922194B1A7008BD184A5368F9
S21400463023F0080353600920FFF790FF0A22134B6C
S2140046401A7008BD0A20FFF789FF0B220F4B1A705D
S21400465008BD0B20FFF782FF0C220C4B1A7008BD1A
S2140046600C20FFF77BFF0D22084B1A7008BD0D20AB
S214004670FFF774FF1122054B1A7008BD1D20FFF7C7
S2140046806DFF0022014B1A7008BD00BFA03100204C
S21400469000800440094B9A6C41F2883303FB02F217
S2140046A0074B1978074BA3FB0203D21A03EB5203FE
S2140046B0DB0A054A22F81130704700BF00B00340FD
S2140046C05844002001011000F843002008B5FFF709
S2140046D0E1FF08BD084B1B681A6A12F0040F06D0EB
S2140046E00221064A11701A6A42F400221A62044A2B
S2140046F01A621B6A704700BF5C44002060440020BA
S21400470006003B0010B584B0384B1A68116B936AEC
S2140047100B4013F0010F5ED10124136B916A0B401E
S214004720E34013F0010305D10134202CF5D1002B12
S21400473059D046E0052C38D1D2F88030C3F3034375
S2140047408DF80530D2F88030C3F340538DF804302E
S214004750D2F888308DF80930C3F307218DF8081099
S214004760C3F307418DF807101B0E8DF80630D2F8FC
S2140047708C308DF80D30C3F307218DF80C10C3F381
S21400478007418DF80B101B0E8DF80A30D2F88010FA
S214004790D2F8843011F4001F14BF23F060439B0C42
S2140047A000936846FCF714FB16E0062C03D10122A2
S2140047B00F4B5A7010E0072C03D102220C4B5A7094
S2140047C00AE0A4F11903062B06D8FCF733FB0022F7
S2140047D0084B1A6000E00024044B19680A6B01239A
S2140047E0A34013430B6304B010BD00BF5C4400201D
S2140047F060440020AC31002030B400221E4B1A70FA
S214004800F0B1E9B11D4A14680430002302783AB9C1
S21400481050F8042CD20403F1380544F8252008E0AB
S21400482050F8042C520042F0804203F1380544F858
S21400483025200133DBB20C309942E7D10E4B1970BC
S2140048400E4B19680A6822F440720A6019680A68F2
S21400485022F480320A601B68094A9A649A6A42F017
S21400486020029A629A6A42F040029A629A6A42F07B
S21400487080029A6230BC7047A83100205C44002059
S214004880FEFFFF7F70B49DF80C60002A3FD01446F0
S214004890012B0ED106F119031E4A126802EB031310
S2140048A04FF40012C3F8802020F06042C3F8842042
S2140048B006E0184B1D68B3008204853345F82320B4
S2140048C0A3786278120442EA0322E5782A43237822
S2140048D042EA036219360F4B1B6803EB0613C3F854
S2140048E08820A5796279120442EA0522E5792A43EE
S2140048F0247942EA0462C3F88C20D3F8802042EA86
S214004900014141F04461C3F88010034B186070BC4D
S214004910704700BF5C440020AC3100200C4B196887
S2140049200A6842F080420A6019680A6842F08052BB
S2140049300A6019680B6813F0807F07D14FF49673EE
S2140049400A6812F0807F01D1013BF9D1704700BFA1
S2140049505C4400200C4B19680A6822F080520A60FA
S21400496019680A6822F080420A6019680B6813F01A
S214004970807F07D04FF496730A6812F0807F01D0CC
S214004980013BF9D1704700BF5C44002070B5054676
S2140049900C4616467548764B1860764A764B1A6073
S2140049A0764A774B1A60774BD3F82C2142F0804238
S2140049B0C3F82C21744A916841F440719160D16823
S2140049C041F44071D160D3F8902042F08042C3F8A1
S2140049D090200368002B11DB036843F0004303605C
S2140049E0634B19680B6813F4801F07D14FF4967356
S2140049F00A6812F4801F01D1013BF9D15C4B1A689A
S214004A00516821F400515160116821F00041116095
S214004A1019680A6822F000420A6019680A6822F0DB
S214004A2080420A6019680A6822F080520A60196893
S214004A300B6813F4801F07D04FF496730A6812F4BD
S214004A40801F01D0013BF9D1FFF768FF484A116883
S214004A500B6843F000730B6011680B6813F0007F5F
S214004A6009D04FF496730A6812F0007F05D0013B18
S214004A70F9D1002302E0002300E00023002003F128
S214004A80200241F822000133802BF8D1002318467B
S214004A9003F5087241F822000133202BF8D10023D9
S214004AA08B624FF0FF330B630B6823F400630B60DD
S214004AB02F490B681A6D22F000421A655A6B22F4D1
S214004AC080525A631A6842F400021A600B685A68E9
S214004AD022F008025A605A6822F480525A601A6815
S214004AE022F07F0242F020021A600B685A6822F019
S214004AF047021204120C5A605968244A0A4342EAD2
S214004B0005625A60224A5A605A6B42F08A425A63D9
S214004B101A6842F0005242F400121A601CB1204695
S214004B203146FFF769FE124B1968192301248A6A79
S214004B3004FA03F002438A620133202BF7D12022C5
S214004B40144B1A70FFF706FF0D4B1B684FF480429C
S214004B509A604FF400429A604FF400329A604FF425
S214004B6080229A604FF480329A6070BD0040024006
S214004B705C44002000E007406844002000E100E0BC
S214004B80644400200050064000B0044007CC61009A
S214004B909600DB03B0310020084B1B684FF48042C0
S214004BA09A604FF400429A604FF400329A604FF4D5
S214004BB080229A604FF480329A60704764440020E6
S214004BC008B5054B1B68032B04D90022024B1A605C
S214004BD0FFF7E2FF08BD00BFA43100200B4B1B68A7
S214004BE04FF48042C3F888204FF40042C3F8882070
S214004BF04FF40032C3F888204FF48022C3F8882090
S214004C004FF48032C3F88820704700BF6444002009
S214004C1008B5084B1B68032B03D80133054A1360FD
S214004C2008BD042B04D10522024B1A60FFF7D6FFFD
S214004C3008BD00BFA431002008B5FFF7E9FFFFF765
S214004C4061FD08BD08B5FFF7E3FFFFF75BFD08BD94
S214004C5008B5FFF7DDFFFFF73DFD08BD08B5FFF718
S214004C60D7FFFFF737FD08BD08B5FFF7D1FFFFF701
S214004C7055FE0C4B1B68D3F8002B22F48032C3F889
S214004C80002B1A6822F480421A60074B1B689A6849
S214004C9022F020029A601A6922F060021A61FFF779
S214004CA059FE08BD5C440020684400200A4B0020E2
S214004CB018604FF480125A604FF080529A604FF49A
S214004CC00042DA604FF0A0521A614FF480525A61E7
S214004CD04FF0FF329A617047B43100202DE9F84357
S214004CE0044672B61D4B1B6883420FD80D461B4AFE
S214004CF052681A4490420DD2C41AC1F30B034FF403
S214004D008057002B0CBF0020042006E000252F460D
S214004D10012002E000252F460120114E4FF07009B9
S214004D20DFF8388010E086F800900923F371C4F3AA
S214004D300743B371C4F307237371E3B2337140467C
S214004D4000F052FEED1B3C442DB120B9337813F031
S214004D50800FE8D1022062B6BDE8F883B4310020A7
S214004D60000002402DE9F8430C4672B611F0070F1A
S214004D7039D105461E4B1B68834207D81C49496833
S214004D801944884204D2C51A002002E0012000E03F
S214004D900120013A174FDFF86090DFF854801AE0E0
S214004DA070233B700723FB71C5F30743BB71C5F344
S214004DB007237B71EBB23B7102F108064B4612F8F3
S214004DC0011F03F8011F9642F9D1404600F00CFE81
S214004DD00835083C32463CB130B93B7813F0800FBA
S214004DE0DED1022000E0042062B6BDE8F88300BFF2
S214004DF0B4310020000002400700024010B4014613
S214004E000022134606E003F58054A14206D303F5BC
S214004E1080530132D0B28B42F5D9F8E75DF8044BE7
S214004E20704700BF114B4FF0C062C3F8DC20D3F8C8
S214004E30DC2042F08042C3F8DC20A3F538330122A0
S214004E409A601A6142F2107119629A62084B4FF426
S214004E508032C3F884215A60A02283F830230023CE
S214004E60044A1360044A1360704700BF00500640AF
S214004E7000E100E0D4310020D03100200E4B1B684A
S214004E80B3F1FF3F03D100220B4B1A6007E00A4A3A
S214004E90136801331360094A136801331360084A24
S214004EA0D36843F00103D360064B1B6813B9012295
S214004EB0044B1A60704700BFD43100206C440020B9
S214004EC000700340D0310020014B1868704700BFC7
S214004ED0D03100200022014B1A607047D0310020EC
S214004EE0014B1868704700BFD43100205549002395
S214004EF081F8283081F829300B46143100225A6197
S214004F0043F8042B8B42FAD1F0B44F4A4FF080415D
S214004F10C2F828114D4B5C6924F4E0645C615C695E
S214004F2044F440745C61C2F828119C6824F4E06480
S214004F309C609C6844F440749C60C2F82811DC684D
S214004F4024F4E064DC60DC6844F44074DC60C2F89E
S214004F502811196921F4E0611961196941F4407159
S214004F6019610023C2F8B0304FF04641C2F8B010C5
S214004F70A2F5643213618378013B032B0ED8DFE879
S214004F8003F00204070A032409E04FF4807406E0E5
S214004F904FF4007403E04FF4806400E000240179CD
S214004FA0C37843EA41014579C279130243EA4502D0
S214004FB043781343027A43EA0263427A43EA8263FF
S214004FC0827A43EAC262067B457BAB0443EA064527
S214004FD0C37A2B43857B43EAC543C57B43EA4553E7
S214004FE0057C43EA8553457C43EAC553857C43EA02
S214004FF00563C57C43EAC563057D43EA8573457D45
S21400500043EAC573C67D057E2D0445EA0626857DE2
S2140050103543467E45EA0666C77E857E45EA0747EF
S214005020057FED0045F00105094805618461C16111
S2140050300021016242620366066487650561F0BC72
S214005040704700BFD83100200050064000A0044042
S21400505000C00240124B5B6913F0010F1FD0104BCB
S2140050601A6942F440721A6100229A611A6E22F49A
S2140050707F6222F00F021A661A6E42F00F021A665C
S2140050805A6942F47C5242F001025A6158661A4646
S214005090536913F0020FFBD0014B5B6F0B80704718
S2140050A000C0024008B54E4B1B88012B40F0908094
S2140050B0FFF768FA4B4B5B8AB3F5FA7F0DD80222EE
S2140050C0494B1A7040F2456040F2466140F2476232
S2140050D040F24263FBF7B2FE63E0A3F2F51292B22F
S2140050E0B2F57A7F0DD201223F4B1A7040F215704E
S2140050F040F2167140F2177240F21273FBF79EFEF2
S2140051004FE0A3F2DD5292B2B2F57A7F0DD20322BF
S214005110354B1A7040F24D6040F24E6140F24F62DD
S21400512040F24A63FBF78AFE3BE0A3F6C51292B252
S214005130B2F57A7F0DD204222B4B1A7040F2FD6036
S21400514040F2FE6140F2FF6240F2FA63FBF776FE41
S21400515027E0A3F6AD5292B2B2F57A7F0DD20622C0
S214005160214B1A7040F2ED6040F2EE6140F2EF62C1
S21400517040F2EA63FBF762FE13E0A3F58C53153B9F
S2140051809BB2B3F5FA7F0CD20522174B1A7040F289
S214005190057040F2067140F2077240F20273FBF7A8
S2140051A04DFE00F031FBFBF7F7FDFBF7AFFFFBF71B
S2140051B0E7FDB0F1A53F05D10120FEF7D5FEFBF7D0
S2140051C0E5FD02E00020FEF7CFFE0122074B1A7035
S2140051D0034B1B8813B1013B014A138008BD00BF77
S2140051E0B884FF1FF8430020043200200532002058
S2140051F080B500F0F7F8FFF715FEFFF757FDFBF751
S214005200F3F900F095F90122514B1A70514D6B6875
S21400521043F480736B60504B4FF08042C3F83421E8
S2140052204E49086A20F4E0600862086A40F480701C
S2140052300862686940F480706861C3F83421486A7F
S21400524020F4E0604862486A40F48070486268690A
S21400525020F4007068614248446844F40054446096
S214005260C3F824213F4C666B26F4E0666663666BE3
S21400527046F480766663466946F4005646613A4EC2
S214005280B06840F48070B060C3F82C213748076AD5
S21400529027F4E0670762076A47F480770762776952
S2140052A047F480777761C3F834210E6926F4E06608
S2140052B00E610E6946F480760E61696921F0100170
S2140052C069612B494D6845F400454D60C3F83021AF
S2140052D0284DEE6B26F4E066EE63EE6B46F48076C1
S2140052E0EE634D6945F400454D61C3F824212168FD
S2140052F021F4E0612160C3F82421616821F4E061B3
S2140053006160C3F828211C494C6824F4E0644C60B2
S214005310C3F828214C6B24F4E0644C63C3F82C21BA
S214005320846B24F4E0648463C3F82C21446824F47A
S214005330E0644460C3F828210B6823F4E0630B6044
S214005340FFF7D2F862B600F073FA00F077FAFEE7DD
S2140053503432002000F10F400050064000D00440D8
S21400536000F00F400090044080F00F4000B0044072
S214005370C0F00F4000C0044000A00440F0B5144B3D
S214005380D3F800E00125134C134F11261BE0B3FBA6
S214005390F0F1A14206D1013D104B1D601032104BBA
S2140053A01A6009E0013203F5F40303F59053302A3E
S2140053B0EDD1BEF1010F03D10022054B1A60F0BDFE
S2140053C00135092D03D028463B463246DFE7F0BDBF
S2140053D01032002000D0121300321B080C320020BE
S2140053E008320020264B40F20112C3F80421242282
S2140053F0C3F808211A46D2F8003113F4000FFAD188
S21400540001221F4BC3F800211A46D2F8003113F0D0
S214005410807FFAD01A4AD2F8003613F4000FFAD179
S21400542010B5174C40F20553C4F80436FFF7A6FF34
S214005430144B1B681B0203F4E062134B1B681B042F
S21400544003F4F8131343C4F808362246D2F800369D
S21400545013F4000FFAD10122094BC3F800261A46AE
S214005460D2F8003613F0807FFAD0084A044B5A610F
S2140054701A461369C3F30363062BFAD110BD00BFA7
S214005480004006400C3200200832002012000106C0
S21400549008B505494B7803F01F0343F010034B7023
S2140054A00888FFF7D7FD08BD1432002008B5064966
S2140054B0CB78012262F3471343F01003CB7031F828
S2140054C0020FFFF7C7FD08BD1432002008B50649D5
S2140054D04B79022262F3471343F010034B7131F805
S2140054E0040FFFF7B7FD08BD1432002008B50649C3
S2140054F0CB79032262F3471343F01003CB7131F8E4
S214005500060FFFF7A7FD08BD1432002008B50749AF
S2140055104B7803F01F036FF304134B700B7843F0C4
S21400552080030B700888FFF795FD08BD1432002035
S21400553008B50E48FFF7DAFC0D4A00231370937087
S214005540042151700B4A1381322151811373537316
S2140055509373FFF79DFF00BFFFF7A8FF00BFFFF79D
S214005560B5FF00BFFFF7C2FF08BD00BFDC5D00004F
S214005570283200201432002038B59F49CB78C3F378
S21400558081009E4A82F8C8000978C1F3C01182F8EB
S214005590C910C3F3000382F8CA30994B1B78032B5B
S2140055A000F22381DFE813F0040022005800DF0039
S2140055B0934B5B7813B10022924B1A808E4C4FF4BB
S2140055C040636381637803F00F0343F0070363705F
S2140055D023786FF3C713237020882146FFF73AFD20
S2140055E0002323810122864B9A70FEE0844B5B7871
S2140055F0012B03D00122834B1A801EE0814B1B88AF
S21400560001339BB21E2B02D87E4A138015E000257C
S2140056107C4B1D80784C4FF440636381637803F0C5
S2140056200F0343F007036370237865F3C7132370F3
S21400563020882146FFF70EFD25816F4B1A7B597B8C
S2140056405A738A4200F0D1809B7B012B40F0CD80BC
S21400565002226B4B9A70C8E0694B5B78022B31D004
S214005660654C002525814FF440636381637803F021
S2140056700F0343F007036370237865F3C7132370A3
S21400568020882146FFF7E6FC258100BF00BFE378AF
S214005690012262F3471303F0EF0343F00C03E370B9
S2140056A0214631F8020FFFF7D5FC00BF00BFA580EA
S2140056B04FF0400365F304136371214631F8040F7D
S2140056C0FFF7C8FC4C4A138901339BB213815289F9
S2140056D09A422AD8484C4FF440636381637803F0BB
S2140056E00F0343F00703637023786FF3C713237029
S2140056F020882146FFF7AEFC0023238100BFFFF77A
S214005700C7FE00BFFFF7D2FE00BFFFF7DFFE00BFF9
S214005710FFF7ECFE237B627B6373934205D0A37B8B
S214005720032B02D10322364B9A70334B1B7813F0AF
S214005730200F0CBF01220022304B83F8B0202E4BE6
S214005740DB7813F0010F50D02B49CB78012262F39F
S214005750471303F0EF036FF30003CB7031F8020F2B
S214005760FFF778FC41E0264B5B78032B33D000250F
S214005770244B1D80FFF7BAFE1F4CE379032262F329
S214005780471365F30413E371214631F8060FFFF75C
S21400579061FC00BF6379022262F3471365F30413CA
S2140057A06371237943F008032371214631F8040F0F
S2140057B0FFF750FC00BFE378012262F3471303F0C3
S2140057C0EF0362F3830365F34103E370214631F888
S2140057D0020FFFF73FFC0B4A138801339BB213807E
S2140057E0B3F57A7F01D9FFF791FE054B1A785A7008
S2140057F09A781A7038BD00BF14320020804400200A
S2140058002832002024320020034B01229A731A7B90
S21400581001321A73704700BF1432002008B5FFF734
S21400582075FE08BD0122014B1A7070472B3200200E
S2140058300022014B1A7070472C3200202DE9F041EF
S2140058401F4F204D204E214CFFF73EFBC0B20128D3
S214005850FAD13B78012B01D1FFF78EFEFFF740FB14
S2140058608046FFF737FB2B7808F00102934201D100
S2140058706B6898472278164BA3FB08135B0803EB6C
S2140058804303C3EB08039A4201D163689847114B60
S2140058901A78A6FB08135B0B42F2107101FB138308
S2140058A09A4202D10B4B5B689847FFF719FBC8EB8F
S2140058B000000128C8D90122074B1A70C4E700BFB0
S2140058C0343200200C5E00005917B7D1045E000089
S2140058D0ABAAAAAAFC5D00002C32002008B5FEF791
S2140058E051FEFFF7DFFB034B1B780BB1FBF7CAF843
S2140058F008BD00BF0532002008B5064B1B783BB13B
S214005900FFF75EF9FBF782FFFBF768F8FEF7EAFCA5
S21400591008BD00BF0532002008B5034B1B780BB14D
S214005920FBF7B2FA08BD00BF05320020054A06485C
S214005930136843F2390100FB03101060C0F30E40F9
S214005940704700BFBC84FF1F6D4EC64110B5431E96
S2140059500A44914204D011F8014B03F8014FF8E7CE
S21400596010BD10B5044600F002F8204610BDC9B2BE
S2140059701F2A10B50C4630D9434213F0030306D055
S214005980D21A034400F8011B9842FBD100E00346FC
S21400599031B10C0444EA01640C4344EA012400E0FB
S2140059A00C4651090DD003EB41111C605C609C60F5
S2140059B0DC601C615C619C6120338B4243F8044CC4
S2140059C0F3D1C2F3820129B103EB810143F8044B02
S2140059D08B42FBD102F00302184622B1024400F8C3
S2140059E0014B9042FBD110BD01B40248844601BC75
S2140059F0604700BFC184FF1F982F8A4291443771C9
S214005A00CFFBC0B5A5DBB5E95BC25639F111F1593C
S214005A10A4823F92D55E1CAB98AA07D8015B83127E
S214005A20BE853124C37D0C55745DBE72FEB1DE802A
S214005A30A706DC9B74F19BC1C1699BE48647BEEF59
S214005A40C69DC10FCCA10C246F2CE92DAA84744AE4
S214005A50DCA9B05CDA88F97652513E986DC631A85A
S214005A60C82703B0C77F59BFF30BE0C64791A7D539
S214005A705163CA0667292914850AB72738211B2EC1
S214005A80FC6D2C4D130D385354730A65BB0A6A76A9
S214005A902EC9C281852C7292A1E8BFA24B661AA8B5
S214005AA0708B4BC2A3516CC719E892D1240699D6C5
S214005AB085350EF470A06A1016C1A419086C371E3E
S214005AC04C774827B5BCB034B30C1C394AAAD84E1C
S214005AD04FCA9C5BF36F2E68EE828F746F63A57857
S214005AE01478C8840802C78CFAFFBE90EB6C50A4EA
