:020000040000FA
:20800000F06F002011840000851D01008D1D0100AD1D0100B51D0100BD1D01000000000085
:20802000000000000000000000000000C51D0100CD1D010000000000D51D0100DD1D010084
:20804000E91D0100F11D0100F91D0100011E0100091E0100111E0100191E0100211E010003
:20806000291E0100311E0100391E0100411E0100491E0100511E0100591E0100611E0100E0
:20808000691E0100711E0100791E0100811E0100891E0100911E0100991E0100A11E0100C0
:2080A000A91E0100B11E0100B91E0100C11E0100C91E0100D11E0100D91E0100E11E0100A0
:2080C000E91E0100F11E01001D1F0100251F01002D1F0100351F01003D1F0100451F0100A2
:2080E000511F0100591F0100611F0100691F0100711F0100791F0100811F0100891F010018
:20810000911F0100A91F0100B11F0100B91F0100C11F0100C91F0100D11F0100D91F010087
:20812000E11F0100E91F0100F11F0100F91F01000120010009200100112001001920010053
:20814000152101001D210100252101002D210100352101003D210100452101004D21010087
:20816000552101005D210100652101006D210100752101007D210100852101008D21010067
:20818000952101009D21010019220100212201002922010031220100452201005922010065
:2081A00061220100DD220100E5220100ED220100F5220100FD220100052301000D23010091
:2081C000152301001D230100252301002D230100352301003D230100452301004D230100F7
:2081E000552301005D230100652301006D230100752301007D230100852301008D230100D7
:20820000952301009D230100A5230100AD230100B5230100BD230100C5230100CD230100B6
:20822000D5230100DD230100E5230100518400005184000051840000518400005184000012
:20824000518400005184000051840000518400005184000051840000518400005184000076
:20826000518400005184000051840000518400005184000051840000518400005184000056
:20828000518400005184000051840000518400005184000051840000518400005184000036
:2082A000518400005184000051840000518400005184000051840000518400005184000016
:2082C0005184000051840000518400005184000051840000518400005184000051840000F6
:2082E0005184000051840000518400005184000051840000518400005184000051840000D6
:208300005184000051840000518400005184000051840000518400005184000051840000B5
:20832000518400005184000051840000518400005184000051840000518400005184000095
:20834000518400005184000051840000518400005184000051840000518400005184000075
:20836000518400005184000051840000518400005184000051840000518400005184000055
:20838000518400005184000051840000518400005184000051840000518400005184000035
:2083A000518400005184000051840000518400005184000051840000518400005184000015
:2083C0005184000051840000518400005184000051840000518400005184000051840000F5
:2083E00051840000518400005184000051840000518400005184000051840000FFFFFFFFAE
:20840000FFFFFFFFFFFFFFFFFFFFFFFFFE7FFFFF72B60B490A4A0A4B094C094D084E084F70
:20842000B846B946BA46BB46BC4606488546064880470648804762B60CF0C4FAFEE7000042
:2084400000000000F06F00204D450100D1480100FFF7FEBF81F0004102E000BF83F0004334
:2084600030B54FEA41044FEA430594EA050F08BF90EA020F1FBF54EA000C55EA020C7FEA56
:20848000645C7FEA655C00F0E2804FEA5454D4EB5555B8BF6D420CDD2C4480EA020281EAFE
:2084A000030382EA000083EA010180EA020281EA0303362D88BF30BD11F0004F4FEA0131AA
:2084C0004FF4801C4CEA113102D0404261EB410113F0004F4FEA03334CEA133302D05242C0
:2084E00063EB430394EA050F00F0A780A4F10104D5F1200E0DDB02FA0EFC22FA05F2801818
:2085000041F1000103FA0EF2801843FA05F359410EE0A5F120050EF1200E012A03FA0EFCBC
:2085200028BF4CF0020C43FA05F3C01851EBE37101F0004507D54FF0000EDCF1000C7EEBCC
:2085400000006EEB0101B1F5801F1BD3B1F5001F0CD349085FEA30004FEA3C0C04F10104A4
:208560004FEA445212F5800F80F09A80BCF1004F08BF5FEA500C50F1000041EB045141EAB7
:20858000050130BD5FEA4C0C404141EB010111F4801FA4F10104E9D191F0000F04BF014606
:2085A0000020B1FA81F308BF2033A3F10B03B3F120020CDA0C3208DD02F1140CC2F10C021D
:2085C00001FA0CF021FA02F10CE002F11402D8BFC2F1200C01FA02F120FA0CFCDCBF41EA55
:2085E0000C019040E41AA2BF01EB0451294330BD6FEA04041F3C1CDA0C340EDC04F11404BC
:20860000C4F1200220FA04F001FA02F340EA030021FA04F345EA030130BDC4F10C04C4F1AC
:20862000200220FA02F001FA04F340EA0300294630BD21FA04F0294630BD94F0000F83F41C
:20864000801306BF81F480110134013D4EE77FEA645C18BF7FEA655C29D094EA050F08BF98
:2086600090EA020F05D054EA000C04BF1946104630BD91EA030F1EBF0021002030BD5FEA0A
:20868000545C05D14000494128BF41F0004130BD14F580043CBF01F5801130BD01F0004512
:2086A00045F0FE4141F470014FF0000030BD7FEA645C1ABF194610467FEA655C1CBF0B4667
:2086C000024650EA013406BF52EA033591EA030F41F4002130BD00BF90F0000F04BF0021A8
:2086E000704730B54FF4806404F132044FF000054FF0000150E700BF90F0000F04BF00219F
:20870000704730B54FF4806404F1320410F0004548BF40424FF000013EE700BF42004FEAFE
:20872000E2014FEA31014FEA02701FBF12F07F4393F07F4F81F06051704792F0000F14BF10
:2087400093F07F4F704730B54FF4607401F0004521F0004120E700BF50EA010208BF70470C
:2087600030B54FF000050AE050EA010208BF704730B511F0004502D5404261EB41014FF4D6
:20878000806404F132045FEA915C3FF4DCAE4FF003025FEADC0C18BF03325FEADC0C18BF4E
:2087A000033202EBDC02C2F1200300FA03FC20FA02F001FA03FE40EA0E0021FA02F1144444
:2087C000C1E600BF70B54FF0FF0C4CF4E06C1CEA11541DBF1CEA135594EA0C0F95EA0C0F50
:2087E00000F0DEF82C4481EA030621EA4C5123EA4C5350EA013518BF52EA033541F48011FA
:2088000043F4801338D0A0FB02CE4FF00005E1FB02E506F00042E0FB03E54FF00006E1FBF8
:2088200003569CF0000F18BF4EF0010EA4F1FF04B6F5007F64F5407404D25FEA4E0E6D4128
:2088400046EB060642EAC62141EA55514FEAC52040EA5E504FEACE2EB4F1FD0C88BFBCF526
:20886000E06F1ED8BEF1004F08BF5FEA500E50F1000041EB045170BD06F0004646EA0101EA
:2088800040EA020081EA0301B4EB5C04C2BFD4EB0C0541EA045170BD41F480114FF0000E2D
:2088A000013C00F3AB8014F1360FDEBF002001F0004170BDC4F10004203C35DA0C341BDC9C
:2088C00004F11404C4F1200500FA05F320FA04F001FA05F240EA020001F0004221F000410E
:2088E00010EBD37021FA04F642EB06015EEA430E08BF20EAD37070BDC4F10C04C4F1200578
:2089000000FA04F320FA05F001FA04F240EA020001F0004110EBD37041F100015EEA430EFE
:2089200008BF20EAD37070BDC4F1200500FA05F24EEA020E20FA04F301FA05F243EA0203AE
:2089400021FA04F001F0004121FA04F220EA020000EBD3705EEA430E08BF20EAD37070BDB1
:2089600094F0000F0FD101F00046400041EB010111F4801F08BF013CF7D041EA060195F0B9
:20898000000F18BF704703F00046520043EB030313F4801F08BF013DF7D043EA060370471C
:2089A00094EA0C0F0CEA135518BF95EA0C0F0CD050EA410618BF52EA4306D1D181EA030185
:2089C00001F000414FF0000070BD50EA410606BF1046194652EA430619D094EA0C0F02D124
:2089E00050EA013613D195EA0C0F05D152EA03361CBF104619460AD181EA030101F0004131
:208A000041F0FE4141F470014FF0000070BD41F0FE4141F4780170BD70B54FF0FF0C4CF4DA
:208A2000E06C1CEA11541DBF1CEA135594EA0C0F95EA0C0F00F0A7F8A4EB050481EA030E5F
:208A400052EA03354FEA013100F088804FEA03334FF0805545EA131343EA12634FEA022268
:208A600045EA111545EA10654FEA00260EF000419D4208BF964244F1FD0404F5407402D22A
:208A80005B084FEA3202B61A65EB03055B084FEA32024FF480104FF4002CB6EB020E75EBBB
:208AA000030E22BFB61A754640EA0C005B084FEA3202B6EB020E75EB030E22BFB61A7546A5
:208AC00040EA5C005B084FEA3202B6EB020E75EB030E22BFB61A754640EA9C005B084FEA50
:208AE0003202B6EB020E75EB030E22BFB61A754640EADC0055EA060E18D04FEA051545EAF1
:208B000016754FEA06164FEAC30343EA52734FEAC2025FEA1C1CC0D111F4801F0BD141EACA
:208B200000014FF000004FF0004CB6E711F4801F04BF01430020B4F1FD0C88BFBCF5E06F0D
:208B40003FF6AFAEB5EB030C04BFB6EB020C5FEA500C50F1000041EB045170BD0EF0004E82
:208B60004EEA113114EB5C04C2BFD4EB0C0541EA045170BD41F480114FF0000E013C90E658
:208B800045EA060E8DE60CEA135594EA0C0F08BF95EA0C0F3FF43BAF94EA0C0F0AD150EAFC
:208BA00001347FF434AF95EA0C0F7FF425AF104619462CE795EA0C0F06D152EA03353FF469
:208BC000FDAE1046194622E750EA410618BF52EA43067FF4C5AE50EA41047FF40DAF52EA7F
:208BE00043057FF4EBAE12E74A0011D212F5001211D20DD56FF47873B3EB62520ED44FEA62
:208C0000C12343F0004343EA505323FA02F070474FF00000704750EA013002D14FF0FF30C2
:208C200070474FF00000704780B485B000AFF860B9607A60BB681A68BB6819687B681B6875
:208C4000B1FBF3F3D21ABB681A60BB681A68FB681B681A44BB681A60BB681A687B681B6868
:208C6000B2FBF3F39BB218461437BD465DF8047B704700BF80B582B000AFA44B00225A702D
:208C8000A24B00229A70A14B03221A700023FB801CE06A46FB88C3F1FF2303F57F039B0068
:208CA00013449B4A1A606946FA889A4B9B1A9B000B44974A1A606946FA88974B9B1A9B008B
:208CC0000B44934A1A60FB880133FB80FB88032BDFD906F07BFB914A904B5B6843F4807344
:208CE00053608F4B4FF08042C3F834218D4A8D4B1B6A23F4E06313628A4A8A4B1B6A43F46E
:208D000080731362854A854B5B6943F480735361834B4FF08042C3F83421824A814B5B6A6E
:208D200023F4E06353627F4A7E4B5B6A43F4807353627A4A794B5B6923F4007353617A4AA0
:208D4000794B5B6843F400535360754B4FF08042C3F82421754A754B5B6B23F4E063536339
:208D6000724A724B5B6B43F4807353636E4A6E4B5B6943F4005353616D4A6D4B9B6843F4B8
:208D800080739360664B4FF08042C3F82C21694A684B1B6A23F4E0631362664A654B1B6A94
:208DA00043F480731362624A614B5B6943F4807353615B4B4FF08042C3F83421594A594B1C
:208DC0001B6923F4E0631361564A564B1B6943F480731361514A514B5B6923F01003536109
:208DE000554A554B5B6843F4004353604C4B4FF08042C3F83021514A504BDB6B23F4E063CA
:208E0000D3634E4A4D4BDB6B43F48073D3634A4A494B5B6943F400435361414B4FF080429F
:208E2000C3F82421414A414B1B6823F4E06313603B4B4FF08042C3F824213C4A3B4B5B6875
:208E400023F4E0635360364B4FF08042C3F828213B4A3B4B5B6823F4E0635360304B4FF0EA
:208E60008042C3F82821364A354B5B6B23F4E06353632B4B4FF08042C3F82C212D4A2D4BE8
:208E80009B6B23F4E0639363254B4FF08042C3F82C21284A274B5B6823F4E0635360204BE4
:208EA0004FF08042C3F82821254A254B1B6823F4E06313604FF4C8700AF0DEFA0AF04EFBEE
:208EC00000200AF0A5FB4FF4C8700AF0D5FB0AF045FC00200AF09CFC4FF4C8700AF0CCFC69
:208EE0000AF03EFD00200AF095FD0AF0C7FD00200AF01EFE08F0DEFB06F05CFB09F076FA16
:208F000000F0F8FE0837BD4680BD00BF00000020DEC0ADDE00FEFFFF00FDFFFF00F10F40AD
:208F20000050064000D0044000F00F400090044080F00F4000B00440C0F00F4000C00440BE
:208F400000A0044080B582B000AF0023FB8000237B712EE06A467B79C3F1FF2303F57F0368
:208F60009B0013441B68A24A934203D0FB8843F00103FB8069467A799E4B9B1A9B000B4489
:208F80001B689B4A934203D0FB8843F01003FB8069467A79984B9B1A9B000B441B68944AF8
:208FA000934203D0FB8843F48073FB807B7901337B717B79032BCDD9FB88002B00D000BFC8
:208FC00009F06EFA8D4B1B881A464EF68C3303FB02F38B4AA2FB03235B0BFB80894AFB8890
:208FE000A2F8C630FB88884A936088488649884AFFF71AFE03461A46824BA3F8C8207F4B57
:209000005B881B09FB80FB88FE2B01D9FE23FB80FB88804A32F813207A4BA3F8BE20774B02
:209020005B8A1B09FB80FB88FE2B01D9FE23FB80FB88784A32F81320724BA3F8C2206F4BF4
:209040001B8BFB806D4B5B891B09FB80FB88FE2B01D9FE23FB80FB886E4A32F81320694B46
:20906000A3F8C020654B1B8AFB806B4B1B6903F40073002B04D1634B002283F8BC2003E0F7
:20908000604B012283F8BC20644B93F83430022B0ED1634BA5221A70614BA5225A70604B1A
:2090A000A5229A705E4BA522DA7008F05BFCFEE701F0B0F906F014FC03F0B0FC0346012B3D
:2090C00005D001F077FB0346B3F57A6F02D302200BF084FB4B4BB3F8B2309BB2002B10D092
:2090E000484BB3F8B2309BB2013B9AB2454BA3F8B220444BB3F8B2309BB2002B01D10BF01D
:209100003DFA404BB3F8B4309BB2002B10D03D4BB3F8B4309BB2013B9AB23A4BA3F8B420C6
:20912000384BB3F8B4309BB2002B01D108F01AFC344BB3F8C8309BB242F2273293420AD911
:20914000304BB3F8C8309BB2B3F57A5F03D8354B01221A7012E02B4BB3F8C8309BB242F28F
:209160003312934207D9274BB3F8C8309BB244F27402934202D92B4B00221A70214B93F81E
:20918000C430DBB2012B18D11E4B93F8BC30DBB2012B12D1234B1B78012B0ED103F032FC90
:2091A0000346022B09D1002001F0E8FA0346B3F5FA6F02D200F012FA02E1002001F0DEFA76
:2091C0000346B3F5FA6FC0F0D780174B1B78042B00F2D08001A252F823F000BF7593000001
:2091E0002D9200002D920000D5920000D5920000DEC0ADDE00FEFFFF00FDFFFF28050020B6
:20920000E73BAE9D540400200084FF1F0884FF1F0484FF1FE049010000F10F4008040020E1
:20922000F06F00200300002024050020664B5B78DBB2012B04D0644B5B7CDBB2012B24D1FE
:209240006420042100F068FC6420032100F064FC0020002100F060FC0020012100F05CFC02
:209260000020022100F058FC0020092100F054FC0020072100F050FC0020052100F04CFCDB
:209280000020082100F048FC75E00020002100F043FC0020012100F03FFC0020022100F0EC
:2092A0003BFC0020092100F037FC0020072100F033FC0020052100F02FFC0020082100F009
:2092C0002BFC0020032100F027FC0020042100F023FC50E03C4B93F89130DBB2012B24D10B
:2092E0000A20092100F018FC0020002100F014FC0020012100F010FC0020022100F00CFC5C
:209300000020072100F008FC0020052100F004FC0020082100F000FC0020032100F0FCFB7B
:209320000020042100F0F8FB25E00020002100F0F3FB0020012100F0EFFB0020022100F092
:20934000EBFB0020092100F0E7FB0020072100F0E3FB0020052100F0DFFB0020082100F0AC
:20936000DBFB0020032100F0D7FB0020042100F0D3FB00E000BF23E00020002100F0CCFB74
:209380000020012100F0C8FB0020022100F0C4FB0020092100F0C0FB0020072100F0BCFB02
:2093A0000020052100F0B8FB0020082100F0B4FB0020032100F0B0FB0020042100F0ACFB21
:2093C0000837BD4680BD00BF5404002080B582B000AF09F065F8564B1B89FB80554B1B7878
:2093E000032B00F2A08001A252F823F0FD93000027940000359400001B9500004E4B1B882D
:2094000001339AB24C4B1A804B4B1B88642B09D9494B00221A80474B1B780133DAB2454B2C
:209420001A7081E080E0434B1B780133DAB2414B1A7079E0FB8840F6D762934216D9FB8858
:2094400041F28832934211D83C4B01221A703C4B4FF4E662A3F8B620394B40F23172A3F8B6
:20946000B820374B032283F8BB204BE0FB8840F62722934216D9FB8840F67462934211D8D9
:209480002E4B02221A702E4B4FF4E862A3F8B6202B4B40F24172A3F8B820294B042283F84B
:2094A000BB202FE0FB8840F21352934215D9FB88B3F5166F11D8214B03221A70204B4FF483
:2094C000EA62A3F8B6201E4B40F25172A3F8B8201B4B052283F8BB2014E0FB88B3F5966FF7
:2094E00010D8164B04221A70154B4FF4F862A3F8B620134B40F2C172A3F8B820104B0C2246
:2095000083F8BB200E4AFB88A2F8CE30094B1B780133DAB2074B1A7006E008F0FFF9012008
:209520000BF05CF900E000BF0837BD4680BD00BF280500200400002006000020240500201E
:209540005404002080B500AF224B1B78012B35D0022B3CD0002B00D03AE00020002100F0FF
:20956000DBFA0020012100F0D7FA0020022100F0D3FA0020092100F0CFFA0020072100F0D8
:20958000CBFA0020052100F0C7FA0020082100F0C3FA0020032100F0BFFA0020042100F0F7
:2095A000BBFA0D4A0C4B9B6843F480739360094B1B780133DAB2074B1A7009E008F0C0F90B
:2095C000044B1B780133DAB2024B1A7000E000BF80BD00BF0800002000F10F4080B582B0A8
:2095E00000AF012000F054F8002000F051F8022000F04EF8032000F04BF8042000F048F804
:20960000052000F045F8072000F042F8082000F03FF8092000F03CF80023FB7127E0FB7901
:209620001A4A1B0113441B78DBB2032B1CD0FB79164A1B0113441B78DBB2002B06D1FB793C
:20964000124A1B01134400225A700DE0FB790F4A1B0113441B78DBB2012B05D1FB790B4A37
:209660001B01134401225A70FB790133FB71FB790A2BD4D900F056F800F0ECF800F02CF9F9
:2096800000F0C0F90837BD4680BD00BF5404002080B582B000AF0346FB71FB790A2B3CD8E3
:2096A000FB791F4A1B0113445B79DAB2FB791C491B010B449B79DBB29A422ED0FB79FA7954
:2096C000174912010A445279D1B2154A1B0113440A469A71FB79124A1B011344DB79DBB22A
:2096E000012B1AD0FB790E4A1B011344DB79DBB2022B12D0FB790A4A1B011344DB79DBB209
:20970000032B0AD1FB79064A1B0113445B7ADAB2FB791046194600F0FFF90837BD4680BD18
:209720005404002080B582B000AF0023FB710023BB7100237B7100233B71454B5B7CDBB2EB
:20974000012B0ED1424BDB7DDBB2002B01D10123FB713F4BDB79DBB2002B27D10123BB7121
:2097600024E03B4B5B7CDBB2002B1FD1384BDB7DDBB2002B01D10023FB71354B5B78DBB20C
:20978000002B07D1324BDB79DBB2002B0ED10023BB710BE02E4B5B78DBB2012B06D12C4BD1
:2097A000DB79DBB2002B01D10123BB71284BB3F8C0309BB29BB24B2B04D864237B71642387
:2097C0003B7127E0224BB3F8C0309BB29BB25E2B04D946237B7146233B711BE01C4BB3F857
:2097E000C0309BB21AB213465B001344E13B5B08DBB2C3F164037B71154BB3F8C0309BB2FA
:209800001AB213465B001344E13B5B08DBB2C3F164033B71FB79012B05D17B7918460121B4
:2098200000F07AF903E00020012100F075F9BB79012B05D13B791846002100F06DF903E0A0
:209840000020002100F068F90837BD4680BD00BF5404002080B500AF1D4B93F84730DBB2E5
:20986000002B14D11A4B93F84130DBB2002B04D10020042100F050F909E0154B93F8413027
:20988000DBB2012B03D16420042100F045F9114B1B6903F01003002B04D00D4B022283F888
:2098A000442014E00A4B93F84130DBB2002B04D1074B002283F8442009E0054B93F84130EA
:2098C000DBB2012B03D1024B012283F8442080BD5404002000F10F4080B500AF484B93F8B5
:2098E0005130DBB2012B42D1454B93F86130DBB2012B0AD1424B93F85730DBB2002B14D19F
:209900006420052100F008F90FE03D4B93F86130DBB2002B09D13A4B93F85730DBB2002B38
:2099200003D10020052100F0F7F8354B93F82130DBB2012B0AD1324B93F82730DBB2002B27
:209940005DD10A20022100F0E7F858E02C4B93F82130DBB2002B52D1294B93F82730DBB274
:20996000002B4CD10020022100F0D6F847E0244B93F85130DBB2002B41D1214B93F85730B4
:20998000DBB2002B03D10020052100F0C5F81C4B93F82130DBB2012B0AD1194B93F827302B
:2099A000DBB2002B2BD10A20022100F0B5F826E0134B93F82130DBB2002B20D1104B93F83A
:2099C0003130DBB2012B0AD10D4B93F83730DBB2002B14D16420032100F09EF80FE0084B3B
:2099E00093F83130DBB2002B09D1054B93F83730DBB2002B03D10020032100F08DF880BD25
:209A00005404002080B500AF424B93F88130DBB2012B38D13F4B93F86130DBB2012B0AD125
:209A20003C4B93F88730DBB2002B72D16420082100F072F86DE0374B93F86130DBB2002BB8
:209A400067D1344B93F89130DBB2012B0AD1314B93F89730DBB2002B5BD10A20092100F079
:209A60005BF856E02B4B93F89130DBB2002B50D1284B93F89730DBB2002B4AD100200921E0
:209A800000F04AF845E0234B93F88130DBB2002B3FD1204B93F87130DBB2012B0AD11D4B6A
:209AA00093F87730DBB2002B33D16420072100F033F82EE0174B93F89130DBB2012B0AD1A1
:209AC000144B93F89730DBB2002B22D10A20092100F022F81DE00F4B93F88730DBB2002B7B
:209AE00017D10C4B93F89730DBB2002B11D1094B93F87730DBB2002B0BD10020092100F0E7
:209B00000BF80020072100F007F80020082100F003F880BD5404002080B582B000AF0346C3
:209B20000A46FB711346BB71BB79092B00F2D98001A252F823F000BF619B00007F9B00005C
:209B40009D9B0000C79B0000F19B00002B9C0000E39C00004D9C00007F9C0000B19C000048
:209B6000624BDB78DBB2FA799A4207D05F4AFB79D370FB79184609F0DBFFB3E0B2E05B4B62
:209B8000DB7CDBB2FA799A4207D0584AFB79D374FB79184609F03CFDA4E0A3E0534B93F82A
:209BA0002330DBB2FA799A420CD0504AFB7982F823304E4AFB7982F83330FB79184609F00B
:209BC00027FE8FE08EE0494B93F83330DBB2FA799A420CD0454AFB7982F83330434AFB7968
:209BE00082F82330FB79184609F012FE7AE079E03E4B93F84330DBB2FA799A4214D03B4A3E
:209C0000FB7982F84330FB79002B06D1384A384B9B6843F48073936006E0354A344B5B68A1
:209C200043F4807353605DE05CE0304B93F85330DBB2FA799A4208D02C4AFB7982F85330AA
:209C4000FB79184609F0E6FE4CE04BE0274B93F87330DBB2FA799A4210D0244AFB7982F846
:209C60007330224AFB7982F89330204AFB7982F88330FB79184609F0CBFD33E032E01B4BFB
:209C800093F88330DBB2FA799A4210D0174AFB7982F88330154AFB7982F89330134AFB79E7
:209CA00082F87330FB79184609F0B2FD1AE019E00E4B93F89330DBB2FA799A4210D00B4A62
:209CC000FB7982F89330094AFB7982F88330074AFB7982F87330FB79184609F099FD01E0BB
:209CE00000E000BF0837BD4680BD00BF5404002080F00F4080B582B000AF0C4B00221A7037
:209D00000A4B01225A70094B01229A700023FB712EE0FA79064913465B001344DB000B44EC
:209D200000221A700023BB711CE000BF0C000020BC000020FA79B979C34813465B001344AA
:209D4000DB0003440B4408330022DA71FA79BE4913465B001344DB000B4400221A70BB795B
:209D60000133BB71BB79072BE4D9FB790133FB71FB790B2BCDD9B44B40F231329A60B24B71
:209D800002221A73B04B00229A73AF4B00225A73AD4B64225A80AC4B01229A80AA4B4FF639
:209DA000FF72DA80A84B0022DA73A74B11221A74A54B22225A74A44B33229A74A24B44221C
:209DC000DA74A14B55221A759F4B66225A759E4B77229A759C4B40F23F621A629A4B08222C
:209DE00083F82420984B002283F82620964B002283F82520944B4FF4FA725A83924B0222AF
:209E00009A83914B4FF6FF72DA838F4B002283F827208D4B112283F828208B4B222283F815
:209E20002920894B332283F82A20874B442283F82B20854B552283F82C20834B662283F80E
:209E40002D20814B772283F82E207F4B40F231729A637D4B082283F83C207B4B002283F8BF
:209E60003E20794B002283F83D20774B4FF4FA725A86754B01229A86734B0122DA86724B74
:209E8000002283F83F20704B112283F840206E4B222283F841206C4B332283F842206A4B86
:209EA000442283F84320684B552283F84420664B662283F84520644B772283F84620624B66
:209EC00040F241321A65604B022283F854205E4B002283F856205C4B002283F855205A4B86
:209EE0006422A3F84A20584B0122A3F84C20564B4FF6FF72A3F84E20534B002283F85720F8
:209F0000514B112283F858204F4B222283F859204D4B332283F85A204B4B442283F85B20D9
:209F2000494B552283F85C20474B662283F85D20454B772283F85E20434B40F24F629A667A
:209F4000414B082283F86C203F4B002283F86E203D4B002283F86D203B4B4FF4FA72A3F80D
:209F60006220394B0222A3F86420374B4FF6FF72A3F86620344B002283F86F20324B1122E4
:209F800083F87020304B222283F871202E4B332283F872202C4B442283F873202A4B552239
:209FA00083F87420284B662283F87520264B772283F87620244B40F24172C3F88020224B50
:209FC000082283F88420204B002283F886201E4B002283F885201C4B4FF4FA72A3F87A2094
:209FE000194B0122A3F87C20174B0122A3F87E20154B002283F88720134B112283F888208D
:20A00000114B222283F889200F4B332283F88A200D4B442283F88B200B4B552283F88C20D0
:20A02000094B662283F88D20074B772283F88E20054B40F25132C3F89820034B022283F8A3
:20A040009C20014B002201E0BC00002083F89E20CA4B002283F89D20C84B6422A3F892208B
:20A06000C64B0122A3F89420C44B4FF6FF72A3F89620C24B002283F89F20C04B112283F825
:20A08000A020BE4B222283F8A120BC4B332283F8A220BA4B442283F8A320B84B552283F840
:20A0A000A420B64B662283F8A520B44B772283F8A620B24B40F25F62C3F8B020AF4B08229B
:20A0C00083F8B420AD4B002283F8B620AB4B002283F8B520A94B4FF4FA72A3F8AA20A74B64
:20A0E0000222A3F8AC20A54B4FF6FF72A3F8AE20A24B002283F8B720A04B112283F8B820F4
:20A100009E4B222283F8B9209C4B332283F8BA209A4B442283F8BB20984B552283F8BC20DB
:20A12000964B662283F8BD20944B772283F8BE20924B40F25172C3F8C820904B082283F898
:20A14000CC208E4B002283F8CE208C4B002283F8CD208A4B4FF4FA72A3F8C220874B012258
:20A16000A3F8C420854B0122A3F8C620834B002283F8CF20814B112283F8D0207F4B22221A
:20A1800083F8D1207D4B332283F8D2207B4B442283F8D320794B552283F8D420774B66223B
:20A1A00083F8D520754B772283F8D620734B40F2C132C3F8E020714B022283F8E4206F4BAE
:20A1C000002283F8E6206D4B002283F8E5206B4B6422A3F8DA20694B0122A3F8DC20674B91
:20A1E0004FF6FF72A3F8DE20644B002283F8E720624B112283F8E820604B222283F8E920E7
:20A200005E4B332283F8EA205C4B442283F8EB205A4B552283F8EC20584B662283F8ED20D2
:20A22000564B772283F8EE20544B40F2CF62C3F8F820524B082283F8FC20504B002283F8F0
:20A24000FE204E4B002283F8FD204C4B4FF4FA72A3F8F220494B0222A3F8F420474B4FF65C
:20A26000FF72A3F8F620454B002283F8FF20434B112283F80021414B222283F801213F4B1C
:20A28000332283F802213D4B442283F803213B4B552283F80421394B662283F80521374B72
:20A2A000772283F80621354B40F2C172C3F81021324B082283F81421304B002283F81621EC
:20A2C0002E4B002283F815212C4B4FF4FA72A3F80A212A4B0122A3F80C21284B0122A3F8B5
:20A2E0000E21264B002283F81721244B112283F81821224B222283F81921204B332283F8F2
:20A300001A211E4B442283F81B211C4B552283F81C211A4B662283F81D21184B772283F8C9
:20A320001E21174B00221A800023FB7141E0FA79144913465B001344DB000B4400221A705F
:20A34000FA79104913465B001344DB000B4400229A71FA790B4913465B001344DB000B44D3
:20A360000022DA71FA79074913465B001344DB000B4400229A800023BB7114E0BC0000201D
:20A38000B800002010000020FA79B9791E4813465B001344DB0003440B4408330022DA7186
:20A3A000BB790133BB71BB79072BEDD9FB790133FB71FB79062BBAD9134B4FF4F1729A6093
:20A3C000114B08221A73104B00229A730E4B00225A730D4B01221A700B4B64225A800120BC
:20A3E00008F058F9094808F0B7FC094808F0C2FC01F072FD02F01CFA02F026FB08F0C4FBDF
:20A400000837BD4680BD00BF1000002051BD0000CDBE000080B500AF01F072FBB84B1B884D
:20A420004FF6FF72934205D0B54B1B8801339AB2B34B1A80B34B93F8B030DBB2012B01D10D
:20A4400001F04CFA01F0A6FD02F022FA02F0DAFA0346012B34D1AC4B1B78042B2ED801A281
:20A4600052F823F0BDA4000079A4000087A4000099A40000ABA40000A44B00221A70A34BC1
:20A4800000221A761BE0A14B002283F848209F4B002283F8602012E09C4B002283F89020F1
:20A4A0009A4B002283F8A82009E0984B002283F8D820964B002283F8F02000E000BF72E072
:20A4C00002F0A0FA0346022B6DD18F4B1B78042B68D801A252F823F0A5A50000EDA4000085
:20A4E00015A5000045A5000075A50000854B93F8BA30DBB2012B06D1844B00221A70834B80
:20A5000000221A764FE0814B01221A707F4B01221A7648E07B4B93F8BA30DBB2012B08D16F
:20A520007A4B002283F84820784B002283F8602039E0764B012283F84820744B012283F834
:20A54000602030E06F4B93F8BA30DBB2012B08D16E4B002283F890206C4B002283F8A82088
:20A5600021E06A4B012283F89020684B012283F8A82018E0634B93F8BA30DBB2012B08D111
:20A58000624B002283F8D820604B002283F8F02009E05E4B012283F8D8205C4B012283F8B4
:20A5A000F02000E000BF5A4B5B78013B052B00F2D68001A252F823F0D1A50000D9A50000CC
:20A5C00023A600006DA60000B7A6000015A700004F4B02229A70C6E008F054FD0346032B58
:20A5E00003D14B4B06229A701AE008F04BFD0346012B03D1464B04229A7011E008F042FD53
:20A600000346022B03D1424B03229A7008E008F039FD0346002B03D13D4B02229A70A2E09E
:20A62000A1E008F02FFD0346032B03D1384B06229A701AE008F026FD0346012B03D1344B98
:20A6400004229A7011E008F01DFD0346022B03D12F4B03229A7008E008F014FD0346002B6F
:20A6600003D12B4B02229A707DE07CE008F00AFD0346032B03D1264B06229A701AE008F0CA
:20A6800001FD0346012B03D1214B04229A7011E008F0F8FC0346022B03D11D4B03229A7019
:20A6A00008E008F0EFFC0346002B03D1184B02229A7058E057E008F0E5FC0346032B03D163
:20A6C000134B06229A701AE008F0DCFC0346012B03D10F4B04229A7011E008F0D3FC03464C
:20A6E000022B03D10A4B03229A7008E008F0CAFC0346002B03D1064B02229A7033E032E043
:20A70000B80000205404002024050020BC0000200C00002008F0B6FC0346032B03D1164B42
:20A7200006229A701AE008F0ADFC0346012B03D1114B04229A7011E008F0A4FC0346022B78
:20A7400003D10D4B03229A7008E008F09BFC0346002B03D1084B02229A7004E003E0064B46
:20A7600001229A7000BF044B5A78034B1A70024B9A78014B5A7080BD0C00002080B485B0AD
:20A7800000AF0346FB710023FB81FB79062B08D8FA79074913465B001344DB000B449B8816
:20A7A000FB81FB8918461437BD465DF8047B70471000002080B400AF034B1B881846BD46FD
:20A7C0005DF8047B704700BFB800002080B485B000AF0346FB71FB79002B47D17E4A7F4B41
:20A7E0001B7DDBB203F00303D9B2537861F383035370794A794B1B79DBB203F00303D9B21C
:20A80000137861F305131370734A744B93F83430DBB203F00303D9B2137861F3830313705A
:20A820006D4A6E4B93F82430DBB203F00303D9B2137861F301031370674A684B93F85430DF
:20A84000DBB203F00303D9B2537861F301035370614A624B93F84430DBB203F00303D9B299
:20A86000137861F38713137001F028B8FB79032B47D15B4A594B1B7DDBB203F00303D9B25F
:20A88000537861F383035370554A544B1B79DBB203F00303D9B2137861F305131370504A59
:20A8A0004E4B93F83430DBB203F00303D9B2137861F3830313704A4A484B93F82430DBB284
:20A8C00003F00303D9B2137861F301031370444A424B93F85430DBB203F00303D9B2537888
:20A8E00061F3010353703E4A3C4B93F84430DBB203F00303D9B2137861F38713137000F032
:20A90000DDBFFB79062B31D1364A344B93F89430DBB203F00303D9B2137861F3010313702F
:20A92000304A2E4B93F84430DBB203F00303D9B2137861F3830313702A4A284B93F8743016
:20A94000DBB203F00303D9B2137861F305131370244A224B93F88430DBB203F00303D9B241
:20A96000137861F38713137000F0A8BFFB79092B3CD11D4A194B93F89430DBB203F003032F
:20A98000D9B2137861F383031370174A134B93F84430DBB203F00303D9B2137861F305137E
:20A9A0001370114A0D4B93F87430DBB203F00303D9B2137861F3871313700B4A074B93F8F3
:20A9C0008430DBB203F00303D9B2137861F30103137000F073BF00BFCB0000205404002008
:20A9E000130100205B010020A3010020FB790A2B09D0FB79072B06D0FB79042B03D0FB79FB
:20AA0000012B40F05B87C24B1B780133DAB2C04B1A70BF4B1B78112B02D9BD4B00221A709B
:20AA2000BB4B1B781A46BB4B53F82230BB73BA4ABB7B82F82730B84ABB7B82F86F30B64AF0
:20AA4000BB7B82F8B730B44ABB7B82F8FF30BB7B692B00F2328701A252F823F005AC00005C
:20AA6000BBB80000BBB80000BBB80000BBB80000BBB80000BBB80000BBB80000BBB800003E
:20AA8000BBB800000BAD000005AE0000E3AE0000BBB80000BBB80000C1AF0000B1B0000090
:20AAA0008DB10000BBB80000BBB8000069B20000BBB8000057B30000BBB8000033B4000080
:20AAC000BBB80000BBB80000BBB80000BBB80000BBB800000FB50000BBB80000BFB500008C
:20AAE000BBB800005FB60000BBB80000BBB80000BBB80000BBB80000BBB80000BBB800001C
:20AB0000BBB80000BBB80000BBB80000BBB80000BBB80000BBB80000BBB80000BBB800009D
:20AB2000BBB80000BBB80000BBB80000BBB80000BBB80000BBB80000BBB80000BBB800007D
:20AB4000BBB80000BBB80000BBB80000BBB80000BBB80000BBB80000BBB80000BBB800005D
:20AB6000BBB80000BBB80000BBB80000BBB80000BBB80000BBB80000BBB80000BBB800003D
:20AB8000BBB80000BBB80000BBB80000BBB80000BBB80000BBB80000BBB80000BBB800001D
:20ABA000BBB80000BBB80000BBB80000BBB80000BBB80000BBB80000BBB80000BBB80000FD
:20ABC000BBB80000BBB80000BBB80000BBB80000BBB80000BBB80000BBB80000BBB80000DD
:20ABE000BBB80000BBB80000BBB80000BBB8000093B600004BB700001FB8000053B800005C
:20AC000087B800000123FB7312E0444AFB7B5521D154434AFB7B5521D154424AFB7B5521BC
:20AC2000D154414AFB7B5521D154FB7B0133FB73FB7B072BE9D9394A5378022161F34713B2
:20AC40005370364B03229A70344A53786FF304035370324B0022DA70304B00221A712F4B81
:20AC600000225A712D4B00229A712D4A5378022161F3471353702A4B04229A70284A53788A
:20AC80006FF304035370264B0022DA70244B00221A71234B00225A71214B00229A71214A30
:20ACA0005378022161F3471353701E4B05229A701C4A53786FF3040353701A4B0022DA706D
:20ACC000184B00221A71174B00225A71154B00229A71154A5378022161F347135370124B6D
:20ACE0000C229A70104A53786FF3040353700E4B0022DA700C4B00221A710B4B00225A71BF
:20AD0000094B00229A7100F0D9BD0123FB7320E06C84FF1F2484FF1FBC000020E3000020E7
:20AD20002B01002073010020BB010020A64AFB7B5521D154A54AFB7B5521D154A44AFB7BF2
:20AD40005521D154A34AFB7B5521D154FB7B0133FB73FB7B072BE9D99B4B00225A709A4B21
:20AD600000229A70984B0022DA70974B00221A71954B00225A71944B00229A71924B0022F1
:20AD8000DA71924B00225A70904B00229A708F4B0022DA708D4B00221A718C4B00225A7109
:20ADA0008A4B00229A71894B0022DA71884B00225A70874B00229A70854B0022DA70844B88
:20ADC00000221A71824B00225A71814B00229A717F4B0022DA717F4B00225A707D4B00223C
:20ADE0009A707C4B0022DA707A4B00221A71794B00225A71774B00229A71764B0022DA71D6
:20AE000000F05CBD0123FB7312E06F4AFB7B5521D1546E4AFB7B5521D1546D4AFB7B55216F
:20AE2000D1546C4AFB7B5521D154FB7B0133FB73FB7B072BE9D9644B0B225A70624B0B2224
:20AE40009A70614B0B22DA705F4B0B221A715E4B0B225A715C4B0B229A715B4B0B22DA71C5
:20AE60005A4B0B225A70594B0B229A70574B0B22DA70564B0B221A71544B0B225A71534BB4
:20AE80000B229A71514B0B22DA71514B0B225A704F4B0B229A704E4B0B22DA704C4B0B222E
:20AEA0001A714B4B0B225A71494B0B229A71484B0B22DA71474B0B225A70464B0B229A7051
:20AEC000444B0B22DA70434B0B221A71414B0B225A71404B0B229A713E4B0B22DA7100F0EE
:20AEE000EDBC0123FB7312E0374AFB7B5521D154364AFB7B5521D154354AFB7B5521D15472
:20AF0000344AFB7B5521D154FB7B0133FB73FB7B072BE9D92C4B0C225A702B4B0C229A7003
:20AF2000294B0C22DA70284B0C221A71264B0C225A71254B0C229A71234B0C22DA71234B91
:20AF40000C225A70214B0C229A70204B0C22DA701E4B0C221A711D4B0C225A711B4B0C225B
:20AF60009A711A4B0C22DA71194B0C225A70184B0C229A70164B0C22DA70154B0C221A71FF
:20AF8000134B0C225A71124B0C229A71104B0C22DA71104B0C225A700E4B0C229A700D4BB4
:20AFA0000C22DA700B4B0C221A710A4B0C225A71084B0C229A71074B0C22DA7100F07EBC3B
:20AFC0000123FB731BE000BFE30000202B01002073010020BB010020A54AFB7B5521D15466
:20AFE000A44AFB7B5521D154A34AFB7B5521D154A24AFB7B5521D154FB7B0133FB73FB7BC9
:20B00000072BE9D99A4B0F225A70994B0F229A70974B0F22DA70964B0F221A71944B0F2233
:20B020005A71934B0F229A71914B0F22DA71914B0F225A708F4B0F229A708E4B0F22DA7093
:20B040008C4B0F221A718B4B0F225A71894B0F229A71884B0F22DA71874B0F225A70864B8E
:20B060000F229A70844B0F22DA70834B0F221A71814B0F225A71804B0F229A717E4B0F22F8
:20B08000DA717E4B0F225A707C4B0F229A707B4B0F22DA70794B0F221A71784B0F225A711F
:20B0A000764B0F229A71754B0F22DA7100F006BC0123FB7312E06E4AFB7B5521D1546D4AA1
:20B0C000FB7B5521D1546C4AFB7B5521D1546B4AFB7B5521D154FB7B0133FB73FB7B072B12
:20B0E000E9D9634B10225A70614B10229A70604B1022DA705E4B10221A715D4B10225A71CA
:20B100005B4B10229A715A4B1022DA71594B10225A70584B10229A70564B1022DA70554BEE
:20B1200010221A71534B10225A71524B10229A71504B1022DA71504B10225A704E4B102263
:20B140009A704D4B1022DA704B4B10221A714A4B10225A71484B10229A71474B1022DA710D
:20B16000464B10225A70454B10229A70434B1022DA70424B10221A71404B10225A713F4B10
:20B1800010229A713D4B1022DA7197E30123FB7312E0374AFB7B5521D154364AFB7B552171
:20B1A000D154354AFB7B5521D154344AFB7B5521D154FB7B0133FB73FB7B072BE9D92C4B52
:20B1C00011225A702A4B11229A70294B1122DA70274B11221A71264B11225A71244B11228E
:20B1E0009A71234B1122DA71224B11225A70214B11229A701F4B1122DA701E4B11221A7137
:20B200001C4B11225A711B4B11229A71194B1122DA71194B11225A70174B11229A70164BE2
:20B220001122DA70144B11221A71134B11225A71114B11229A71104B1122DA710F4B112218
:20B240005A700E4B11229A700C4B1122DA700B4B11221A71094B11225A71084B11229A71C3
:20B26000064B1122DA7129E30123FB731BE000BFE30000202B01002073010020BB010020E8
:20B28000A44AFB7B5521D154A34AFB7B5521D154A24AFB7B5521D154A14AFB7B5521D154B8
:20B2A000FB7B0133FB73FB7B072BE9D9994B14225A70984B14229A70964B1422DA70954BC4
:20B2C00014221A71934B14225A71924B14229A71904B1422DA71904B14225A708E4B14226A
:20B2E0009A708D4B1422DA708B4B14221A718A4B14225A71884B14229A71874B1422DA7118
:20B30000864B14225A70854B14229A70834B1422DA70824B14221A71804B14225A717F4BDA
:20B3200014229A717D4B1422DA717D4B14225A707B4B14229A707A4B1422DA70784B142277
:20B340001A71774B14225A71754B14229A71744B1422DA71B2E20123FB7312E06D4AFB7B19
:20B360005521D1546C4AFB7B5521D1546B4AFB7B5521D1546A4AFB7B5521D154FB7B013336
:20B38000FB73FB7B072BE9D9624B16225A70614B16229A705F4B1622DA705E4B16221A71A0
:20B3A0005C4B16225A715B4B16229A71594B1622DA71594B16225A70574B16229A70564BA8
:20B3C0001622DA70544B16221A71534B16225A71514B16229A71504B1622DA714F4B162219
:20B3E0005A704E4B16229A704C4B1622DA704B4B16221A71494B16225A71484B16229A71C9
:20B40000464B1622DA71464B16225A70444B16229A70434B1622DA70414B16221A71404BCA
:20B4200016225A713E4B16229A713D4B1622DA7144E20123FB7312E0364AFB7B5521D154F7
:20B44000354AFB7B5521D154344AFB7B5521D154334AFB7B5521D154FB7B0133FB73FB7BB1
:20B46000072BE9D92B4B18225A702A4B18229A70284B1822DA70274B18221A71254B1822CD
:20B480005A71244B18229A71224B1822DA71224B18225A70204B18229A701F4B1822DA702D
:20B4A0001D4B18221A711C4B18225A711A4B18229A71194B1822DA71184B18225A70174B97
:20B4C00018229A70154B1822DA70144B18221A71124B18225A71114B18229A710F4B182289
:20B4E000DA710F4B18225A700D4B18229A700C4B1822DA700A4B18221A71094B18225A71B9
:20B50000074B18229A71064B1822DA71D6E10123FB731AE0E30000202B0100207301002098
:20B52000BB0100208A4AFB7B5521D154894AFB7B5521D154884AFB7B5521D154874AFB7B3C
:20B540005521D154FB7B0133FB73FB7B072BE9D9834BBB607E4B00225A707D4B00229A703C
:20B560007B4B0022DA707A4ABB681B781371794B00225A70774B00229A70764B0022DA70D0
:20B58000744ABB681B781371734B00225A70724B00229A70704B0022DA706F4ABB681B788A
:20B5A00013716E4B00225A706C4B00229A706B4B0022DA70694ABB681B7813717EE10123ED
:20B5C000FB7312E0624AFB7B5521D154614AFB7B5521D154604AFB7B5521D1545F4AFB7BB8
:20B5E0005521D154FB7B0133FB73FB7B072BE9D95C4BBB60564B00225A70554B00229A7013
:20B60000534B0022DA70524ABB681B781371514B00225A704F4B00229A704E4B0022DA70F7
:20B620004C4ABB681B7813714B4B00225A704A4B00229A70484B0022DA70474ABB681B78B1
:20B640001371464B00225A70444B00229A70434B0022DA70414ABB681B7813712EE101233C
:20B66000FB7312E03A4AFB7B5521D154394AFB7B5521D154384AFB7B5521D154374AFB7BB7
:20B680005521D154FB7B0133FB73FB7B072BE9D914E10123FB7312E02D4AFB7B5521D1548C
:20B6A0002C4AFB7B5521D1542B4AFB7B5521D1542A4AFB7B5521D154FB7B0133FB73FB7B6A
:20B6C000072BE9D9284BBB60214ABB681B7853701F4ABB685B7893701D4ABB68DB78D37082
:20B6E0001B4ABB689B7813711A4ABB681B785370184ABB685B789370164ABB68DB78D370DA
:20B70000144ABB689B781371134ABB681B785370114ABB685B7893700F4ABB68DB78D370D5
:20B720000D4ABB689B7813710C4ABB681B7853700A4ABB685B789370084ABB68DB78D370D1
:20B74000064ABB689B781371B8E00123FB7320E0E30000202B01002073010020BB010020F6
:20B76000C80000144801001400FC0100564AFB7B5521D154554AFB7B5521D154544AFB7B1E
:20B780005521D154534AFB7B5521D154FB7B0133FB73FB7B072BE9D94F4BBB604A4ABB6872
:20B7A0001B785370484ABB685B789370464ABB68DB78D370444ABB689B781371434ABB6867
:20B7C0001B785370414ABB685B7893703F4ABB68DB78D3703D4ABB689B7813713C4ABB6863
:20B7E0001B7853703A4ABB685B789370384ABB68DB78D370364ABB689B781371354ABB685F
:20B800001B785370334ABB685B789370314ABB68DB78D3702F4ABB689B7813714EE00123A3
:20B82000FB7312E0284AFB7B5521D154274AFB7B5521D154264AFB7B5521D154254AFB7B3D
:20B840005521D154FB7B0133FB73FB7B072BE9D934E00123FB7312E01B4AFB7B5521D154BD
:20B860001A4AFB7B5521D154194AFB7B5521D154184AFB7B5521D154FB7B0133FB73FB7BDE
:20B88000072BE9D91AE00123FB7312E00E4AFB7B5521D1540D4AFB7B5521D1540C4AFB7B99
:20B8A0005521D1540B4AFB7B5521D154FB7B0133FB73FB7B072BE9D900E000BF1437BD4618
:20B8C0005DF8047B704700BFE30000202B01002073010020BB010020007F000080B582B079
:20B8E00000AF72B60023FB711EE0FA79134913465B001344DB000B449B88002B11D0FA793E
:20B900000E4913465B001344DB000B449B88013B98B20A4913465B001344DB000B44024622
:20B920009A80FB790133FB71FB790B2BDDD962B600F006F80837BD4680BD00BFBC00002059
:20B9400090B587B000AF07F0D5F90023FB75CBE000237B75FA7D694913465B001344DB0097
:20B960000B449B88002B15D1FA7D644913465B001344DB000B441B78012B0BD1FA7D5F4931
:20B9800013465B001344DB000B44DB88002B01D001237B757B7D012B40F0A380FB7D1846B2
:20B9A000FEF714FFFA7D554913465B001344DB000B4408331B687B60FA7D504913465B00D8
:20B9C0001344DB000B4408331B7903F03F03DAB23B7A62F387033B72FA7D484913465B0059
:20B9E0001344DB000B4408339B7903F00103DAB23B7A62F341033B72FA7D404913465B0045
:20BA00001344DB000B4408335B7903F00103DAB23B7A62F300033B720023BB7513E0B97DDD
:20BA2000FA7DB87D354C13465B001344DB00234403440833DA7907F118030B4403F80F2C1F
:20BA4000BB7D0133BB75FA7D2C4913465B001344DB000B4408331B79BA7D9A42DFD33B1D3D
:20BA6000184607F095F903463B753B7D012B38D1FA7DF97D21480B465B000B44DB0003448A
:20BA800058881E4913465B001344DB000B4402469A80FA7D194913465B001344DB000B44BA
:20BAA000DB884FF6FF7293421BD0FA7D134913465B001344DB000B44DB88002B11D0FA7DBF
:20BAC0000E4913465B001344DB000B44DB88013B98B20A4913465B001344DB000B44024621
:20BAE000DA80FB7D0133FB75FB7D0B2B7FF630AF07F0BEF81C37BD4690BD00BFBC000020E3
:20BB000080B400AF8E4B9B884FF6FF72934205D08B4B9B8801339AB2894B9A80884B9A7999
:20BB2000874BDB799A4200F0078172B6844B00229A80834B9A79824BDA71824B1B78042BD0
:20BB400000F2F88001A252F823F000BF35BD000061BB0000EFBB00007DBC0000D9BC000036
:20BB6000794B1B78C3F30103DBB21A46774B83F82020754B1B78C3F38103DBB21A46734B12
:20BB800083F83020704B1B78C3F30113DBB21A466E4B1A706C4B1B78C3F38113DBB21A4611
:20BBA0006A4B83F84020684B5B78C3F30103DBB21A46664B83F85020634B5B78C3F3810371
:20BBC000DBB21A46614B1A745F4B9B79C3F30103DBB21A465D4B83F860205B4B9B79C3F3C6
:20BBE0000313DBB21A46594B83F8A020A3E0564B9B78C3F30103DBB21A46544B83F820202B
:20BC0000514B9B78C3F38103DBB21A464F4B83F830204D4B9B78C3F30113DBB21A464B4BF1
:20BC20001A70494B1B79C3F38103DBB21A46474B83F84020444B5B78C3F30113DBB21A46A5
:20BC4000424B83F85020404B5B78C3F38113DBB21A463E4B1A743C4B9B79C3F30103DBB2DE
:20BC60001A463A4B83F86020374B9B79C3F30313DBB21A46354B83F8A0205CE0324BDB78CE
:20BC8000C3F30103DBB21A46304B83F890202E4BDB78C3F38103DBB21A462C4B83F8402012
:20BCA000294BDB78C3F38113DBB21A46274B83F88020254B9B79C3F30103DBB21A46234B60
:20BCC00083F86020204BDB78C3F30113DBB21A461E4B83F870202EE01B4B1B79C3F30103BE
:20BCE000DBB21A46194B83F89020174B9B78C3F38113DBB21A46154B83F84020124B1B79F0
:20BD0000C3F38113DBB21A46104B83F880200E4B9B79C3F30103DBB21A460C4B83F8602010
:20BD2000094B1B79C3F30113DBB21A46074B83F8702000E000BF62B6BD465DF8047B7047C2
:20BD400010000020240500201F0000205404002090B585B000AF7860594B00221A80594BAE
:20BD6000B3F8B6309BB21A467B681B689A420AD07B681B68B3F5E06F05D07B681B6840F29F
:20BD8000DF72934203D1786800F06CFC94E07B681B68B3F5447F03D1786800F0FBFD8BE025
:20BDA0000023FB7384E0FA7B474913465B001344DB000B4408331A687B681B689A4274D110
:20BDC000FA7B414913465B001344DB000B441B78012B6AD1FA7B7B6819683B4813465B0025
:20BDE0001344DB00034408331960FA7B7B681B79C3F38503DBB21846334913465B0013447A
:20BE0000DB000B44083302461A71FA7B7B681B79C3F34003DBB218462B4913465B0013449B
:20BE2000DB000B44083302469A71FA7B7B681B79C3F30003DBB21846234913465B00134443
:20BE4000DB000B44083302465A710023BB7312E0FA7BB97BBB7B786803445C791A48134691
:20BE60005B001344DB0003440B4408332246DA71BB7B0133BB73BB7B7A681279C2F385023A
:20BE8000D2B29342E4DBFA7B0F4913465B001344DB000B449B790133D8B20B4913465B00AE
:20BEA0001344DB000B4402469A71FB7B0133FB73FB7B062B7FF677AF1437BD4690BD00BFFA
:20BEC000B8000020540400201000002080B500AFFFF736FD80BD00BF80B500AF00F002F80B
:20BEE00080BD00BF80B483B000AF264B00221A70244B01225A70234B01229A700023FB718D
:20BF000006E0FB79204A0021D154FB790133FB71FB79632BF5D91D4B00221A801C4B002286
:20BF200083F820201A4B002283F82120184B002283F82620164B002283F82720144B0022F7
:20BF400083F83420124B0022DA86114B002283F838200023FB710CE0FB790D4A1344002223
:20BF60005A71FB790A4A134400225A75FB790133FB71FB79072BEFD90C37BD465DF8047B4A
:20BF8000704700BFDC010020E0010020440200200804002080B582B000AF854BDB8E002B21
:20BFA00017D0834BDB8E013B9AB2814BDA86804BDB8E002B0DD17E4B93F83430012B04D0BA
:20BFC0007B4B93F83430022B03D1794B002283F83420774B5B8E4FF6FF72934205D0744B2C
:20BFE0005B8E01339AB2724B5A86724B5B78013B062B00F2038301A252F823F019C00000ED
:20C000005DC000004DC10000C9C10000FFC2000031C4000001C50000664B5A78654B1B7829
:20C020009A4202D0644B00221A80614B93F826205F4B93F827309A4203D05E4B05229A7055
:20C040000BE05B4B93F82020594B93F821309A4203D0584B02229A70D4E2D3E2554B5A78A7
:20C06000544B1B789A4205D0514B93F82020504B83F821204E4B5B791B029AB24C4B9B799E
:20C080009BB213439BB2BB80BB8803F470431B0A002B27D1BB8803F470631B0A9AB2444B33
:20C0A0005A84454B00221A800123FB7111E0424B1B881946FB793E4A13445A793F4B5A54E8
:20C0C0003D4B1B8801339AB23B4B1A80FB790133FB71FB79072BEAD900F0EAFA354B0122A1
:20C0E0009A7032E0BB8803F470431B0A102B28D1BB88C3F30B039AB22D4B5A842C4B01229B
:20C1000083F82C202C4B00221A800223FB7111E0294B1B881946FB79254A13445A79274BAE
:20C120005A54254B1B8801339AB2234B1A80FB790133FB71FB79072BEAD91E4B03229A70A1
:20C1400003E01C4B01229A705CE25BE2194B5A78184B1B789A421FD0194BB3F8B8309BB2B2
:20C160001A46134B1A61124A137D032161F3870313750F4A137D6FF3410313750C4A137D13
:20C180006FF3000313750A4B30225A75084B0A229A75074B0322DA750A4806F0F9FD034661
:20C1A000002B03D0034B04229A702BE22AE200BF08040020DC01002044020020E00100209B
:20C1C0005404002018040020934B5A78924B1B789A4205D0914B00229A84904B00225A85E2
:20C1E0008E4B5B8D01339AB28C4B5A858B4B5B8D44F62062934202D9874B01229A70874B4D
:20C2000093F82020854B93F821309A4276D0834B93F82020814B83F82120804B00225A8598
:20C220007E4B5B7903F0F003202B63D17B4B93F82C301A46794B5B7903F00F039A4259D14C
:20C24000764B93F82C300133DAB2744B83F82C20724B93F82C300F2B03D9704B002283F8DE
:20C260002C200123FB7121E06D4B1B88632B1AD86B4B1B881946FB79684A13445A79694B4A
:20C280005A54674B1B8801339AB2654B1A80634B5A8C634B1B889A4200D80AE0604B1B8800
:20C2A000632B00D905E0FB790133FB71FB79072BDAD95A4B9B8C01339AB2584B9A84574B16
:20C2C0009B8C092B02D9544B03229A70534B5A8C534B1B889A4204D800F0EAF94E4B01224E
:20C2E0009A704F4B1B88632B03D94B4B01229A7004E003E0484B01229A7083E182E1464BEB
:20C300005A78454B1B789A426ED0444B93F82620424B83F82720444BB3F8B8309BB21A4690
:20C320003E4B1A613D4A137D6FF3000313753B4A137D6FF341031375384A137D082161F323
:20C3400087031375354B1B8D072B21D8334B1B8DDAB2324B5A75324B00221A800123FB71B1
:20C3600012E0FB792E4A128811462E4A515C2B4A13440A465A752A4B1B8801339AB2284BD3
:20C380001A80FB790133FB71FB79072BE9D92BE0224B1B8D03F470631B0ADBB243F01003A5
:20C3A000DAB21E4B5A751D4B1B8DDAB21B4B9A751B4B00221A800223FB7112E0FB79184A2D
:20C3C00012881146174A515C144A13440A465A75134B1B8801339AB2114B1A80FB7901336B
:20C3E000FB71FB79072BE9D9104806F0D1FC0346002B0FD0094B1B8D072B03D8064B01227E
:20C400009A7007E0044B06229A70044B012283F82C20F7E0F6E000BFDC01002008040020DC
:20C4200044020020E001002054040020180400207A4B5A78794B1B789A4202D0784B002260
:20C440005A85774B5B8D01339AB2754B5A85744B5B8D44F62062934202D9704B01229A7039
:20C460006F4B93F820206E4B93F821309A4246D06B4B93F820206A4B83F82120684B5B7937
:20C4800003F0F003302B36D1654B5B7903F00F03002B1CD1624B9B79002B04D1604BFF2226
:20C4A00083F82D2004E05E4B9A795D4B83F82D205B4B002283F82E20594BDB799BB201339A
:20C4C0009AB2574B1A86554B07229A7017E0544B5B7903F00F03012B11D0514B5B7903F01C
:20C4E0000F03022B03D14D4B01229A7007E04B4B01229A7086E0494B01229A7082E081E0D0
:20C50000474B5A8E464B1B8E9A4276D9444B00225A86444BB3F8B8309BB21A46404B1A61D6
:20C520003F4A137D6FF3000313753D4A137D6FF3410313753A4A137D082161F3870313750D
:20C54000374B93F82C3043F02003DAB2344B5A750123FB7119E0FB79334A12881146334A5A
:20C56000515C2F4A13440A465A752F4B1B8801339AB22D4B1A802A4B1A8D2B4B1B889A425F
:20C5800000D805E0FB790133FB71FB79072BE2D9234B93F82C300133DAB2214B83F82C2021
:20C5A0001F4B93F82C300F2B03D91D4B002283F82C201F4806F0ECFB0346002B1DD0184BBB
:20C5C0001A8D194B1B889A4203D8144B01229A7013E0134B93F82E300133DAB2104B83F89A
:20C5E0002E200F4B93F82E200D4B93F82D309A4203D30A4B06229A7004E003E0074B012205
:20C600009A7000BF054B5A78044B1A70034B9A78024B5A700837BD4680BD00BFDC010020A4
:20C62000080400205404002044020020E00100201804002080B483B000AF0346FB71FB7974
:20C640009AB2074B1A85064B93F826300133DAB2034B83F826200C37BD465DF8047B7047CB
:20C660000804002080B485B000AF78600023FB730BE0FB7BFA7B79680A4451790B4A134492
:20C680000A465A71FB7B0133FB73FB7B072BF0D9064B93F820300133DAB2044B83F8202000
:20C6A0001437BD465DF8047B704700BF0804002080B582B000AF0023FB71594B1B78102B9F
:20C6C00004D10123FB71564800F0C4F9544B1B78112B04D10123FB71514800F04DFA504B6C
:20C6E0001B78142B04D10123FB714D4800F0D0FA4B4B1B78192B04D10123FB71484800F062
:20C700004BFB474B1B78222B04D10123FB71444800F002FC424B1B78272B04D10123FB71AB
:20C720003F4800F091FE3E4B1B78282B04D10123FB713B4800F02CFF394B1B782A2B04D140
:20C740000123FB71364800F0D7FF354B1B782E2B04D10123FB71324801F064F8304B1B785F
:20C760002F2B04D10123FB712D4801F00FF92C4B1B78312B04D10123FB71294802F096FCCC
:20C78000274B1B783E2B04D10123FB71244802F017FD234B1B78852B04D10123FB712048D6
:20C7A00002F08AFDFB79002B33D11E4BB3F8B8309BB21A461C4B1A611B4A137D082161F360
:20C7C00087031375184A137D6FF341031375164A137D6FF300031375134B7F225A75104B21
:20C7E0001A78114B9A75104B1122DA750E4BAA221A760D4BAA225A760B4BAA229A760A4B2F
:20C80000AA22DA76084BAA221A77084806F0C0FA03E0054B41F28832DA860837BD4680BD4D
:20C82000E001002054040020080400201804002080B400AF0F4B00221A700E4B00229A70A9
:20C840000C4B03225A700C4B00221A700B4B00221A700B4B00221A800A4B00221A800A4B15
:20C8600000221A70094B00221A70BD465DF8047B704700BF480200205E0200205F02002054
:20C8800060020020620200205C0200205D02002080B400AF384B1B88B3F5FA6F06D2364B22
:20C8A0001B8801339AB2344B1A8002E0334B01229A70324B1B78012B08D0022B31D0002B42
:20C8C00000D04DE02D4B01229A7049E02B4B1A782A4B5B789A4205D0294B01221A70294BF7
:20C8E00000221A80284B1A78284B1B789A420AD0254B1A78254B1A70254B1B78002B02D1BE
:20C900001E4B02229A701F4B1B8840F6B732934206D81C4B1B8801339AB21A4B1A801FE019
:20C920001EE0164B1A78154B5B789A4205D0144B02221A70134B00221A80134B1A78134BAD
:20C940001B789A420BD0104B1A78104B1A70104B1B78022B03D1094B01229A70FFE700BFA6
:20C96000064B1A78054B5A70044B9A78034B1A70BD465DF8047B7047620200204802002005
:20C980005E020020600200205C0200205D0200205F02002080B485B000AF78600023FB7396
:20C9A0000BE0FB7BFA7B79680A445179104A13440A465A71FB7B0133FB73FB7B072BF0D953
:20C9C0000B4B5B799B09DAB20A4B1A700A4B1B780133DAB2084B1A70084B00221A80084B37
:20C9E00000221A801437BD465DF8047B704700BF4C0200205F0200205C02002062020020F2
:20CA00006002002080B400AF034B1B781846BD465DF8047B704700BF5E02002080B483B03E
:20CA200000AF0023FB71074B1B8840F6B732934201D90123FB71FB7918460C37BD465DF8F8
:20CA4000047B70476002002080B400AFBD465DF8047B704780B584B000AF78600123FB732B
:20CA60002223BB737B681B787B737B6801331B7803F07F033B737B6801331B78DBB25BB2CE
:20CA8000002B01DA0023FB733A4B5B8C022B02D01323BB731EE03B7B022B0AD0032B0FD068
:20CAA000012B14D1FF23BB73324B002283F8342010E0FF23BB732F4B022283F8342009E011
:20CAC000FF23BB732B4B012283F8342002E01223BB7300BFBB7BFF2B27D1FB7B012B46D189
:20CAE0007B7B4033DAB27B681A707B6801333A7B1A707B68023300221A707B68033332224D
:20CB00001A707B68043313221A707B68053388221A707B680633AA221A707B680733AA2208
:20CB20001A700620FFF786FD21E07B687F221A707B6801337A7B1A707B680233BA7B1A7050
:20CB40007B680333AA221A707B680433AA221A707B680533AA221A707B680633AA221A7013
:20CB60007B680733AA221A700320FFF763FD1037BD4680BD0804002080B584B000AF786026
:20CB80000123FB732223BB737B681B787B737B6801331B7803F07F033B737B6801331B78B5
:20CBA000DBB25BB2002B01DA0023FB73364B5B8C022B02D01323BB7316E03B7B012B02D0CF
:20CBC000032B07D00DE0FF23BB73304BC822A3F8B42009E0FF23BB732C4BC822A3F8B22038
:20CBE00002E01223BB7300BFBB7BFF2B27D1FB7B012B46D17B7B4033DAB27B681A707B68DB
:20CC000001333A7B1A707B680233AA221A707B680333AA221A707B680433AA221A707B6871
:20CC20000533AA221A707B680633AA221A707B680733AA221A700220FFF7FCFC21E07B688D
:20CC40007F221A707B6801337A7B1A707B680233BA7B1A707B680333AA221A707B680433B3
:20CC6000AA221A707B680533AA221A707B680633AA221A707B680733AA221A700320FFF7EF
:20CC8000D9FC1037BD4680BD080400205404002080B584B000AF78600123BB732223FB739F
:20CCA0007B681B787B737B6801331B781A047B6802331B781B0213437A6803321278134333
:20CCC000BB60344B93F83430012B02D03123FB730FE0304B5B8C042B02D01323FB7308E02D
:20CCE000BB68002B02D1FF23FB7302E01223FB7300BFFB7BFF2B27D1BB7B012B46D17B7B38
:20CD00004033DAB27B681A707B680133AA221A707B680233AA221A707B680333AA221A705D
:20CD20007B680433AA221A707B680533AA221A707B680633AA221A707B680733AA221A702D
:20CD40000120FFF777FC21E07B687F221A707B6801337A7B1A707B680233FA7B1A707B68AA
:20CD60000333AA221A707B680433AA221A707B680533AA221A707B680633AA221A707B68F1
:20CD80000733AA221A700320FFF754FC1037BD4680BD00BF0804002080B584B000AF786038
:20CDA0000123FB732223BB737B681B787B737B6801331B7803F07F033B737B6801331B7893
:20CDC000DBB25BB2002B01DA0023FB73514B93F83430012B02D03123BB7372E03B7B022BE2
:20CDE00002D0042B35D069E04A4B5B8C042B02D01323BB732CE0FF23BB737B689B78FB7244
:20CE0000FB7B012B24D17B7B4033DAB27B681A707B6801333A7B1A707B68023349221A70B6
:20CE20007B680333AA221A707B680433AA221A707B680533AA221A707B680633AA221A7030
:20CE40007B680733AA221A700320FFF7F3FB38E037E0304B5B8C072B02D01323BB732CE053
:20CE6000FF23BB737B689B78FB72FB7B012B24D17B7B4033DAB27B681A707B6801333A7B3A
:20CE80001A707B68023349221A707B680333AA221A707B680433AA221A707B680533AA2235
:20CEA0001A707B680633AA221A707B680733AA221A700320FFF7BEFB03E002E01223BB7309
:20CEC00000BFBB7BFF2B21D07B687F221A707B6801337A7B1A707B680233BA7B1A707B68E4
:20CEE0000333AA221A707B680433AA221A707B680533AA221A707B680633AA221A707B6870
:20CF00000733AA221A700320FFF794FB1037BD4680BD00BF0804002080B586B000AF786075
:20CF20002223FB757B681B78FB747B6801331B789BB21B029AB27B6802331B789BB21344A8
:20CF40003B82B04B5B8C032B02D01323FB7546E23B8A4FF28B12934200F001814FF28B129C
:20CF600093421ADC4FF2821293427FD04FF28212934208DC4FF28012934231D04FF28112E2
:20CF8000934250D028E24FF28612934271D04FF28812934200F093801EE24FF29112934237
:20CFA00000F055814FF2911293420ADC4FF28C12934200F0F7804FF29012934200F01581B3
:20CFC0000AE24FF29812934200F07F81B3F5724F00F0E3814FF29312934200F05781FBE199
:20CFE000FF23FB75FB7C4033DAB27B681A7003233B75854BFB6000237B750DE03B7D7A6821
:20D0000013447A7DF9680A4412781A703B7D01333B757B7D01337B757B7D0E2BEED912201D
:20D02000FFF708FBDBE1FF23FB75FB7C4033DAB27B681A7003233B75744BFB6000237B75C3
:20D040000DE03B7D7A6813447A7DF9680A4412781A703B7D01333B757B7D01337B757B7D88
:20D060000E2BEED91220FFF7E5FAB8E13123FB75B5E1FF23FB75634B93F83430002B02D189
:20D080000123BB750EE05F4B93F83430022B02D10223BB7506E05B4B93F83430012B01D1E7
:20D0A0000323BB75FB7C4033DAB27B681A707B680333BA7D1A700420FFF7BCFA8FE1FF23FB
:20D0C000FB75FB7C4033DAB27B681A7003233B754F4BFB6000237B750DE03B7D7A68134441
:20D0E0007A7DF9680A4412781A703B7D01333B757B7D01337B757B7D072BEED9454BFB60E2
:20D1000000237B750DE03B7D7A6813447A7DF9680A4412781A703B7D01333B757B7D01339C
:20D120007B757B7D072BEED93B4BFB6000237B750DE03B7D7A6813447A7DF9680A4412780C
:20D140001A703B7D01333B757B7D01337B757B7D072BEED93B7D1846FFF76CFA3FE1FF23E8
:20D16000FB75FB7C4033DAB27B681A7003233B752A4BFB6000237B750DE03B7D7A681344C5
:20D180007A7DF9680A4412781A703B7D01333B757B7D01337B757B7D032BEED90720FFF713
:20D1A00049FA1CE1FF23FB75FB7C4033DAB27B681A7003233B751A4BFB6000237B750DE024
:20D1C0003B7D7A6813447A7DF9680A4412781A703B7D01333B757B7D01337B757B7D172BB2
:20D1E000EED91B20FFF726FAF9E0FF23FB75FB7C4033DAB27B681A700A4BFB6000237B7506
:20D200001EE000BF08040020007F000000FC0100107F000020FC010030FC010000000700C9
:20D2200000100700008007007B7D03337A6813447A7DF9680A4412781A707B7D01337B7513
:20D240007B7D102BF0D91420FFF7F4F9C7E0FF23FB75FB7C4033DAB27B681A70744BFB6085
:20D2600000237B750BE07B7D03337A6813447A7DF9680A4412781A707B7D01337B757B7D7B
:20D28000072BF0D90B20FFF7D5F9A8E0FF23FB75FB7C4033DAB27B681A70664BFB60002378
:20D2A0007B750BE07B7D03337A6813447A7DF9680A4412781A707B7D01337B757B7D002B33
:20D2C000F0D00420FFF7B6F989E0FF23FB75FB7C4033DAB27B681A7003233B753B7D7A6877
:20D2E000134401221A703B7D01333B75524BFB6000237B750DE03B7D7A6813447A7DF9684D
:20D300000A4412781A703B7D01333B757B7D01337B757B7D162BEED93B7D7A6813440222DE
:20D320001A703B7D01333B75444BFB6000237B750DE03B7D7A6813447A7DF9680A441278BC
:20D340001A703B7D01333B757B7D01337B757B7D162BEED93B7D7A68134403221A703B7D33
:20D3600001333B75364BFB6000237B750DE03B7D7A6813447A7DF9680A4412781A703B7D8A
:20D3800001333B757B7D01337B757B7D162BEED93B7D1846FFF74EF921E0FF23FB75FB7C30
:20D3A0004033DAB27B681A70264BFB6000237B750BE07B7D03337A6813447A7DF9680A442A
:20D3C00012781A707B7D01337B757B7D002BF0D00420FFF72FF902E01223FB7500BFFB7D3A
:20D3E000FF2B21D07B687F221A707B680133FA7C1A707B680233FA7D1A707B680333AA22EF
:20D400001A707B680433AA221A707B680533AA221A707B680633AA221A707B680733AA2246
:20D420001A700320FFF706F91837BD4680BD00BF00400700002007000050070018500700C8
:20D44000007007000030070080B584B000AF78600123FB732223BB737B681B787B737B68E2
:20D4600001331B7803F07F033B737B6801331B78DBB25BB2002B01DA0023FB73414B93F8D0
:20D480003430012B07D03F4B93F83430022B02D07F23BB734EE03B7B012B02D0022B30D0CE
:20D4A00045E0384B5B8C032B02D01323BB7327E0FF23BB73344B93F8BB30DBB2002B01D0A4
:20D4C000012300E000239AB2304B1A80FB7B012B16D17B7B4033DAB27B681A707B680333C0
:20D4E0002A4A1288120A92B2D2B21A707B680433264A1288D2B21A700520FFF79BF819E0D7
:20D5000018E0204B5B8C052B02D01323BB730DE0FF23BB73FB7B012B08D17B7B4033DAB2AE
:20D520007B681A700520FFF785F803E002E01223BB7300BFBB7BFF2B21D07B687F221A70A0
:20D540007B6801337A7B1A707B680233BA7B1A707B680333AA221A707B680433AA221A707F
:20D560007B680533AA221A707B680633AA221A707B680733AA221A700320FFF75BF81037A2
:20D58000BD4680BD08040020540400206402002080B584B000AF78602223FB730123BB732C
:20D5A0007B681B787B737B6801331B7803F07F033B737B689B78FB727B6801331B78DBB2A0
:20D5C0005BB2002B01DA0023BB73494B93F83430012B07D0464B93F83430022B02D031238E
:20D5E000FB7335E0424B5B8C032B02D01323FB732EE03B7B002B02D0032B13D025E0FB7A44
:20D6000003F00103002B06D0FF23FB73394B002283F8BA201CE03123FB73364B002283F8AB
:20D62000BA2015E0FB7A03F00103002B06D0FF23FB73304B012283F8BA2009E03123FB7380
:20D640002C4B002283F8BA2002E01223FB7300BFFB7BFF2B27D1BB7B012B46D17B7B40331E
:20D66000DAB27B681A707B680133AA221A707B680233AA221A707B680333AA221A707B6884
:20D680000433AA221A707B680533AA221A707B680633AA221A707B680733AA221A70012086
:20D6A000FEF7C8FF21E07B687F221A707B6801337A7B1A707B680233FA7B1A707B680333D9
:20D6C000AA221A707B680433AA221A707B680533AA221A707B680633AA221A707B68073384
:20D6E000AA221A700320FEF7A5FF1037BD4680BD080400205404002080B584B000AF7860FD
:20D700000123BB732223FB737B681B787B737B6801331B7803F07F033B73414B93F8343058
:20D72000012B02D03123FB7329E03D4B5B8C032B03D93B4B5B8C082B02D91323FB731EE08A
:20D740003B7B013B032B17D801A252F823F000BF61D7000067D700006DD7000073D70000F7
:20D76000FF23FB730BE0FF23FB7308E0FF23FB7305E0FF23FB7302E01223FB7300BFFB7BF7
:20D78000FF2B27D1BB7B012B46D17B7B4033DAB27B681A707B680133AA221A707B68023307
:20D7A000AA221A707B680333AA221A707B680433AA221A707B680533AA221A707B680633A7
:20D7C000AA221A707B680733AA221A700120FEF731FF21E07B687F221A707B6801337A7B1F
:20D7E0001A707B680233FA7B1A707B680333AA221A707B680433AA221A707B680533AA22C2
:20D800001A707B680633AA221A707B680733AA221A700320FEF70EFF1037BD4680BD00BF2E
:20D820000804002080B584B000AF78602223FB737B681B78BB737B6801331B789BB21B0261
:20D840009AB27B6802331B789BB21344BB814C4B93F83430012B07D0494B93F83430022BB8
:20D8600002D03123FB7363E0454B5B8C032B02D81323FB735CE0BB894FF2901293424CD05A
:20D880004FF2901293420CDC4FF28B1293422FD04FF28C12934242D04FF28012934215D0E3
:20D8A00038E04FF2931293423BD04FF29312934204DC4FF29112934235D02BE04FF298123B
:20D8C000934232D0B3F5724F31D023E0FF23FB73BB7B4033DAB27B681A707B68033318465B
:20D8E00028490F2205F098FD0320FEF7A3FE1FE0FF23FB73BB7B4033DAB27B681A707B682F
:20D90000033318462049042205F086FD0320FEF791FE0DE01223FB730AE000BF08E000BFE5
:20D9200006E000BF04E000BF02E000BF00E000BFFB7BFF2B21D07B687F221A707B680133A9
:20D94000BA7B1A707B680233FA7B1A707B680333AA221A707B680433AA221A707B680533F7
:20D96000AA221A707B680633AA221A707B680733AA221A700320FEF75DFE1037BD4680BD72
:20D9800008040020EB0000141A00001480B584B000AF78602223FB737B681B78BB737B6804
:20D9A00001331B789BB21B029AB27B6802331B789BB21344BB81B44B93F83430012B03D072
:20D9C0003123FB7301F046BBAF4B5B8C062B03D91323FB7301F03EBBBB89A3F57143803BCC
:20D9E0000C2B01F2348301A252F823F021DA0000BDDB00006DDD000009DF0000B9E00000E8
:20DA000077E2000037E40000F7E50000BFE700006DE9000021EB0000D9EC00008DEE00006E
:20DA20007B6803331B78032B02D93123FB73C3E07B6803331B78002B29D1934B5B8C042B07
:20DA400002D01323FB73B7E0FF23FB737B68DA788E4BDA758D4B5B7DDBB20133DAB28B4BF9
:20DA60005A75BB7B4033DAB27B681A707B680433AA221A707B680533AA221A707B68063338
:20DA8000AA221A700420FEF7D5FD01F0E3BA7B6803331B78012B29D17B4B5B8C042B02D037
:20DAA0001323FB7388E0FF23FB737B68DA78774BDA75764B5B7DDBB20133DAB2734B5A7511
:20DAC000BB7B4033DAB27B681A707B680433AA221A707B680533AA221A707B680633AA22DB
:20DAE0001A700420FEF7A6FD01F0B4BA7B6803331B78022B29D1644B5B8C042B02D01323E1
:20DB0000FB7359E0FF23FB737B68DA785F4BDA755E4B5B7DDBB20133DAB25C4B5A75BB7B26
:20DB20004033DAB27B681A707B680433AA221A707B680533AA221A707B680633AA221A7026
:20DB40000420FEF777FD01F085BA7B6803331B78032B31D14C4B5B8C052B02D01323FB7308
:20DB60002AE07B6804331B78642B02D93123FB7322E0FF23FB737B68DA78444BDA757B683A
:20DB80001A79424B5A76414B5B7DDBB20133DAB23E4B5A75BB7B4033DAB27B681A707B6807
:20DBA0000533AA221A707B680633AA221A700520FEF740FD01F04EBA01F04CBA7B68033305
:20DBC0001B78032B02D93123FB73CDE07B6803331B78002B29D12C4B5B8C042B02D01323D4
:20DBE000FB73C1E0FF23FB737B68DA78274B1A77264B9B7EDBB20133DAB2244B9A76BB7BC2
:20DC00004033DAB27B681A707B680433AA221A707B680533AA221A707B680633AA221A7045
:20DC20000420FEF707FD01F015BA7B6803331B78012B2DD1144B5B8C042B02D01323FB7346
:20DC400092E0FF23FB737B68DA78104B1A770F4B9B7EDBB20133DAB20C4B9A76BB7B4033D1
:20DC6000DAB27B681A707B680433AA221A707B680533AA221A707B680633AA221A70042034
:20DC8000FEF7D8FC01F0E6B908040020540400207B6803331B78022B29D1A54B5B8C042BAE
:20DCA00002D01323FB735FE0FF23FB737B68DA78A04B1A779F4B9B7EDBB20133DAB29D4B36
:20DCC0009A76BB7B4033DAB27B681A707B680433AA221A707B680533AA221A707B68063395
:20DCE000AA221A700420FEF7A5FC01F0B3B97B6803331B78032B37D17B6805331B789BB2DA
:20DD00001B029AB27B6804331B789BB213447B81874B5B8C062B02D01323FB7324E07B89E5
:20DD2000B3F5966F02D93123FB731DE0FF23FB737B68DA787F4B1A777E4A7B89D3837D4B92
:20DD40009B7EDBB20133DAB27A4B9A76BB7B4033DAB27B681A707B680633AA221A7006204E
:20DD6000FEF768FC01F076B901F074B97B6803331B78032B02D93123FB73C3E07B680333D9
:20DD80001B78002B29D16A4B5B8C042B02D01323FB73B7E0FF23FB737B68DA78654BDA7133
:20DDA000644B5B79DBB20133DAB2624B5A71BB7B4033DAB27B681A707B680433AA221A7009
:20DDC0007B680533AA221A707B680633AA221A700420FEF72FFC01F03DB97B6803331B7889
:20DDE000012B29D1524B5B8C042B02D01323FB7388E0FF23FB737B68DA784E4BDA714D4B2B
:20DE00005B79DBB20133DAB24A4B5A71BB7B4033DAB27B681A707B680433AA221A707B688C
:20DE20000533AA221A707B680633AA221A700420FEF700FC01F00EB97B6803331B78022B3C
:20DE400029D13B4B5B8C042B02D01323FB7359E0FF23FB737B68DA78364BDA71354B5B7998
:20DE6000DBB20133DAB2334B5A71BB7B4033DAB27B681A707B680433AA221A707B680533DF
:20DE8000AA221A707B680633AA221A700420FEF7D1FB01F0DFB87B6803331B78032B31D171
:20DEA000234B5B8C052B02D01323FB732AE07B6804331B78642B02D93123FB7322E0FF2360
:20DEC000FB737B68DA781B4BDA717B681A79194B5A72184B5B79DBB20133DAB2154B5A7199
:20DEE000BB7B4033DAB27B681A707B680533AA221A707B680633AA221A700520FEF79AFBEE
:20DF000001F0A8B801F0A6B87B6803331B78032B02D93123FB73CDE07B6803331B78002B66
:20DF20002DD1034B5B8C042B06D01323FB73C1E00804002054040020FF23FB737B68DA78FB
:20DF4000B24B1A73B14B9B7ADBB20133DAB2AF4B9A72BB7B4033DAB27B681A707B68043317
:20DF6000AA221A707B680533AA221A707B680633AA221A700420FEF75DFB01F06BB87B6800
:20DF800003331B78012B29D1A14B5B8C042B02D01323FB738EE0FF23FB737B68DA789B4B01
:20DFA0001A739A4B9B7ADBB20133DAB2974B9A72BB7B4033DAB27B681A707B680433AA2217
:20DFC0001A707B680533AA221A707B680633AA221A700420FEF72EFB01F03CB87B68033394
:20DFE0001B78022B29D18A4B5B8C042B02D01323FB735FE0FF23FB737B68DA78834B1A73A7
:20E00000824B9B7ADBB20133DAB2804B9A72BB7B4033DAB27B681A707B680433AA221A70E8
:20E020007B680533AA221A707B680633AA221A700420FEF7FFFA01F00DB87B6803331B7889
:20E04000032B37D17B6805331B789BB21B029AB27B6804331B789BB213447B816C4B5B8C3B
:20E06000062B02D01323FB7324E07B89B3F5966F02D93123FB731DE0FF23FB737B68DA78E5
:20E08000624B1A73614A7B89D381604B9B7ADBB20133DAB25D4B9A72BB7B4033DAB27B686A
:20E0A0001A707B680633AA221A700620FEF7C2FA00F0D0BF00F0CEBF7B6803331B78032BB7
:20E0C00002D93123FB73D4E07B6803331B78002B2CD14F4B5B8C042B02D01323FB73C8E04D
:20E0E000FF23FB737B68DA78484B83F82720474B93F82530DBB20133DAB2444B83F82520F8
:20E10000BB7B4033DAB27B681A707B680433AA221A707B680533AA221A707B680633AA2294
:20E120001A700420FEF786FA00F094BF7B6803331B78012B2CD1364B5B8C042B02D0132305
:20E14000FB7396E0FF23FB737B68DA782F4B83F827202E4B93F82530DBB20133DAB22B4BBE
:20E1600083F82520BB7B4033DAB27B681A707B680433AA221A707B680533AA221A707B6879
:20E180000633AA221A700420FEF754FA00F062BF7B6803331B78022B2CD11D4B5B8C042B24
:20E1A00002D01323FB7364E0FF23FB737B68DA78164B83F82720154B93F82530DBB20133BC
:20E1C000DAB2124B83F82520BB7B4033DAB27B681A707B680433AA221A707B680533AA229D
:20E1E0001A707B680633AA221A700420FEF722FA00F030BF7B6803331B78032B39D1044BDC
:20E200005B8C052B06D01323FB7332E054040020080400207B6804331B78642B02D931234C
:20E22000FB7326E0FF23FB737B68DA78A54B83F827207B681A79A34B83F82920A14B93F854
:20E240002530DBB20133DAB29E4B83F82520BB7B4033DAB27B681A707B680533AA221A7060
:20E260007B680633AA221A700520FEF7E3F900F0F1BE00F0EFBE7B6803331B78032B02D945
:20E280003123FB73D5E07B6803331B78002B2CD18D4B5B8C042B02D01323FB73C9E0FF2304
:20E2A000FB737B68DA78874B83F82C20854B93F82A30DBB20133DAB2824B83F82A20BB7B58
:20E2C0004033DAB27B681A707B680433AA221A707B680533AA221A707B680633AA221A707F
:20E2E0000420FEF7A7F900F0B5BE7B6803331B78012B2CD1744B5B8C042B02D01323FB73E2
:20E3000097E0FF23FB737B68DA786E4B83F82C206C4B93F82A30DBB20133DAB2694B83F829
:20E320002A20BB7B4033DAB27B681A707B680433AA221A707B680533AA221A707B680633F4
:20E34000AA221A700420FEF775F900F083BE7B6803331B78022B2CD15B4B5B8C042B02D04B
:20E360001323FB7365E0FF23FB737B68DA78554B83F82C20534B93F82A30DBB20133DAB2B8
:20E38000504B83F82A20BB7B4033DAB27B681A707B680433AA221A707B680533AA221A709A
:20E3A0007B680633AA221A700420FEF743F900F051BE7B6803331B78032B3AD17B68053397
:20E3C0001B789BB21B029AB27B6804331B789BB213447B813C4B5B8C062B02D01323FB7392
:20E3E00027E07B89B3F5966F02D93123FB7320E0FF23FB737B68DA78324B83F82C20314A44
:20E400007B89D3852F4B93F82A30DBB20133DAB22C4B83F82A20BB7B4033DAB27B681A7016
:20E420007B680633AA221A700620FEF703F900F011BE00F00FBE7B6803331B78032B02D922
:20E440003123FB73D5E07B6803331B78002B2CD11D4B5B8C042B02D01323FB73C9E0FF23B2
:20E46000FB737B68DA78174B83F83720154B93F83530DBB20133DAB2124B83F83520BB7BC5
:20E480004033DAB27B681A707B680433AA221A707B680533AA221A707B680633AA221A70BD
:20E4A0000420FEF7C7F800F0D5BD7B6803331B78012B31D1044B5B8C042B07D01323FB7348
:20E4C00097E000BF5404002008040020FF23FB737B68DA78A64B83F83720A54B93F83530FA
:20E4E000DBB20133DAB2A24B83F83520BB7B4033DAB27B681A707B680433AA221A707B681D
:20E500000533AA221A707B680633AA221A700420FEF790F800F09EBD7B6803331B78022B36
:20E520002CD1944B5B8C042B02D01323FB7360E0FF23FB737B68DA788D4B83F837208C4BED
:20E5400093F83530DBB20133DAB2894B83F83520BB7B4033DAB27B681A707B680433AA2252
:20E560001A707B680533AA221A707B680633AA221A700420FEF75EF800F06CBD7B6803338D
:20E580001B78032B35D17B4B5B8C052B02D01323FB732EE07B6804331B78642B02D93123E8
:20E5A000FB7326E0FF23FB737B68DA78704B83F837207B681A796E4B83F839206C4B93F850
:20E5C0003530DBB20133DAB2694B83F83520BB7B4033DAB27B681A707B680533AA221A70F2
:20E5E0007B680633AA221A700520FEF723F800F031BD00F02FBD7B6803331B78032B02D905
:20E600003123FB73D9E07B6803331B78002B2CD1584B5B8C042B02D01323FB73CDE0FF23AD
:20E62000FB737B68DA78524B83F83C20504B93F83A30DBB20133DAB24D4B83F83A20BB7B43
:20E640004033DAB27B681A707B680433AA221A707B680533AA221A707B680633AA221A70FB
:20E660000420FDF7E7FF00F0F5BC7B6803331B78012B2CD13F4B5B8C042B02D01323FB7310
:20E680009BE0FF23FB737B68DA78394B83F83C20374B93F83A30DBB20133DAB2344B83F821
:20E6A0003A20BB7B4033DAB27B681A707B680433AA221A707B680533AA221A707B68063361
:20E6C000AA221A700420FDF7B5FF00F0C3BC7B6803331B78022B2CD1264B5B8C042B02D07A
:20E6E0001323FB7369E0FF23FB737B68DA78204B83F83C201E4B93F83A30DBB20133DAB27B
:20E700001B4B83F83A20BB7B4033DAB27B681A707B680433AA221A707B680533AA221A703B
:20E720007B680633AA221A700420FDF783FF00F091BC7B6803331B78032B3ED17B6805338C
:20E740001B789BB21B029AB27B6804331B789BB213447B81074B5B8C062B02D01323FB7343
:20E760002BE07B89B3F5966F06D93123FB7324E05404002008040020FF23FB737B68DA78CF
:20E78000AF4B83F83C20AE4A7B89D387AC4B93F83A30DBB20133DAB2A94B83F83A20BB7B1A
:20E7A0004033DAB27B681A707B680633AA221A700620FDF73FFF00F04DBC00F04BBC7B6850
:20E7C00003331B78032B02D93123FB73CDE07B6803331B78002B2CD19A4B5B8C042B02D057
:20E7E0001323FB73C1E0FF23FB737B68DA78944B83F84720924B93F84530DBB20133DAB224
:20E800008F4B83F84520BB7B4033DAB27B681A707B680433AA221A707B680533AA221A70BB
:20E820007B680633AA221A700420FDF703FF00F011BC7B6803331B78012B2BD1814B5B8C08
:20E84000042B02D01323FB738FE0FF23FB737B68DA787B4B83F84720794B93F84530DBB2E6
:20E860000133DAB2764B83F84520BB7B4033DAB27B681A707B680433AA221A707B6805330A
:20E88000AA221A707B680633AA221A700420FDF7D1FEDFE37B6803331B78022B2BD1694B7E
:20E8A0005B8C042B02D01323FB735EE0FF23FB737B68DA78624B83F84720614B93F845308E
:20E8C000DBB20133DAB25E4B83F84520BB7B4033DAB27B681A707B680433AA221A707B686D
:20E8E0000533AA221A707B680633AA221A700420FDF7A0FEAEE37B6803331B78032B34D1F2
:20E90000504B5B8C052B02D01323FB732DE07B6804331B78642B02D93123FB7325E0FF23C2
