S012000043414E4F4F5F694C444D2E73726563FD
S213007F000000000000000000000000000000006D
S20C007F10000000000000000064
S214008000F06F002011840000851D01008D1D010009
S214008010AD1D0100B51D0100BD1D010000000000E2
S214008020000000000000000000000000C51D010068
S214008030CD1D010000000000D51D0100DD1D010062
S214008040E91D0100F11D0100F91D0100011E0100DE
S214008050091E0100111E0100191E0100211E01004B
S214008060291E0100311E0100391E0100411E0100BB
S214008070491E0100511E0100591E0100611E01002B
S214008080691E0100711E0100791E0100811E01009B
S214008090891E0100911E0100991E0100A11E01000B
S2140080A0A91E0100B11E0100B91E0100C11E01007B
S2140080B0C91E0100D11E0100D91E0100E11E0100EB
S2140080C0E91E0100F11E01001D1F0100251F010011
S2140080D02D1F0100351F01003D1F0100451F010037
S2140080E0511F0100591F0100611F0100691F010097
S2140080F0711F0100791F0100811F0100891F010007
S214008100911F0100A91F0100B11F0100B91F010046
S214008110C11F0100C91F0100D11F0100D91F0100A6
S214008120E11F0100E91F0100F11F0100F91F010016
S2140081300120010009200100112001001920010082
S214008140152101001D210100252101002D2101001E
S214008150352101003D210100452101004D2101008E
S214008160552101005D210100652101006D210100FE
S214008170752101007D210100852101008D2101006E
S214008180952101009D2101001922010021220100F4
S2140081902922010031220100452201005922010056
S2140081A061220100DD220100E5220100ED2201002E
S2140081B0F5220100FD220100052301000D23010028
S2140081C0152301001D230100252301002D23010096
S2140081D0352301003D230100452301004D23010006
S2140081E0552301005D230100652301006D23010076
S2140081F0752301007D230100852301008D230100E6
S214008200952301009D230100A5230100AD23010055
S214008210B5230100BD230100C5230100CD230100C5
S214008220D5230100DD230100E52301005184000071
S21400823051840000518400005184000051840000E5
S21400824051840000518400005184000051840000D5
S21400825051840000518400005184000051840000C5
S21400826051840000518400005184000051840000B5
S21400827051840000518400005184000051840000A5
S2140082805184000051840000518400005184000095
S2140082905184000051840000518400005184000085
S2140082A05184000051840000518400005184000075
S2140082B05184000051840000518400005184000065
S2140082C05184000051840000518400005184000055
S2140082D05184000051840000518400005184000045
S2140082E05184000051840000518400005184000035
S2140082F05184000051840000518400005184000025
S2140083005184000051840000518400005184000014
S2140083105184000051840000518400005184000004
S21400832051840000518400005184000051840000F4
S21400833051840000518400005184000051840000E4
S21400834051840000518400005184000051840000D4
S21400835051840000518400005184000051840000C4
S21400836051840000518400005184000051840000B4
S21400837051840000518400005184000051840000A4
S2140083805184000051840000518400005184000094
S2140083905184000051840000518400005184000084
S2140083A05184000051840000518400005184000074
S2140083B05184000051840000518400005184000064
S2140083C05184000051840000518400005184000054
S2140083D05184000051840000518400005184000044
S2140083E05184000051840000518400005184000034
S2140083F0518400005184000051840000FFFFFFFFFD
S214008400FFFFFFFFFFFFFFFFFFFFFFFFFE7FFFFFF8
S21400841072B60B490A4A0A4B094C094D084E084FDA
S214008420B846B946BA46BB46BC46064885460648E0
S21400843080470648804762B60CF0C4FAFEE70000A4
S21400844000000000F06F00204D450100D1480100FB
S214008450FFF7FEBF81F0004102E000BF83F000435B
S21400846030B54FEA41044FEA430594EA050F08BFCA
S21400847090EA020F1FBF54EA000C55EA020C7FEA8E
S214008480645C7FEA655C00F0E2804FEA5454D4EB0B
S2140084905555B8BF6D420CDD2C4480EA020281EAD5
S2140084A0030382EA000083EA010180EA020281EA0D
S2140084B00303362D88BF30BD11F0004F4FEA01315F
S2140084C04FF4801C4CEA113102D0404261EB41016E
S2140084D013F0004F4FEA03334CEA133302D05242F4
S2140084E063EB430394EA050F00F0A780A4F10104B0
S2140084F0D5F1200E0DDB02FA0EFC22FA05F28018EA
S21400850041F1000103FA0EF2801843FA05F35941CF
S2140085100EE0A5F120050EF1200E012A03FA0EFC4E
S21400852028BF4CF0020C43FA05F3C01851EBE37178
S21400853001F0004507D54FF0000EDCF1000C7EEB95
S21400854000006EEB0101B1F5801F1BD3B1F5001FD3
S2140085500CD349085FEA30004FEA3C0C04F10104F2
S2140085604FEA445212F5800F80F09A80BCF1004F1B
S21400857008BF5FEA500C50F1000041EB045141EA9D
S214008580050130BD5FEA4C0C404141EB010111F49E
S214008590801FA4F10104E9D191F0000F04BF014649
S2140085A00020B1FA81F308BF2033A3F10B03B3F127
S2140085B020020CDA0C3208DD02F1140CC2F10C02B7
S2140085C001FA0CF021FA02F10CE002F11402D8BF15
S2140085D0C2F1200C01FA02F120FA0CFCDCBF41EAE1
S2140085E00C019040E41AA2BF01EB0451294330BDB0
S2140085F06FEA04041F3C1CDA0C340EDC04F114048D
S214008600C4F1200220FA04F001FA02F340EA030063
S21400861021FA04F345EA030130BDC4F10C04C4F1A9
S214008620200220FA02F001FA04F340EA0300294689
S21400863030BD21FA04F0294630BD94F0000F83F4D3
S214008640801306BF81F480110134013D4EE77FEAB6
S214008650645C18BF7FEA655C29D094EA050F08BF02
S21400866090EA020F05D054EA000C04BF19461046E3
S21400867030BD91EA030F1EBF0021002030BD5FEA27
S214008680545C05D14000494128BF41F0004130BD4F
S21400869014F580043CBF01F5801130BD01F00045A3
S2140086A045F0FE4141F470014FF0000030BD7FEA16
S2140086B0645C1ABF194610467FEA655C1CBF0B4611
S2140086C0024650EA013406BF52EA033591EA030F28
S2140086D041F4002130BD00BF90F0000F04BF002120
S2140086E0704730B54FF4806404F132044FF0000553
S2140086F04FF0000150E700BF90F0000F04BF0021CC
S214008700704730B54FF4806404F1320410F0004531
S21400871048BF40424FF000013EE700BF42004FEA2C
S214008720E2014FEA31014FEA02701FBF12F07F43A9
S21400873093F07F4F81F06051704792F0000F14BFA6
S21400874093F07F4F704730B54FF4607401F00045EA
S21400875021F0004120E700BF50EA010208BF704741
S21400876030B54FF000050AE050EA010208BF704736
S21400877030B511F0004502D5404261EB41014FF49F
S214008780806404F132045FEA915C3FF4DCAE4FF0A3
S21400879003025FEADC0C18BF03325FEADC0C18BF8A
S2140087A0033202EBDC02C2F1200300FA03FC20FADB
S2140087B002F001FA03FE40EA0E0021FA02F1144428
S2140087C0C1E600BF70B54FF0FF0C4CF4E06C1CEA3D
S2140087D011541DBF1CEA135594EA0C0F95EA0C0FB2
S2140087E000F0DEF82C4481EA030621EA4C5123EA25
S2140087F04C5350EA013518BF52EA033541F4801154
S21400880043F4801338D0A0FB02CE4FF00005E1FB06
S21400881002E506F00042E0FB03E54FF00006E1FB50
S21400882003569CF0000F18BF4EF0010EA4F1FF0493
S214008830B6F5007F64F5407404D25FEA4E0E6D41D3
S21400884046EB060642EAC62141EA55514FEAC520E4
S21400885040EA5E504FEACE2EB4F1FD0C88BFBCF560
S214008860E06F1ED8BEF1004F08BF5FEA500E50F111
S214008870000041EB045170BD06F0004646EA0101D7
S21400888040EA020081EA0301B4EB5C04C2BFD4EB09
S2140088900C0541EA045170BD41F480114FF0000E02
S2140088A0013C00F3AB8014F1360FDEBF002001F070
S2140088B0004170BDC4F10004203C35DA0C341BDCEA
S2140088C004F11404C4F1200500FA05F320FA04F0BC
S2140088D001FA05F240EA020001F0004221F00041F0
S2140088E010EBD37021FA04F642EB06015EEA430E63
S2140088F008BF20EAD37070BDC4F10C04C4F1200593
S21400890000FA04F320FA05F001FA04F240EA020045
S21400891001F0004110EBD37041F100015EEA430E16
S21400892008BF20EAD37070BDC4F1200500FA05F236
S2140089304EEA020E20FA04F301FA05F243EA0203B5
S21400894021FA04F001F0004121FA04F220EA0200C4
S21400895000EBD3705EEA430E08BF20EAD37070BD0A
S21400896094F0000F0FD101F00046400041EB0101EA
S21400897011F4801F08BF013CF7D041EA060195F0CC
S214008980000F18BF704703F00046520043EB030386
S21400899013F4801F08BF013DF7D043EA0603704773
S2140089A094EA0C0F0CEA135518BF95EA0C0F0CD07E
S2140089B050EA410618BF52EA4306D1D181EA0301C4
S2140089C001F000414FF0000070BD50EA410606BFBE
S2140089D01046194652EA430619D094EA0C0F02D103
S2140089E050EA013613D195EA0C0F05D152EA033648
S2140089F01CBF104619460AD181EA030101F0004166
S214008A0041F0FE4141F470014FF0000070BD41F0AE
S214008A10FE4141F4780170BD70B54FF0FF0C4CF488
S214008A20E06C1CEA11541DBF1CEA135594EA0C0FA7
S214008A3095EA0C0F00F0A7F8A4EB050481EA030EF4
S214008A4052EA03354FEA013100F088804FEA0333DB
S214008A504FF0805545EA131343EA12634FEA0222A9
S214008A6045EA111545EA10654FEA00260EF000416A
S214008A709D4208BF964244F1FD0404F5407402D2BC
S214008A805B084FEA3202B61A65EB03055B084FEA4D
S214008A9032024FF480104FF4002CB6EB020E75EB4A
S214008AA0030E22BFB61A754640EA0C005B084FEA72
S214008AB03202B6EB020E75EB030E22BFB61A7546EF
S214008AC040EA5C005B084FEA3202B6EB020E75EB3A
S214008AD0030E22BFB61A754640EA9C005B084FEAB2
S214008AE03202B6EB020E75EB030E22BFB61A7546BF
S214008AF040EADC0055EA060E18D04FEA051545EAAE
S214008B0016754FEA06164FEAC30343EA52734FEA56
S214008B10C2025FEA1C1CC0D111F4801F0BD141EACF
S214008B2000014FF000004FF0004CB6E711F4801F34
S214008B3004BF01430020B4F1FD0C88BFBCF5E06F14
S214008B403FF6AFAEB5EB030C04BFB6EB020C5FEA24
S214008B50500C50F1000041EB045170BD0EF0004E79
S214008B604EEA113114EB5C04C2BFD4EB0C0541EAAB
S214008B70045170BD41F480114FF0000E013C90E6A8
S214008B8045EA060E8DE60CEA135594EA0C0F08BF6C
S214008B9095EA0C0F3FF43BAF94EA0C0F0AD150EA6B
S214008BA001347FF434AF95EA0C0F7FF425AF1046FE
S214008BB019462CE795EA0C0F06D152EA03353FF426
S214008BC0FDAE1046194622E750EA410618BF52EAA3
S214008BD043067FF4C5AE50EA41047FF40DAF52EA77
S214008BE043057FF4EBAE12E74A0011D212F50012ED
S214008BF011D20DD56FF47873B3EB62520ED44FEAF0
S214008C00C12343F0004343EA505323FA02F070476F
S214008C104FF00000704750EA013002D14FF0FF30AD
S214008C2070474FF00000704780B485B000AFF86022
S214008C30B9607A60BB681A68BB6819687B681B688D
S214008C40B1FBF3F3D21ABB681A60BB681A68FB68FC
S214008C501B681A44BB681A60BB681A687B681B6886
S214008C60B2FBF3F39BB218461437BD465DF8047B9F
S214008C70704700BF80B582B000AFA44B00225A7088
S214008C80A24B00229A70A14B03221A700023FB808D
S214008C901CE06A46FB88C3F1FF2303F57F039B00B5
S214008CA013449B4A1A606946FA889A4B9B1A9B00A3
S214008CB00B44974A1A606946FA88974B9B1A9B00A2
S214008CC00B44934A1A60FB880133FB80FB88032B16
S214008CD0DFD906F07BFB914A904B5B6843F48073C8
S214008CE053608F4B4FF08042C3F834218D4A8D4B32
S214008CF01B6A23F4E06313628A4A8A4B1B6A43F4B6
S214008D0080731362854A854B5B6943F480735361B5
S214008D10834B4FF08042C3F83421824A814B5B6A12
S214008D2023F4E06353627F4A7E4B5B6A43F48073AE
S214008D3053627A4A794B5B6923F4007353617A4A2B
S214008D40794B5B6843F400535360754B4FF0804299
S214008D50C3F82421754A754B5B6B23F4E0635363B9
S214008D60724A724B5B6B43F4807353636E4A6E4B6E
S214008D705B6943F4005353616D4A6D4B9B6843F443
S214008D8080739360664B4FF08042C3F82C21694A8B
S214008D90684B1B6A23F4E0631362664A654B1B6AE2
S214008DA043F480731362624A614B5B6943F48073D9
S214008DB053615B4B4FF08042C3F83421594A594BFC
S214008DC01B6923F4E0631361564A564B1B6943F450
S214008DD080731361514A514B5B6923F01003536152
S214008DE0554A554B5B6843F4004353604C4B4FF079
S214008DF08042C3F83021514A504BDB6B23F4E063CA
S214008E00D3634E4A4D4BDB6B43F48073D3634A4ABD
S214008E10494B5B6943F400435361414B4FF080423A
S214008E20C3F82421414A414B1B6823F4E0631360D6
S214008E303B4B4FF08042C3F824213C4A3B4B5B68D7
S214008E4023F4E0635360364B4FF08042C3F828218A
S214008E503B4A3B4B5B6823F4E0635360304B4FF078
S214008E608042C3F82821364A354B5B6B23F4E06317
S214008E7053632B4B4FF08042C3F82C212D4A2D4BC9
S214008E809B6B23F4E0639363254B4FF08042C3F85B
S214008E902C21284A274B5B6823F4E0635360204B61
S214008EA04FF08042C3F82821254A254B1B6823F43F
S214008EB0E06313604FF4C8700AF0DEFA0AF04EFB67
S214008EC000200AF0A5FB4FF4C8700AF0D5FB0AF0A4
S214008ED045FC00200AF09CFC4FF4C8700AF0CCFC5D
S214008EE00AF03EFD00200AF095FD0AF0C7FD0020BE
S214008EF00AF01EFE08F0DEFB06F05CFB09F076FAD0
S214008F0000F0F8FE0837BD4680BD00BF0000002018
S214008F10DEC0ADDE00FEFFFF00FDFFFF00F10F40EC
S214008F200050064000D0044000F00F40009004407F
S214008F3080F00F4000B00440C0F00F4000C0044076
S214008F4000A0044080B582B000AF0023FB80002361
S214008F507B712EE06A467B79C3F1FF2303F57F031E
S214008F609B0013441B68A24A934203D0FB8843F03D
S214008F700103FB8069467A799E4B9B1A9B000B4443
S214008F801B689B4A934203D0FB8843F01003FB8088
S214008F9069467A79984B9B1A9B000B441B68944A47
S214008FA0934203D0FB8843F48073FB807B790133C4
S214008FB07B717B79032BCDD9FB88002B00D000BFBB
S214008FC009F06EFA8D4B1B881A464EF68C3303FB5F
S214008FD002F38B4AA2FB03235B0BFB80894AFB88C8
S214008FE0A2F8C630FB88884A936088488649884A33
S214008FF0FFF71AFE03461A46824BA3F8C8207F4B9B
S2140090005B881B09FB80FB88FE2B01D9FE23FB80B7
S214009010FB88804A32F813207A4BA3F8BE20774BA1
S2140090205B8A1B09FB80FB88FE2B01D9FE23FB8095
S214009030FB88784A32F81320724BA3F8C2206F4B95
S2140090401B8BFB806D4B5B891B09FB80FB88FE2B13
S21400905001D9FE23FB80FB886E4A32F81320694B49
S214009060A3F8C020654B1B8AFB806B4B1B6903F47F
S2140090700073002B04D1634B002283F8BC2003E06E
S214009080604B012283F8BC20644B93F83430022BEB
S2140090900ED1634BA5221A70614BA5225A70604B05
S2140090A0A5229A705E4BA522DA7008F05BFCFEE7FC
S2140090B001F0B0F906F014FC03F0B0FC0346012BF7
S2140090C005D001F077FB0346B3F57A6F02D3022092
S2140090D00BF084FB4B4BB3F8B2309BB2002B10D096
S2140090E0484BB3F8B2309BB2013B9AB2454BA3F85B
S2140090F0B220444BB3F8B2309BB2002B01D10BF038
S2140091003DFA404BB3F8B4309BB2002B10D03D4B29
S214009110B3F8B4309BB2013B9AB23A4BA3F8B420F2
S214009120384BB3F8B4309BB2002B01D108F01AFCD0
S214009130344BB3F8C8309BB242F2273293420AD976
S214009140304BB3F8C8309BB2B3F57A5F03D8354BD3
S21400915001221A7012E02B4BB3F8C8309BB242F2D1
S2140091603312934207D9274BB3F8C8309BB244F268
S2140091707402934202D92B4B00221A70214B93F8AB
S214009180C430DBB2012B18D11E4B93F8BC30DBB2D7
S214009190012B12D1234B1B78012B0ED103F032FC8E
S2140091A00346022B09D1002001F0E8FA0346B3F586
S2140091B0FA6F02D200F012FA02E1002001F0DEFAA5
S2140091C00346B3F5FA6FC0F0D780174B1B78042B15
S2140091D000F2D08001A252F823F000BF7593000081
S2140091E02D9200002D920000D5920000D59200002E
S2140091F0DEC0ADDE00FEFFFF00FDFFFF28050020FD
S214009200E73BAE9D540400200084FF1F0884FF1F28
S2140092100484FF1FE049010000F10F40080400200D
S214009220F06F00200300002024050020664B5B78CA
S214009230DBB2012B04D0644B5B7CDBB2012B24D168
S2140092406420042100F068FC6420032100F064FC24
S2140092500020002100F060FC0020012100F05CFCF2
S2140092600020022100F058FC0020092100F054FCE8
S2140092700020072100F050FC0020052100F04CFCE7
S2140092800020082100F048FC75E00020002100F0D6
S21400929043FC0020012100F03FFC0020022100F0EA
S2140092A03BFC0020092100F037FC0020072100F0DD
S2140092B033FC0020052100F02FFC0020082100F0E0
S2140092C02BFC0020032100F027FC0020042100F0E6
S2140092D023FC50E03C4B93F89130DBB2012B24D1B9
S2140092E00A20092100F018FC0020002100F014FCE0
S2140092F00020012100F010FC0020022100F00CFCF0
S2140093000020072100F008FC0020052100F004FCE6
S2140093100020082100F000FC0020032100F0FCFBE8
S2140093200020042100F0F8FB25E00020002100F0DA
S214009330F3FB0020012100F0EFFB0020022100F0EB
S214009340EBFB0020092100F0E7FB0020072100F0DE
S214009350E3FB0020052100F0DFFB0020082100F0E1
S214009360DBFB0020032100F0D7FB0020042100F0E7
S214009370D3FB00E000BF23E00020002100F0CCFB80
S2140093800020012100F0C8FB0020022100F0C4FBF1
S2140093900020092100F0C0FB0020072100F0BCFBE4
S2140093A00020052100F0B8FB0020082100F0B4FBE7
S2140093B00020032100F0B0FB0020042100F0ACFBED
S2140093C00837BD4680BD00BF5404002080B582B07B
S2140093D000AF09F065F8564B1B89FB80554B1B7890
S2140093E0032B00F2A08001A252F823F0FD930000A8
S2140093F027940000359400001B9500004E4B1B88F8
S21400940001339AB24C4B1A804B4B1B88642B09D9FC
S214009410494B00221A80474B1B780133DAB2454B82
S2140094201A7081E080E0434B1B780133DAB2414B7F
S2140094301A7079E0FB8840F6D762934216D9FB880B
S21400944041F28832934211D83C4B01221A703C4BB1
S2140094504FF4E662A3F8B620394B40F23172A3F817
S214009460B820374B032283F8BB204BE0FB8840F63E
S2140094702722934216D9FB8840F67462934211D88D
S2140094802E4B02221A702E4B4FF4E862A3F8B62039
S2140094902B4B40F24172A3F8B820294B042283F8E4
S2140094A0BB202FE0FB8840F21352934215D9FB886D
S2140094B0B3F5166F11D8214B03221A70204B4FF4C8
S2140094C0EA62A3F8B6201E4B40F25172A3F8B82009
S2140094D01B4B052283F8BB2014E0FB88B3F5966F80
S2140094E010D8164B04221A70154B4FF4F862A3F8E6
S2140094F0B620134B40F2C172A3F8B820104B0C22D2
S21400950083F8BB200E4AFB88A2F8CE30094B1B78A6
S2140095100133DAB2074B1A7006E008F0FFF90120B3
S2140095200BF05CF900E000BF0837BD4680BD00BF09
S2140095302805002004000020060000202405002046
S2140095405404002080B500AF224B1B78012B35D089
S214009550022B3CD0002B00D03AE00020002100F087
S214009560DBFA0020012100F0D7FA0020022100F0EB
S214009570D3FA0020092100F0CFFA0020072100F0DE
S214009580CBFA0020052100F0C7FA0020082100F0E1
S214009590C3FA0020032100F0BFFA0020042100F0E7
S2140095A0BBFA0D4A0C4B9B6843F480739360094BDF
S2140095B01B780133DAB2074B1A7009E008F0C0F9DD
S2140095C0044B1B780133DAB2024B1A7000E000BF7E
S2140095D080BD00BF0800002000F10F4080B582B0BB
S2140095E000AF012000F054F8002000F051F80220EF
S2140095F000F04EF8032000F04BF8042000F048F886
S214009600052000F045F8072000F042F8082000F09A
S2140096103FF8092000F03CF80023FB7127E0FB79B7
S2140096201A4A1B0113441B78DBB2032B1CD0FB79B0
S214009630164A1B0113441B78DBB2002B06D1FB79BC
S214009640124A1B01134400225A700DE0FB790F4AA0
S2140096501B0113441B78DBB2012B05D1FB790B4AA7
S2140096601B01134401225A70FB790133FB71FB790D
S2140096700A2BD4D900F056F800F0ECF800F02CF9DC
S21400968000F0C0F90837BD4680BD00BF5404002076
S21400969080B582B000AF0346FB71FB790A2B3CD83D
S2140096A0FB791F4A1B0113445B79DAB2FB791C492C
S2140096B01B010B449B79DBB29A422ED0FB79FA79D8
S2140096C0174912010A445279D1B2154A1B011344B4
S2140096D00A469A71FB79124A1B011344DB79DBB206
S2140096E0012B1AD0FB790E4A1B011344DB79DBB23F
S2140096F0022B12D0FB790A4A1B011344DB79DBB23A
S214009700032B0AD1FB79064A1B0113445B7ADAB2B3
S214009710FB791046194600F0FFF90837BD4680BDB4
S2140097205404002080B582B000AF0023FB710023F4
S214009730BB7100237B7100233B71454B5B7CDBB226
S214009740012B0ED1424BDB7DDBB2002B01D1012376
S214009750FB713F4BDB79DBB2002B27D10123BB71BA
S21400976024E03B4B5B7CDBB2002B1FD1384BDB7D10
S214009770DBB2002B01D10023FB71354B5B78DBB2EB
S214009780002B07D1324BDB79DBB2002B0ED1002346
S214009790BB710BE02E4B5B78DBB2012B06D12C4B5A
S2140097A0DB79DBB2002B01D10123BB71284BB3F868
S2140097B0C0309BB29BB24B2B04D864237B716423CE
S2140097C03B7127E0224BB3F8C0309BB29BB25E2BB6
S2140097D004D946237B7146233B711BE01C4BB3F830
S2140097E0C0309BB21AB213465B001344E13B5B08E1
S2140097F0DBB2C3F164037B71154BB3F8C0309BB288
S2140098001AB213465B001344E13B5B08DBB2C3F1BC
S21400981064033B71FB79012B05D17B791846012146
S21400982000F07AF903E00020012100F075F9BB7919
S214009830012B05D13B791846002100F06DF903E0B5
S2140098400020002100F068F90837BD4680BD00BF43
S2140098505404002080B500AF1D4B93F84730DBB2B0
S214009860002B14D11A4B93F84130DBB2002B04D1F5
S2140098700020042100F050F909E0154B93F8413020
S214009880DBB2012B03D16420042100F045F9114B13
S2140098901B6903F01003002B04D00D4B022283F843
S2140098A0442014E00A4B93F84130DBB2002B04D17D
S2140098B0074B002283F8442009E0054B93F841301B
S2140098C0DBB2012B03D1024B012283F8442080BD7A
S2140098D05404002000F10F4080B500AF484B93F8C9
S2140098E05130DBB2012B42D1454B93F86130DBB2ED
S2140098F0012B0AD1424B93F85730DBB2002B14D120
S2140099006420052100F008F90FE03D4B93F8613024
S214009910DBB2002B09D13A4B93F85730DBB2002B61
S21400992003D10020052100F0F7F8354B93F82130DD
S214009930DBB2012B0AD1324B93F82730DBB2002B77
S2140099405DD10A20022100F0E7F858E02C4B93F88E
S2140099502130DBB2002B52D1294B93F82730DBB2F3
S214009960002B4CD10020022100F0D6F847E0244B13
S21400997093F85130DBB2002B41D1214B93F857308E
S214009980DBB2002B03D10020052100F0C5F81C4BEC
S21400999093F82130DBB2012B0AD1194B93F827300C
S2140099A0DBB2002B2BD10A20022100F0B5F826E00E
S2140099B0134B93F82130DBB2002B20D1104B93F8D9
S2140099C03130DBB2012B0AD10D4B93F83730DBB2C6
S2140099D0002B14D16420032100F09EF80FE0084B02
S2140099E093F83130DBB2002B09D1054B93F83730B2
S2140099F0DBB2002B03D10020032100F08DF880BDE0
S214009A005404002080B500AF424B93F88130DBB29F
S214009A10012B38D13F4B93F86130DBB2012B0AD1D2
S214009A203C4B93F88730DBB2002B72D164200821C0
S214009A3000F072F86DE0374B93F86130DBB2002B24
S214009A4067D1344B93F89130DBB2012B0AD1314BFE
S214009A5093F89730DBB2002B5BD10A20092100F087
S214009A605BF856E02B4B93F89130DBB2002B50D1CD
S214009A70284B93F89730DBB2002B4AD100200921FF
S214009A8000F04AF845E0234B93F88130DBB2002B18
S214009A903FD1204B93F87130DBB2012B0AD11D4B1E
S214009AA093F87730DBB2002B33D16420072100F027
S214009AB033F82EE0174B93F89130DBB2012B0AD126
S214009AC0144B93F89730DBB2002B22D10A200921E1
S214009AD000F022F81DE00F4B93F88730DBB2002B26
S214009AE017D10C4B93F89730DBB2002B11D1094BF2
S214009AF093F87730DBB2002B0BD10020092100F061
S214009B000BF80020072100F007F80020082100F0DD
S214009B1003F880BD5404002080B582B000AF034631
S214009B200A46FB711346BB71BB79092B00F2D9803C
S214009B3001A252F823F000BF619B00007F9B00004B
S214009B409D9B0000C79B0000F19B00002B9C000023
S214009B50E39C00004D9C00007F9C0000B19C000030
S214009B60624BDB78DBB2FA799A4207D05F4AFB7920
S214009B70D370FB79184609F0DBFFB3E0B2E05B4B2D
S214009B80DB7CDBB2FA799A4207D0584AFB79D37469
S214009B90FB79184609F03CFDA4E0A3E0534B93F88C
S214009BA02330DBB2FA799A420CD0504AFB7982F81D
S214009BB023304E4AFB7982F83330FB79184609F099
S214009BC027FE8FE08EE0494B93F83330DBB2FA790C
S214009BD09A420CD0454AFB7982F83330434AFB79E7
S214009BE082F82330FB79184609F012FE7AE079E015
S214009BF03E4B93F84330DBB2FA799A4214D03B4A94
S214009C00FB7982F84330FB79002B06D1384A384B73
S214009C109B6843F48073936006E0354A344B5B6878
S214009C2043F4807353605DE05CE0304B93F8533050
S214009C30DBB2FA799A4208D02C4AFB7982F8533084
S214009C40FB79184609F0E6FE4CE04BE0274B93F80C
S214009C507330DBB2FA799A4210D0244AFB7982F844
S214009C607330224AFB7982F89330204AFB7982F8D7
S214009C708330FB79184609F0CBFD33E032E01B4B0E
S214009C8093F88330DBB2FA799A4210D0174AFB7900
S214009C9082F88330154AFB7982F89330134AFB79B1
S214009CA082F87330FB79184609F0B2FD1AE019E025
S214009CB00E4B93F89330DBB2FA799A4210D00B4AE7
S214009CC0FB7982F89330094AFB7982F88330074A99
S214009CD0FB7982F87330FB79184609F099FD01E0AC
S214009CE000E000BF0837BD4680BD00BF540400201A
S214009CF080F00F4080B582B000AF0C4B00221A7087
S214009D000A4B01225A70094B01229A700023FB71FC
S214009D102EE0FA79064913465B001344DB000B4439
S214009D2000221A700023BB711CE000BF0C0000204C
S214009D30BC000020FA79B979C34813465B00134487
S214009D40DB0003440B4408330022DA71FA79BE497B
S214009D5013465B001344DB000B4400221A70BB79E9
S214009D600133BB71BB79072BE4D9FB790133FB7157
S214009D70FB790B2BCDD9B44B40F231329A60B24B03
S214009D8002221A73B04B00229A73AF4B00225A730A
S214009D90AD4B64225A80AC4B01229A80AA4B4FF6F8
S214009DA0FF72DA80A84B0022DA73A74B11221A74CE
S214009DB0A54B22225A74A44B33229A74A24B4422F7
S214009DC0DA74A14B55221A759F4B66225A759E4B24
S214009DD077229A759C4B40F23F621A629A4B082291
S214009DE083F82420984B002283F82620964B0022E6
S214009DF083F82520944B4FF4FA725A83924B022232
S214009E009A83914B4FF6FF72DA838F4B002283F8CA
S214009E1027208D4B112283F828208B4B222283F893
S214009E202920894B332283F82A20874B442283F843
S214009E302B20854B552283F82C20834B662283F8F3
S214009E402D20814B772283F82E207F4B40F23172F3
S214009E509A637D4B082283F83C207B4B002283F8D4
S214009E603E20794B002283F83D20774B4FF4FA7260
S214009E705A86754B01229A86734B0122DA86724BFC
S214009E80002283F83F20704B112283F840206E4B4F
S214009E90222283F841206C4B332283F842206A4BFF
S214009EA0442283F84320684B552283F84420664BAF
S214009EB0662283F84520644B772283F84620624B5F
S214009EC040F241321A65604B022283F854205E4B02
S214009ED0002283F856205C4B002283F855205A4B0C
S214009EE06422A3F84A20584B0122A3F84C20564B74
S214009EF04FF6FF72A3F84E20534B002283F85720EC
S214009F00514B112283F858204F4B222283F85920B8
S214009F104D4B332283F85A204B4B442283F85B2068
S214009F20494B552283F85C20474B662283F85D2018
S214009F30454B772283F85E20434B40F24F629A6689
S214009F40414B082283F86C203F4B002283F86E209A
S214009F503D4B002283F86D203B4B4FF4FA72A3F87A
S214009F606220394B0222A3F86420374B4FF6FF726B
S214009F70A3F86620344B002283F86F20324B112260
S214009F8083F87020304B222283F871202E4B332228
S214009F9083F872202C4B442283F873202A4B5522D8
S214009FA083F87420284B662283F87520264B772288
S214009FB083F87620244B40F24172C3F88020224B6F
S214009FC0082283F88420204B002283F886201E4B2C
S214009FD0002283F885201C4B4FF4FA72A3F87A20EF
S214009FE0194B0122A3F87C20174B0122A3F87E20F0
S214009FF0154B002283F88720134B112283F8882004
S21400A000114B222283F889200F4B332283F88A20B3
S21400A0100D4B442283F88B200B4B552283F88C2063
S21400A020094B662283F88D20074B772283F88E2013
S21400A030054B40F25132C3F89820034B022283F8B6
S21400A0409C20014B002201E0BC00002083F89E20EB
S21400A050CA4B002283F89D20C84B6422A3F89220A6
S21400A060C64B0122A3F89420C44B4FF6FF72A3F808
S21400A0709620C24B002283F89F20C04B112283F803
S21400A080A020BE4B222283F8A120BC4B332283F8AB
S21400A090A220BA4B442283F8A320B84B552283F85B
S21400A0A0A420B64B662283F8A520B44B772283F80B
S21400A0B0A620B24B40F25F62C3F8B020AF4B082236
S21400A0C083F8B420AD4B002283F8B620AB4B0022B9
S21400A0D083F8B520A94B4FF4FA72A3F8AA20A74B31
S21400A0E00222A3F8AC20A54B4FF6FF72A3F8AE20D1
S21400A0F0A24B002283F8B720A04B112283F8B82089
S21400A1009E4B222283F8B9209C4B332283F8BA2038
S21400A1109A4B442283F8BB20984B552283F8BC20E8
S21400A120964B662283F8BD20944B772283F8BE2098
S21400A130924B40F25172C3F8C820904B082283F825
S21400A140CC208E4B002283F8CE208C4B002283F846
S21400A150CD208A4B4FF4FA72A3F8C220874B012217
S21400A160A3F8C420854B0122A3F8C620834B002207
S21400A17083F8CF20814B112283F8D0207F4B2222F8
S21400A18083F8D1207D4B332283F8D2207B4B4422A8
S21400A19083F8D320794B552283F8D420774B662258
S21400A1A083F8D520754B772283F8D620734B40F280
S21400A1B0C132C3F8E020714B022283F8E4206F4BD3
S21400A1C0002283F8E6206D4B002283F8E5206B4BD7
S21400A1D06422A3F8DA20694B0122A3F8DC20674B3F
S21400A1E04FF6FF72A3F8DE20644B002283F8E720C8
S21400A1F0624B112283F8E820604B222283F8E92084
S21400A2005E4B332283F8EA205C4B442283F8EB2033
S21400A2105A4B552283F8EC20584B662283F8ED20E3
S21400A220564B772283F8EE20544B40F2CF62C3F8A9
S21400A230F820524B082283F8FC20504B002283F86B
S21400A240FE204E4B002283F8FD204C4B4FF4FA7252
S21400A250A3F8F220494B0222A3F8F420474B4FF60E
S21400A260FF72A3F8F620454B002283F8FF20434BED
S21400A270112283F80021414B222283F801213F4B13
S21400A280332283F802213D4B442283F803213B4BC3
S21400A290552283F80421394B662283F80521374B73
S21400A2A0772283F80621354B40F2C172C3F810219D
S21400A2B0324B082283F81421304B002283F81621F3
S21400A2C02E4B002283F815212C4B4FF4FA72A3F87C
S21400A2D00A212A4B0122A3F80C21284B0122A3F8BD
S21400A2E00E21264B002283F81721244B112283F8D7
S21400A2F01821224B222283F81921204B332283F87F
S21400A3001A211E4B442283F81B211C4B552283F82E
S21400A3101C211A4B662283F81D21184B772283F8DE
S21400A3201E21174B00221A800023FB7141E0FA79A8
S21400A330144913465B001344DB000B4400221A70DA
S21400A340FA79104913465B001344DB000B440022E5
S21400A3509A71FA790B4913465B001344DB000B44F1
S21400A3600022DA71FA79074913465B001344DB00D2
S21400A3700B4400229A800023BB7114E0BC0000202E
S21400A380B800002010000020FA79B9791E4813465C
S21400A3905B001344DB0003440B4408330022DA71ED
S21400A3A0BB790133BB71BB79072BEDD9FB79013340
S21400A3B0FB71FB79062BBAD9134B4FF4F1729A60F6
S21400A3C0114B08221A73104B00229A730E4B002270
S21400A3D05A730D4B01221A700B4B64225A800120CF
S21400A3E008F058F9094808F0B7FC094808F0C2FC1C
S21400A3F001F072FD02F01CFA02F026FB08F0C4FB26
S21400A4000837BD4680BD00BF1000002051BD0000CB
S21400A410CDBE000080B500AF01F072FBB84B1B88C4
S21400A4204FF6FF72934205D0B54B1B8801339AB2A4
S21400A430B34B1A80B34B93F8B030DBB2012B01D18B
S21400A44001F04CFA01F0A6FD02F022FA02F0DAFA68
S21400A4500346012B34D1AC4B1B78042B2ED801A21B
S21400A46052F823F0BDA4000079A4000087A40000E1
S21400A47099A40000ABA40000A44B00221A70A34BC2
S21400A48000221A761BE0A14B002283F848209F4B3F
S21400A490002283F8602012E09C4B002283F8902074
S21400A4A09A4B002283F8A82009E0984B002283F8F4
S21400A4B0D820964B002283F8F02000E000BF72E020
S21400A4C002F0A0FA0346022B6DD18F4B1B78042BAB
S21400A4D068D801A252F823F0A5A50000EDA400005C
S21400A4E015A5000045A5000075A50000854B93F84E
S21400A4F0BA30DBB2012B06D1844B00221A70834B94
S21400A50000221A764FE0814B01221A707F4B0122FF
S21400A5101A7648E07B4B93F8BA30DBB2012B08D1B1
S21400A5207A4B002283F84820784B002283F860207C
S21400A53039E0764B012283F84820744B012283F8D9
S21400A540602030E06F4B93F8BA30DBB2012B08D1B5
S21400A5506E4B002283F890206C4B002283F8A820D4
S21400A56021E06A4B012283F89020684B012283F891
S21400A570A82018E0634B93F8BA30DBB2012B08D161
S21400A580624B002283F8D820604B002283F8F0202C
S21400A59009E05E4B012283F8D8205C4B012283F849
S21400A5A0F02000E000BF5A4B5B78013B052B00F221
S21400A5B0D68001A252F823F0D1A50000D9A500004C
S21400A5C023A600006DA60000B7A6000015A7000091
S21400A5D04F4B02229A70C6E008F054FD0346032B48
S21400A5E003D14B4B06229A701AE008F04BFD034647
S21400A5F0012B03D1464B04229A7011E008F042FD6D
S21400A6000346022B03D1424B03229A7008E008F05F
S21400A61039FD0346002B03D13D4B02229A70A2E07F
S21400A620A1E008F02FFD0346032B03D1384B06228A
S21400A6309A701AE008F026FD0346012B03D1344B2E
S21400A64004229A7011E008F01DFD0346022B03D188
S21400A6502F4B03229A7008E008F014FD0346002BE7
S21400A66003D12B4B02229A707DE07CE008F00AFDB5
S21400A6700346032B03D1264B06229A701AE008F0F5
S21400A68001FD0346012B03D1214B04229A7011E0F1
S21400A69008F0F8FC0346022B03D11D4B03229A70E8
S21400A6A008E008F0EFFC0346002B03D1184B02220B
S21400A6B09A7058E057E008F0E5FC0346032B03D1F8
S21400A6C0134B06229A701AE008F0DCFC0346012BB6
S21400A6D003D10F4B04229A7011E008F0D3FC034616
S21400A6E0022B03D10A4B03229A7008E008F0CAFC3A
S21400A6F00346002B03D1064B02229A7033E032E069
S21400A700B80000205404002024050020BC000020CF
S21400A7100C00002008F0B6FC0346032B03D1164BB2
S21400A72006229A701AE008F0ADFC0346012B03D10E
S21400A730114B04229A7011E008F0A4FC0346022B89
S21400A74003D10D4B03229A7008E008F09BFC0346E9
S21400A750002B03D1084B02229A7004E003E0064B5C
S21400A76001229A7000BF044B5A78034B1A70024BB2
S21400A7709A78014B5A7080BD0C00002080B485B0DA
S21400A78000AF0346FB710023FB81FB79062B08D83C
S21400A790FA79074913465B001344DB000B449B8899
S21400A7A0FB81FB8918461437BD465DF8047B70476D
S21400A7B01000002080B400AF034B1B881846BD462F
S21400A7C05DF8047B704700BFB800002080B485B0F9
S21400A7D000AF0346FB71FB79002B47D17E4A7F4BC7
S21400A7E01B7DDBB203F00303D9B2537861F3830316
S21400A7F05370794A794B1B79DBB203F00303D9B265
S21400A800137861F305131370734A744B93F834305E
S21400A810DBB203F00303D9B2137861F3830313703A
S21400A8206D4A6E4B93F82430DBB203F00303D9B2C3
S21400A830137861F301031370674A684B93F854303A
S21400A840DBB203F00303D9B2537861F3010353700C
S21400A850614A624B93F84430DBB203F00303D9B28B
S21400A860137861F38713137001F028B8FB79032B74
S21400A87047D15B4A594B1B7DDBB203F00303D9B2C9
S21400A880537861F383035370554A544B1B79DBB2FC
S21400A89003F00303D9B2137861F305131370504A1B
S21400A8A04E4B93F83430DBB203F00303D9B213787F
S21400A8B061F3830313704A4A484B93F82430DBB2A3
S21400A8C003F00303D9B2137861F301031370444A0B
S21400A8D0424B93F85430DBB203F00303D9B25378FB
S21400A8E061F3010353703E4A3C4B93F84430DBB2AD
S21400A8F003F00303D9B2137861F38713137000F0E3
S21400A900DDBFFB79062B31D1364A344B93F89430B1
S21400A910DBB203F00303D9B2137861F301031370BB
S21400A920304A2E4B93F84430DBB203F00303D9B21F
S21400A930137861F3830313702A4A284B93F8743014
S21400A940DBB203F00303D9B2137861F30513137077
S21400A950244A224B93F88430DBB203F00303D9B2C7
S21400A960137861F38713137000F0A8BFFB79092BE7
S21400A9703CD11D4A194B93F89430DBB203F0030325
S21400A980D9B2137861F383031370174A134B93F805
S21400A9904430DBB203F00303D9B2137861F3051336
S21400A9A01370114A0D4B93F87430DBB203F00303B7
S21400A9B0D9B2137861F3871313700B4A074B93F8D9
S21400A9C08430DBB203F00303D9B2137861F30103DA
S21400A9D0137000F073BF00BFCB00002054040020AB
S21400A9E0130100205B010020A3010020FB790A2B45
S21400A9F009D0FB79072B06D0FB79042B03D0FB7913
S21400AA00012B40F05B87C24B1B780133DAB2C04B98
S21400AA101A70BF4B1B78112B02D9BD4B00221A703F
S21400AA20BB4B1B781A46BB4B53F82230BB73BA4A53
S21400AA30BB7B82F82730B84ABB7B82F86F30B64AB9
S21400AA40BB7B82F8B730B44ABB7B82F8FF30BB7B57
S21400AA50692B00F2328701A252F823F005AC000001
S21400AA60BBB80000BBB80000BBB80000BBB8000015
S21400AA70BBB80000BBB80000BBB80000BBB8000005
S21400AA80BBB800000BAD000005AE0000E3AE000052
S21400AA90BBB80000BBB80000C1AF0000B1B00000FA
S21400AAA08DB10000BBB80000BBB8000069B2000062
S21400AAB0BBB8000057B30000BBB8000033B40000BA
S21400AAC0BBB80000BBB80000BBB80000BBB80000B5
S21400AAD0BBB800000FB50000BBB80000BFB5000053
S21400AAE0BBB800005FB60000BBB80000BBB80000F3
S21400AAF0BBB80000BBB80000BBB80000BBB8000085
S21400AB00BBB80000BBB80000BBB80000BBB8000074
S21400AB10BBB80000BBB80000BBB80000BBB8000064
S21400AB20BBB80000BBB80000BBB80000BBB8000054
S21400AB30BBB80000BBB80000BBB80000BBB8000044
S21400AB40BBB80000BBB80000BBB80000BBB8000034
S21400AB50BBB80000BBB80000BBB80000BBB8000024
S21400AB60BBB80000BBB80000BBB80000BBB8000014
S21400AB70BBB80000BBB80000BBB80000BBB8000004
S21400AB80BBB80000BBB80000BBB80000BBB80000F4
S21400AB90BBB80000BBB80000BBB80000BBB80000E4
S21400ABA0BBB80000BBB80000BBB80000BBB80000D4
S21400ABB0BBB80000BBB80000BBB80000BBB80000C4
S21400ABC0BBB80000BBB80000BBB80000BBB80000B4
S21400ABD0BBB80000BBB80000BBB80000BBB80000A4
S21400ABE0BBB80000BBB80000BBB80000BBB8000094
S21400ABF093B600004BB700001FB8000053B8000023
S21400AC0087B800000123FB7312E0444AFB7B552102
S21400AC10D154434AFB7B5521D154424AFB7B5521F4
S21400AC20D154414AFB7B5521D154FB7B0133FB7346
S21400AC30FB7B072BE9D9394A5378022161F3471386
S21400AC405370364B03229A70344A53786FF30403DA
S21400AC505370324B0022DA70304B00221A712F4BA1
S21400AC6000225A712D4B00229A712D4A53780221E8
S21400AC7061F3471353702A4B04229A70284A53787C
S21400AC806FF304035370264B0022DA70244B002225
S21400AC901A71234B00225A71214B00229A71214AC5
S21400ACA05378022161F3471353701E4B05229A70A6
S21400ACB01C4A53786FF3040353701A4B0022DA7061
S21400ACC0184B00221A71174B00225A71154B00229E
S21400ACD09A71154A5378022161F347135370124B49
S21400ACE00C229A70104A53786FF3040353700E4B7D
S21400ACF00022DA700C4B00221A710B4B00225A719C
S21400AD00094B00229A7100F0D9BD0123FB7320E0A5
S21400AD106C84FF1F2484FF1FBC000020E30000207B
S21400AD202B01002073010020BB010020A64AFB7BFC
S21400AD305521D154A54AFB7B5521D154A44AFB7B0F
S21400AD405521D154A34AFB7B5521D154FB7B0133BB
S21400AD50FB73FB7B072BE9D99B4B00225A709A4B5F
S21400AD6000229A70984B0022DA70974B00221A71D4
S21400AD70954B00225A71944B00229A71924B0022F6
S21400AD80DA71924B00225A70904B00229A708F4BC9
S21400AD900022DA708D4B00221A718C4B00225A71F9
S21400ADA08A4B00229A71894B0022DA71884B002266
S21400ADB05A70874B00229A70854B0022DA70844BBB
S21400ADC000221A71824B00225A71814B00229A711E
S21400ADD07F4B0022DA717F4B00225A707D4B002297
S21400ADE09A707C4B0022DA707A4B00221A71794BEB
S21400ADF000225A71774B00229A71764B0022DA7144
S21400AE0000F05CBD0123FB7312E06F4AFB7B55210B
S21400AE10D1546E4AFB7B5521D1546D4AFB7B55219C
S21400AE20D1546C4AFB7B5521D154FB7B0133FB7319
S21400AE30FB7B072BE9D9644B0B225A70624B0B2223
S21400AE409A70614B0B22DA705F4B0B221A715E4BC5
S21400AE500B225A715C4B0B229A715B4B0B22DA71F8
S21400AE605A4B0B225A70594B0B229A70574B0B2297
S21400AE70DA70564B0B221A71544B0B225A71534BF5
S21400AE800B229A71514B0B22DA71514B0B225A70DE
S21400AE904F4B0B229A704E4B0B22DA704C4B0B2208
S21400AEA01A714B4B0B225A71494B0B229A71484B25
S21400AEB00B22DA71474B0B225A70464B0B229A70C4
S21400AEC0444B0B22DA70434B0B221A71414B0B2278
S21400AED05A71404B0B229A713E4B0B22DA7100F0EE
S21400AEE0EDBC0123FB7312E0374AFB7B5521D1549E
S21400AEF0364AFB7B5521D154354AFB7B5521D1542C
S21400AF00344AFB7B5521D154FB7B0133FB73FB7B1F
S21400AF10072BE9D92C4B0C225A702B4B0C229A701B
S21400AF20294B0C22DA70284B0C221A71264B0C2265
S21400AF305A71254B0C229A71234B0C22DA71234B43
S21400AF400C225A70214B0C229A70204B0C22DA707D
S21400AF501E4B0C221A711D4B0C225A711B4B0C22D5
S21400AF609A711A4B0C22DA71194B0C225A70184B34
S21400AF700C229A70164B0C22DA70154B0C221A71A2
S21400AF80134B0C225A71124B0C229A71104B0C2246
S21400AF90DA71104B0C225A700E4B0C229A700D4B25
S21400AFA00C22DA700B4B0C221A710A4B0C225A71C7
S21400AFB0084B0C229A71074B0C22DA7100F07EBC0B
S21400AFC00123FB731BE000BFE30000202B010020E1
S21400AFD073010020BB010020A54AFB7B5521D154FC
S21400AFE0A44AFB7B5521D154A34AFB7B5521D1545F
S21400AFF0A24AFB7B5521D154FB7B0133FB73FB7BC1
S21400B000072BE9D99A4B0F225A70994B0F229A7048
S21400B010974B0F22DA70964B0F221A71944B0F2221
S21400B0205A71934B0F229A71914B0F22DA71914B02
S21400B0300F225A708F4B0F229A708E4B0F22DA70A7
S21400B0408C4B0F221A718B4B0F225A71894B0F2291
S21400B0509A71884B0F22DA71874B0F225A70864BF3
S21400B0600F229A70844B0F22DA70834B0F221A71CC
S21400B070814B0F225A71804B0F229A717E4B0F2202
S21400B080DA717E4B0F225A707C4B0F229A707B4BE4
S21400B0900F22DA70794B0F221A71784B0F225A71F1
S21400B0A0764B0F229A71754B0F22DA7100F006BCB0
S21400B0B00123FB7312E06E4AFB7B5521D1546D4A87
S21400B0C0FB7B5521D1546C4AFB7B5521D1546B4AEE
S21400B0D0FB7B5521D154FB7B0133FB73FB7B072B9A
S21400B0E0E9D9634B10225A70614B10229A70604B5C
S21400B0F01022DA705E4B10221A715D4B10225A71C4
S21400B1005B4B10229A715A4B1022DA71594B10225F
S21400B1105A70584B10229A70564B1022DA70554BC4
S21400B12010221A71534B10225A71524B10229A71E8
S21400B130504B1022DA71504B10225A704E4B102290
S21400B1409A704D4B1022DA704B4B10221A714A4BF4
S21400B15010225A71484B10229A71474B1022DA710E
S21400B160464B10225A70454B10229A70434B1022C1
S21400B170DA70424B10221A71404B10225A713F4B24
S21400B18010229A713D4B1022DA7197E30123FB736C
S21400B19012E0374AFB7B5521D154364AFB7B5521BA
S21400B1A0D154354AFB7B5521D154344AFB7B55217B
S21400B1B0D154FB7B0133FB73FB7B072BE9D92C4B6C
S21400B1C011225A702A4B11229A70294B1122DA70DA
S21400B1D0274B11221A71264B11225A71244B112229
S21400B1E09A71234B1122DA71224B11225A70214B8D
S21400B1F011229A701F4B1122DA701E4B11221A71FF
S21400B2001C4B11225A711B4B11229A71194B112299
S21400B210DA71194B11225A70174B11229A70164B7D
S21400B2201122DA70144B11221A71134B11225A7123
S21400B230114B11229A71104B1122DA710F4B112209
S21400B2405A700E4B11229A700C4B1122DA700B4B6F
S21400B25011221A71094B11225A71084B11229A7148
S21400B260064B1122DA7129E30123FB731BE000BFB2
S21400B270E30000202B01002073010020BB0100200A
S21400B280A44AFB7B5521D154A34AFB7B5521D154BC
S21400B290A24AFB7B5521D154A14AFB7B5521D154B0
S21400B2A0FB7B0133FB73FB7B072BE9D9994B1422FD
S21400B2B05A70984B14229A70964B1422DA70954B5B
S21400B2C014221A71934B14225A71924B14229A71BB
S21400B2D0904B1422DA71904B14225A708E4B142223
S21400B2E09A708D4B1422DA708B4B14221A718A4B8B
S21400B2F014225A71884B14229A71874B1422DA71E1
S21400B300864B14225A70854B14229A70834B142253
S21400B310DA70824B14221A71804B14225A717F4BBA
S21400B32014229A717D4B1422DA717D4B14225A70C6
S21400B3307B4B14229A707A4B1422DA70784B1422C4
S21400B3401A71774B14225A71754B14229A71744BEA
S21400B3501422DA71B2E20123FB7312E06D4AFB7B22
S21400B3605521D1546C4AFB7B5521D1546B4AFB7B4B
S21400B3705521D1546A4AFB7B5521D154FB7B0133BE
S21400B380FB73FB7B072BE9D9624B16225A70614B85
S21400B39016229A705F4B1622DA705E4B16221A71CE
S21400B3A05C4B16225A715B4B16229A71594B162229
S21400B3B0DA71594B16225A70574B16229A70564B12
S21400B3C01622DA70544B16221A71534B16225A71F3
S21400B3D0514B16229A71504B1622DA714F4B162299
S21400B3E05A704E4B16229A704C4B1622DA704B4B04
S21400B3F016221A71494B16225A71484B16229A7118
S21400B400464B1622DA71464B16225A70444B1622C9
S21400B4109A70434B1622DA70414B16221A71404B33
S21400B42016225A713E4B16229A713D4B1622DA713D
S21400B43044E20123FB7312E0364AFB7B5521D154CC
S21400B440354AFB7B5521D154344AFB7B5521D154D8
S21400B450334AFB7B5521D154FB7B0133FB73FB7BCB
S21400B460072BE9D92B4B18225A702A4B18229A70B0
S21400B470284B1822DA70274B18221A71254B1822EF
S21400B4805A71244B18229A71224B1822DA71224BD9
S21400B49018225A70204B18229A701F4B1822DA7006
S21400B4A01D4B18221A711C4B18225A711A4B18225F
S21400B4B09A71194B1822DA71184B18225A70174BCA
S21400B4C018229A70154B1822DA70144B18221A712B
S21400B4D0124B18225A71114B18229A710F4B1822D0
S21400B4E0DA710F4B18225A700D4B18229A700C4BBB
S21400B4F01822DA700A4B18221A71094B18225A7150
S21400B500074B18229A71064B1822DA71D6E10123EE
S21400B510FB731AE0E30000202B01002073010020DB
S21400B520BB0100208A4AFB7B5521D154894AFB7B0C
S21400B5305521D154884AFB7B5521D154874AFB7B41
S21400B5405521D154FB7B0133FB73FB7B072BE9D9D9
S21400B550834BBB607E4B00225A707D4B00229A7054
S21400B5607B4B0022DA707A4ABB681B781371794BE2
S21400B57000225A70774B00229A70764B0022DA70BF
S21400B580744ABB681B781371734B00225A70724B57
S21400B59000229A70704B0022DA706F4ABB681B78E4
S21400B5A013716E4B00225A706C4B00229A706B4BD4
S21400B5B00022DA70694ABB681B7813717EE10123AA
S21400B5C0FB7312E0624AFB7B5521D154614AFB7B38
S21400B5D05521D154604AFB7B5521D1545F4AFB7BF1
S21400B5E05521D154FB7B0133FB73FB7B072BE9D939
S21400B5F05C4BBB60564B00225A70554B00229A702B
S21400B600534B0022DA70524ABB681B781371514BB9
S21400B61000225A704F4B00229A704E4B0022DA706E
S21400B6204C4ABB681B7813714B4B00225A704A4B2E
S21400B63000229A70484B0022DA70474ABB681B7893
S21400B6401371464B00225A70444B00229A70434BAB
S21400B6500022DA70414ABB681B7813712EE1012381
S21400B660FB7312E03A4AFB7B5521D154394AFB7BE7
S21400B6705521D154384AFB7B5521D154374AFB7BA0
S21400B6805521D154FB7B0133FB73FB7B072BE9D998
S21400B69014E10123FB7312E02D4AFB7B5521D154A4
S21400B6A02C4AFB7B5521D1542B4AFB7B5521D15488
S21400B6B02A4AFB7B5521D154FB7B0133FB73FB7B72
S21400B6C0072BE9D9284BBB60214ABB681B7853700F
S21400B6D01F4ABB685B7893701D4ABB68DB78D370E3
S21400B6E01B4ABB689B7813711A4ABB681B78537059
S21400B6F0184ABB685B789370164ABB68DB78D370D1
S21400B700144ABB689B781371134ABB681B78537046
S21400B710114ABB685B7893700F4ABB68DB78D370BE
S21400B7200D4ABB689B7813710C4ABB681B78537034
S21400B7300A4ABB685B789370084ABB68DB78D370AC
S21400B740064ABB689B781371B8E00123FB7320E0C0
S21400B750E30000202B01002073010020BB01002025
S21400B760C80000144801001400FC0100564AFB7B88
S21400B7705521D154554AFB7B5521D154544AFB7B65
S21400B7805521D154534AFB7B5521D154FB7B0133C1
S21400B790FB73FB7B072BE9D94F4BBB604A4ABB6860
S21400B7A01B785370484ABB685B789370464ABB6800
S21400B7B0DB78D370444ABB689B781371434ABB68F6
S21400B7C01B785370414ABB685B7893703F4ABB68EE
S21400B7D0DB78D3703D4ABB689B7813713C4ABB68E4
S21400B7E01B7853703A4ABB685B789370384ABB68DC
S21400B7F0DB78D370364ABB689B781371354ABB68D2
S21400B8001B785370334ABB685B789370314ABB68C9
S21400B810DB78D3702F4ABB689B7813714EE0012308
S21400B820FB7312E0284AFB7B5521D154274AFB7B49
S21400B8305521D154264AFB7B5521D154254AFB7B02
S21400B8405521D154FB7B0133FB73FB7B072BE9D9D6
S21400B85034E00123FB7312E01B4AFB7B5521D154D5
S21400B8601A4AFB7B5521D154194AFB7B5521D154EA
S21400B870184AFB7B5521D154FB7B0133FB73FB7BC2
S21400B880072BE9D91AE00123FB7312E00E4AFB7B73
S21400B8905521D1540D4AFB7B5521D1540C4AFB7BD4
S21400B8A05521D1540B4AFB7B5521D154FB7B0133E8
S21400B8B0FB73FB7B072BE9D900E000BF1437BD46BE
S21400B8C05DF8047B704700BFE30000202B010020DA
S21400B8D073010020BB010020007F000080B582B00D
S21400B8E000AF72B60023FB711EE0FA7913491346C7
S21400B8F05B001344DB000B449B88002B11D0FA79C5
S21400B9000E4913465B001344DB000B449B88013B47
S21400B91098B20A4913465B001344DB000B44024608
S21400B9209A80FB790133FB71FB790B2BDDD962B66C
S21400B93000F006F80837BD4680BD00BFBC000020FA
S21400B94090B587B000AF07F0D5F90023FB75CBE0C4
S21400B95000237B75FA7D694913465B001344DB00C0
S21400B9600B449B88002B15D1FA7D644913465B0077
S21400B9701344DB000B441B78012B0BD1FA7D5F4987
S21400B98013465B001344DB000B44DB88002B01D01E
S21400B99001237B757B7D012B40F0A380FB7D184641
S21400B9A0FEF714FFFA7D554913465B001344DB008F
S21400B9B00B4408331B687B60FA7D504913465B00D6
S21400B9C01344DB000B4408331B7903F03F03DAB261
S21400B9D03B7A62F387033B72FA7D484913465B0065
S21400B9E01344DB000B4408339B7903F00103DAB2FF
S21400B9F03B7A62F341033B72FA7D404913465B0093
S21400BA001344DB000B4408335B7903F00103DAB21E
S21400BA103B7A62F300033B720023BB7513E0B97DEB
S21400BA20FA7DB87D354C13465B001344DB00234497
S21400BA3003440833DA7907F118030B4403F80F2C94
S21400BA40BB7D0133BB75FA7D2C4913465B0013445E
S21400BA50DB000B4408331B79BA7D9A42DFD33B1DCB
S21400BA60184607F095F903463B753B7D012B38D108
S21400BA70FA7DF97D21480B465B000B44DB0003444E
S21400BA8058881E4913465B001344DB000B440246ED
S21400BA909A80FA7D194913465B001344DB000B4479
S21400BAA0DB884FF6FF7293421BD0FA7D134913468C
S21400BAB05B001344DB000B44DB88002B11D0FA7DBF
S21400BAC00E4913465B001344DB000B44DB88013B46
S21400BAD098B20A4913465B001344DB000B44024647
S21400BAE0DA80FB7D0133FB75FB7D0B2B7FF630AFD9
S21400BAF007F0BEF81C37BD4690BD00BFBC00002056
S21400BB0080B400AF8E4B9B884FF6FF72934205D0F1
S21400BB108B4B9B8801339AB2894B9A80884B9A79D3
S21400BB20874BDB799A4200F0078172B6844B00227D
S21400BB309A80834B9A79824BDA71824B1B78042B5E
S21400BB4000F2F88001A252F823F000BF35BD0000D5
S21400BB5061BB0000EFBB00007DBC0000D9BC00004C
S21400BB60794B1B78C3F30103DBB21A46774B83F895
S21400BB702020754B1B78C3F38103DBB21A46734B48
S21400BB8083F83020704B1B78C3F30113DBB21A46E0
S21400BB906E4B1A706C4B1B78C3F38113DBB21A46DC
S21400BBA06A4B83F84020684B5B78C3F30103DBB233
S21400BBB01A46664B83F85020634B5B78C3F38103C9
S21400BBC0DBB21A46614B1A745F4B9B79C3F30103D1
S21400BBD0DBB21A465D4B83F860205B4B9B79C3F360
S21400BBE00313DBB21A46594B83F8A020A3E0564B4A
S21400BBF09B78C3F30103DBB21A46544B83F820202C
S21400BC00514B9B78C3F38103DBB21A464F4B83F844
S21400BC1030204D4B9B78C3F30113DBB21A464B4BD7
S21400BC201A70494B1B79C3F38103DBB21A46474BA4
S21400BC3083F84020444B5B78C3F30113DBB21A460B
S21400BC40424B83F85020404B5B78C3F38113DBB242
S21400BC501A463E4B1A743C4B9B79C3F30103DBB286
S21400BC601A463A4B83F86020374B9B79C3F303138D
S21400BC70DBB21A46354B83F8A0205CE0324BDB780B
S21400BC80C3F30103DBB21A46304B83F890202E4BE9
S21400BC90DB78C3F38103DBB21A462C4B83F84020D3
S21400BCA0294BDB78C3F38113DBB21A46274B83F8A4
S21400BCB08020254B9B79C3F30103DBB21A46234B46
S21400BCC083F86020204BDB78C3F30113DBB21A46FF
S21400BCD01E4B83F870202EE01B4B1B79C3F3010329
S21400BCE0DBB21A46194B83F89020174B9B78C3F3A8
S21400BCF08113DBB21A46154B83F84020124B1B7992
S21400BD00C3F38113DBB21A46104B83F880200E4B28
S21400BD109B79C3F30103DBB21A460C4B83F8602011
S21400BD20094B1B79C3F30113DBB21A46074B83F8A2
S21400BD30702000E000BF62B6BD465DF8047B704729
S21400BD4010000020240500201F00002054040020BE
S21400BD5090B585B000AF7860594B00221A80594BD9
S21400BD60B3F8B6309BB21A467B681B689A420AD074
S21400BD707B681B68B3F5E06F05D07B681B6840F2F4
S21400BD80DF72934203D1786800F06CFC94E07B6825
S21400BD901B68B3F5447F03D1786800F0FBFD8BE0A9
S21400BDA00023FB7384E0FA7B474913465B00134489
S21400BDB0DB000B4408331A687B681B689A4274D110
S21400BDC0FA7B414913465B001344DB000B441B78A7
S21400BDD0012B6AD1FA7B7B6819683B4813465B00E7
S21400BDE01344DB00034408331960FA7B7B681B7935
S21400BDF0C3F38503DBB21846334913465B0013448E
S21400BE00DB000B44083302461A71FA7B7B681B7909
S21400BE10C3F34003DBB218462B4913465B001344BA
S21400BE20DB000B44083302469A71FA7B7B681B7969
S21400BE30C3F30003DBB21846234913465B001344E2
S21400BE40DB000B44083302465A710023BB7312E032
S21400BE50FA7BB97BBB7B786803445C791A48134647
S21400BE605B001344DB0003440B4408332246DA71BC
S21400BE70BB7B0133BB73BB7B7A681279C2F3850246
S21400BE80D2B29342E4DBFA7B0F4913465B001344BD
S21400BE90DB000B449B790133D8B20B4913465B0099
S21400BEA01344DB000B4402469A71FB7B0133FB73A1
S21400BEB0FB7B062B7FF677AF1437BD4690BD00BFE1
S21400BEC0B8000020540400201000002080B500AF09
S21400BED0FFF736FD80BD00BF80B500AF00F002F86A
S21400BEE080BD00BF80B483B000AF264B00221A701E
S21400BEF0244B01225A70234B01229A700023FB71B7
S21400BF0006E0FB79204A0021D154FB790133FB710E
S21400BF10FB79632BF5D91D4B00221A801C4B00229F
S21400BF2083F820201A4B002283F82120184B002289
S21400BF3083F82620164B002283F82720144B002275
S21400BF4083F83420124B0022DA86114B002283F845
S21400BF5038200023FB710CE0FB790D4A13440022C5
S21400BF605A71FB790A4A134400225A75FB79013349
S21400BF70FB71FB79072BEFD90C37BD465DF8047BC8
S21400BF80704700BFDC010020E001002044020020D2
S21400BF900804002080B582B000AF854BDB8E002BF6
S21400BFA017D0834BDB8E013B9AB2814BDA86804BEF
S21400BFB0DB8E002B0DD17E4B93F83430012B04D052
S21400BFC07B4B93F83430022B03D1794B002283F855
S21400BFD03420774B5B8E4FF6FF72934205D0744B3E
S21400BFE05B8E01339AB2724B5A86724B5B78013B7A
S21400BFF0062B00F2038301A252F823F019C00000BA
S21400C0005DC000004DC10000C9C10000FFC20000B5
S21400C01031C4000001C50000664B5A78654B1B789A
S21400C0209A4202D0644B00221A80614B93F8262075
S21400C0305F4B93F827309A4203D05E4B05229A70E6
S21400C0400BE05B4B93F82020594B93F821309A4233
S21400C05003D0584B02229A70D4E2D3E2554B5A785A
S21400C060544B1B789A4205D0514B93F82020504BE6
S21400C07083F821204E4B5B791B029AB24C4B9B797E
S21400C0809BB213439BB2BB80BB8803F470431B0A6E
S21400C090002B27D1BB8803F470631B0A9AB2444B6B
S21400C0A05A84454B00221A800123FB7111E0424B53
S21400C0B01B881946FB793E4A13445A793F4B5A541B
S21400C0C03D4B1B8801339AB23B4B1A80FB790133F8
S21400C0D0FB71FB79072BEAD900F0EAFA354B01220F
S21400C0E09A7032E0BB8803F470431B0A102B28D1E9
S21400C0F0BB88C3F30B039AB22D4B5A842C4B0122F8
S21400C10083F82C202C4B00221A800223FB7111E0AE
S21400C110294B1B881946FB79254A13445A79274B25
S21400C1205A54254B1B8801339AB2234B1A80FB794D
S21400C1300133FB71FB79072BEAD91E4B03229A7059
S21400C14003E01C4B01229A705CE25BE2194B5A78C2
S21400C150184B1B789A421FD0194BB3F8B8309BB2D5
S21400C1601A46134B1A61124A137D032161F38703A3
S21400C17013750F4A137D6FF3410313750C4A137D35
S21400C1806FF3000313750A4B30225A75084B0A22C8
S21400C1909A75074B0322DA750A4806F0F9FD03463E
S21400C1A0002B03D0034B04229A702BE22AE200BF36
S21400C1B008040020DC01002044020020E0010020EA
S21400C1C05404002018040020934B5A78924B1B7896
S21400C1D09A4205D0914B00229A84904B00225A85B1
S21400C1E08E4B5B8D01339AB28C4B5A858B4B5B8D95
S21400C1F044F62062934202D9874B01229A70874BFD
S21400C20093F82020854B93F821309A4276D0834BC2
S21400C21093F82020814B83F82120804B00225A85FA
S21400C2207E4B5B7903F0F003202B63D17B4B93F8B6
S21400C2302C301A46794B5B7903F00F039A4259D19A
S21400C240764B93F82C300133DAB2744B83F82C20FB
S21400C250724B93F82C300F2B03D9704B002283F8C7
S21400C2602C200123FB7121E06D4B1B88632B1AD811
S21400C2706B4B1B881946FB79684A13445A79694BFD
S21400C2805A54674B1B8801339AB2654B1A80634B2E
S21400C2905A8C634B1B889A4200D80AE0604B1B8876
S21400C2A0632B00D905E0FB790133FB71FB79072B83
S21400C2B0DAD95A4B9B8C01339AB2584B9A84574B17
S21400C2C09B8C092B02D9544B03229A70534B5A8CE1
S21400C2D0534B1B889A4204D800F0EAF94E4B0122D1
S21400C2E09A704F4B1B88632B03D94B4B01229A70D5
S21400C2F004E003E0484B01229A7083E182E1464B5A
S21400C3005A78454B1B789A426ED0444B93F82620B9
S21400C310424B83F82720444BB3F8B8309BB21A46FA
S21400C3203E4B1A613D4A137D6FF3000313753B4A7B
S21400C330137D6FF341031375384A137D082161F3AB
S21400C34087031375354B1B8D072B21D8334B1B8D5D
S21400C350DAB2324B5A75324B00221A800123FB7137
S21400C36012E0FB792E4A128811462E4A515C2B4A5F
S21400C37013440A465A752A4B1B8801339AB2284B37
S21400C3801A80FB790133FB71FB79072BE9D92BE087
S21400C390224B1B8D03F470631B0ADBB243F01003C1
S21400C3A0DAB21E4B5A751D4B1B8DDAB21B4B9A75B3
S21400C3B01B4B00221A800223FB7112E0FB79184AFD
S21400C3C012881146174A515C144A13440A465A7595
S21400C3D0134B1B8801339AB2114B1A80FB79013339
S21400C3E0FB71FB79072BE9D9104806F0D1FC034610
S21400C3F0002B0FD0094B1B8D072B03D8064B0122B1
S21400C4009A7007E0044B06229A70044B012283F8C8
S21400C4102C20F7E0F6E000BFDC0100200804002036
S21400C42044020020E00100205404002018040020EC
S21400C4307A4B5A78794B1B789A4202D0784B002276
S21400C4405A85774B5B8D01339AB2754B5A85744B80
S21400C4505B8D44F62062934202D9704B01229A709B
S21400C4606F4B93F820206E4B93F821309A4246D0BB
S21400C4706B4B93F820206A4B83F82120684B5B793E
S21400C48003F0F003302B36D1654B5B7903F00F03D6
S21400C490002B1CD1624B9B79002B04D1604BFF22F2
S21400C4A083F82D2004E05E4B9A795D4B83F82D20AF
S21400C4B05B4B002283F82E20594BDB799BB201336D
S21400C4C09AB2574B1A86554B07229A7017E0544B70
S21400C4D05B7903F00F03012B11D0514B5B7903F00E
S21400C4E00F03022B03D14D4B01229A7007E04B4BF2
S21400C4F001229A7086E0494B01229A7082E081E020
S21400C500474B5A8E464B1B8E9A4276D9444B002296
S21400C5105A86444BB3F8B8309BB21A46404B1A6161
S21400C5203F4A137D6FF3000313753D4A137D6FF387
S21400C530410313753A4A137D082161F38703137587
S21400C540374B93F82C3043F02003DAB2344B5A754D
S21400C5500123FB7119E0FB79334A12881146334AEE
S21400C560515C2F4A13440A465A752F4B1B880133D9
S21400C5709AB22D4B1A802A4B1A8D2B4B1B889A4247
S21400C58000D805E0FB790133FB71FB79072BE2D974
S21400C590234B93F82C300133DAB2214B83F82C204E
S21400C5A01F4B93F82C300F2B03D91D4B002283F81A
S21400C5B02C201F4806F0ECFB0346002B1DD0184B22
S21400C5C01A8D194B1B889A4203D8144B01229A7075
S21400C5D013E0134B93F82E300133DAB2104B83F886
S21400C5E02E200F4B93F82E200D4B93F82D309A42A9
S21400C5F003D30A4B06229A7004E003E0074B01229D
S21400C6009A7000BF054B5A78044B1A70034B9A7801
S21400C610024B5A700837BD4680BD00BFDC010020C3
S21400C620080400205404002044020020E0010020FA
S21400C6301804002080B483B000AF0346FB71FB797A
S21400C6409AB2074B1A85064B93F826300133DAB2B6
S21400C650034B83F826200C37BD465DF8047B7047F5
S21400C6600804002080B485B000AF78600023FB7318
S21400C6700BE0FB7BFA7B79680A4451790B4A13443A
S21400C6800A465A71FB7B0133FB73FB7B072BF0D901
S21400C690064B93F820300133DAB2044B83F820209F
S21400C6A01437BD465DF8047B704700BF08040020C1
S21400C6B080B582B000AF0023FB71594B1B78102B5E
S21400C6C004D10123FB71564800F0C4F9544B1B7883
S21400C6D0112B04D10123FB71514800F04DFA504B49
S21400C6E01B78142B04D10123FB714D4800F0D0FABF
S21400C6F04B4B1B78192B04D10123FB71484800F0E3
S21400C7004BFB474B1B78222B04D10123FB7144487B
S21400C71000F002FC424B1B78272B04D10123FB714F
S21400C7203F4800F091FE3E4B1B78282B04D1012396
S21400C730FB713B4800F02CFF394B1B782A2B04D1A9
S21400C7400123FB71364800F0D7FF354B1B782E2BA4
S21400C75004D10123FB71324801F064F8304B1B789A
S21400C7602F2B04D10123FB712D4801F00FF92C4B20
S21400C7701B78312B04D10123FB71294802F096FC6B
S21400C780274B1B783E2B04D10123FB71244802F073
S21400C79017FD234B1B78852B04D10123FB71204802
S21400C7A002F08AFDFB79002B33D11E4BB3F8B8306C
S21400C7B09BB21A461C4B1A611B4A137D082161F373
S21400C7C087031375184A137D6FF341031375164AD2
S21400C7D0137D6FF300031375134B7F225A75104BAE
S21400C7E01A78114B9A75104B1122DA750E4BAA2245
S21400C7F01A760D4BAA225A760B4BAA229A760A4B29
S21400C800AA22DA76084BAA221A77084806F0C0FA57
S21400C81003E0054B41F28832DA860837BD4680BD14
S21400C820E001002054040020080400201804002022
S21400C83080B400AF0F4B00221A700E4B00229A7085
S21400C8400C4B03225A700C4B00221A700B4B002222
S21400C8501A700B4B00221A800A4B00221A800A4BD1
S21400C86000221A70094B00221A70BD465DF8047B40
S21400C870704700BF480200205E0200205F020020D2
S21400C88060020020620200205C0200205D020020A0
S21400C89080B400AF384B1B88B3F5FA6F06D2364B20
S21400C8A01B8801339AB2344B1A8002E0334B0122C4
S21400C8B09A70324B1B78012B08D0022B31D0002BFC
S21400C8C000D04DE02D4B01229A7049E02B4B1A7890
S21400C8D02A4B5B789A4205D0294B01221A70294BC5
S21400C8E000221A80284B1A78284B1B789A420AD0C6
S21400C8F0254B1A78254B1A70254B1B78002B02D136
S21400C9001E4B02229A701F4B1B8840F6B73293428A
S21400C91006D81C4B1B8801339AB21A4B1A801FE0AC
S21400C9201EE0164B1A78154B5B789A4205D0144BCE
S21400C93002221A70134B00221A80134B1A78134BDC
S21400C9401B789A420BD0104B1A78104B1A70104B6B
S21400C9501B78022B03D1094B01229A70FFE700BF18
S21400C960064B1A78054B5A70044B9A78034B1A708C
S21400C970BD465DF8047B7047620200204802002036
S21400C9805E020020600200205C0200205D020020A3
S21400C9905F02002080B485B000AF78600023FB7390
S21400C9A00BE0FB7BFA7B79680A445179104A134402
S21400C9B00A465A71FB7B0133FB73FB7B072BF0D9CE
S21400C9C00B4B5B799B09DAB20A4B1A700A4B1B7841
S21400C9D00133DAB2084B1A70084B00221A80084B53
S21400C9E000221A801437BD465DF8047B704700BFEE
S21400C9F04C0200205F0200205C0200206202002041
S21400CA006002002080B400AF034B1B781846BD467A
S21400CA105DF8047B704700BF5E02002080B483B0E0
S21400CA2000AF0023FB71074B1B8840F6B7329342DA
S21400CA3001D90123FB71FB7918460C37BD465DF81A
S21400CA40047B70476002002080B400AFBD465DF8EE
S21400CA50047B704780B584B000AF78600123FB7319
S21400CA602223BB737B681B787B737B6801331B7840
S21400CA7003F07F033B737B6801331B78DBB25BB24A
S21400CA80002B01DA0023FB733A4B5B8C022B02D09F
S21400CA901323BB731EE03B7B022B0AD0032B0FD065
S21400CAA0012B14D1FF23BB73324B002283F83420B2
S21400CAB010E0FF23BB732F4B022283F8342009E0DB
S21400CAC0FF23BB732B4B012283F8342002E0122392
S21400CAD0BB7300BFBB7BFF2B27D1FB7B012B46D153
S21400CAE07B7B4033DAB27B681A707B6801333A7B13
S21400CAF01A707B68023300221A707B680333322276
S21400CB001A707B68043313221A707B6805338822F8
S21400CB101A707B680633AA221A707B680733AA222B
S21400CB201A700620FFF786FD21E07B687F221A70C8
S21400CB307B6801337A7B1A707B680233BA7B1A7083
S21400CB407B680333AA221A707B680433AA221A7001
S21400CB507B680533AA221A707B680633AA221A70ED
S21400CB607B680733AA221A700320FFF763FD10378D
S21400CB70BD4680BD0804002080B584B000AF786054
S21400CB800123FB732223BB737B681B787B737B6854
S21400CB9001331B7803F07F033B737B6801331B78FC
S21400CBA0DBB25BB2002B01DA0023FB73364B5B8CE7
S21400CBB0022B02D01323BB7316E03B7B012B02D063
S21400CBC0032B07D00DE0FF23BB73304BC822A3F81E
S21400CBD0B42009E0FF23BB732C4BC822A3F8B22075
S21400CBE002E01223BB7300BFBB7BFF2B27D1FB7B6E
S21400CBF0012B46D17B7B4033DAB27B681A707B68A8
S21400CC0001333A7B1A707B680233AA221A707B685B
S21400CC100333AA221A707B680433AA221A707B6830
S21400CC200533AA221A707B680633AA221A707B681C
S21400CC300733AA221A700220FFF7FCFC21E07B686B
S21400CC407F221A707B6801337A7B1A707B68023306
S21400CC50BA7B1A707B680333AA221A707B68043387
S21400CC60AA221A707B680533AA221A707B680633DC
S21400CC70AA221A707B680733AA221A700320FFF7CD
S21400CC80D9FC1037BD4680BD08040020540400209F
S21400CC9080B584B000AF78600123BB732223FB739A
S21400CCA07B681B787B737B6801331B781A047B6870
S21400CCB002331B781B0213437A680332127813433D
S21400CCC0BB60344B93F83430012B02D03123FB7316
S21400CCD00FE0304B5B8C042B02D01323FB7308E071
S21400CCE0BB68002B02D1FF23FB7302E01223FB7309
S21400CCF000BFFB7BFF2B27D1BB7B012B46D17B7B69
S21400CD004033DAB27B681A707B680133AA221A7045
S21400CD107B680233AA221A707B680333AA221A7031
S21400CD207B680433AA221A707B680533AA221A701D
S21400CD307B680633AA221A707B680733AA221A7009
S21400CD400120FFF777FC21E07B687F221A707B6862
S21400CD5001337A7B1A707B680233FA7B1A707B6821
S21400CD600333AA221A707B680433AA221A707B68DF
S21400CD700533AA221A707B680633AA221A707B68CB
S21400CD800733AA221A700320FFF754FC1037BD465B
S21400CD9080BD00BF0804002080B584B000AF786076
S21400CDA00123FB732223BB737B681B787B737B6832
S21400CDB001331B7803F07F033B737B6801331B78DA
S21400CDC0DBB25BB2002B01DA0023FB73514B93F806
S21400CDD03430012B02D03123BB7372E03B7B022B35
S21400CDE002D0042B35D069E04A4B5B8C042B02D072
S21400CDF01323BB732CE0FF23BB737B689B78FB720B
S21400CE00FB7B012B24D17B7B4033DAB27B681A7024
S21400CE107B6801333A7B1A707B68023349221A70AA
S21400CE207B680333AA221A707B680433AA221A701E
S21400CE307B680533AA221A707B680633AA221A700A
S21400CE407B680733AA221A700320FFF7F3FB38E04B
S21400CE5037E0304B5B8C072B02D01323BB732CE0E0
S21400CE60FF23BB737B689B78FB72FB7B012B24D173
S21400CE707B7B4033DAB27B681A707B6801333A7B7F
S21400CE801A707B68023349221A707B680333AA2221
S21400CE901A707B680433AA221A707B680533AA22AC
S21400CEA01A707B680633AA221A707B680733AA2298
S21400CEB01A700320FFF7BEFB03E002E01223BB73E9
S21400CEC000BFBB7BFF2B21D07B687F221A707B685C
S21400CED001337A7B1A707B680233BA7B1A707B68E0
S21400CEE00333AA221A707B680433AA221A707B685E
S21400CEF00533AA221A707B680633AA221A707B684A
S21400CF000733AA221A700320FFF794FB1037BD469A
S21400CF1080BD00BF0804002080B586B000AF7860F2
S21400CF202223FB757B681B78FB747B6801331B78B8
S21400CF309BB21B029AB27B6802331B789BB21344E7
S21400CF403B82B04B5B8C032B02D01323FB7546E26F
S21400CF503B8A4FF28B12934200F001814FF28B1204
S21400CF6093421ADC4FF2821293427FD04FF2821223
S21400CF70934208DC4FF28012934231D04FF2811276
S21400CF80934250D028E24FF28612934271D04FF26D
S21400CF908812934200F093801EE24FF29112934261
S21400CFA000F055814FF2911293420ADC4FF28C1238
S21400CFB0934200F0F7804FF29012934200F01581F2
S21400CFC00AE24FF29812934200F07F81B3F5724F57
S21400CFD000F0E3814FF29312934200F05781FBE199
S21400CFE0FF23FB75FB7C4033DAB27B681A700323A1
S21400CFF03B75854BFB6000237B750DE03B7D7A68B7
S21400D00013447A7DF9680A4412781A703B7D01331E
S21400D0103B757B7D01337B757B7D0E2BEED9122015
S21400D020FFF708FBDBE1FF23FB75FB7C4033DAB23E
S21400D0307B681A7003233B75744BFB6000237B757B
S21400D0400DE03B7D7A6813447A7DF9680A441278CD
S21400D0501A703B7D01333B757B7D01337B757B7D91
S21400D0600E2BEED91220FFF7E5FAB8E13123FB7557
S21400D070B5E1FF23FB75634B93F83430002B02D1E8
S21400D0800123BB750EE05F4B93F83430022B02D1C0
S21400D0900223BB7506E05B4B93F83430012B01D1BD
S21400D0A00323BB75FB7C4033DAB27B681A707B685F
S21400D0B00333BA7D1A700420FFF7BCFA8FE1FF2312
S21400D0C0FB75FB7C4033DAB27B681A7003233B7532
S21400D0D04F4BFB6000237B750DE03B7D7A68134465
S21400D0E07A7DF9680A4412781A703B7D01333B75E5
S21400D0F07B7D01337B757B7D072BEED9454BFB6033
S21400D10000237B750DE03B7D7A6813447A7DF968D1
S21400D1100A4412781A703B7D01333B757B7D0133E0
S21400D1207B757B7D072BEED93B4BFB6000237B7525
S21400D1300DE03B7D7A6813447A7DF9680A441278DC
S21400D1401A703B7D01333B757B7D01337B757B7DA0
S21400D150072BEED93B7D1846FFF76CFA3FE1FF231D
S21400D160FB75FB7C4033DAB27B681A7003233B7591
S21400D1702A4BFB6000237B750DE03B7D7A681344E9
S21400D1807A7DF9680A4412781A703B7D01333B7544
S21400D1907B7D01337B757B7D032BEED90720FFF764
S21400D1A049FA1CE1FF23FB75FB7C4033DAB27B684F
S21400D1B01A7003233B751A4BFB6000237B750DE04A
S21400D1C03B7D7A6813447A7DF9680A4412781A70AF
S21400D1D03B7D01333B757B7D01337B757B7D172B58
S21400D1E0EED91B20FFF726FAF9E0FF23FB75FB7C40
S21400D1F04033DAB27B681A700A4BFB6000237B75FB
S21400D2001EE000BF08040020007F000000FC0100B4
S21400D210107F000020FC010030FC01000000070029
S21400D22000100700008007007B7D03337A681344F4
S21400D2307A7DF9680A4412781A707B7D01337B7513
S21400D2407B7D102BF0D91420FFF7F4F9C7E0FF23FD
S21400D250FB75FB7C4033DAB27B681A70744BFB605C
S21400D26000237B750BE07B7D03337A6813447A7D5D
S21400D270F9680A4412781A707B7D01337B757B7DD2
S21400D280072BF0D90B20FFF7D5F9A8E0FF23FB7595
S21400D290FB7C4033DAB27B681A70664BFB60002377
S21400D2A07B750BE07B7D03337A6813447A7DF968DF
S21400D2B00A4412781A707B7D01337B757B7D002BC8
S21400D2C0F0D00420FFF7B6F989E0FF23FB75FB7C5E
S21400D2D04033DAB27B681A7003233B753B7D7A686D
S21400D2E0134401221A703B7D01333B75524BFB60A1
S21400D2F000237B750DE03B7D7A6813447A7DF968E0
S21400D3000A4412781A703B7D01333B757B7D0133EE
S21400D3107B757B7D162BEED93B7D7A681344022203
S21400D3201A703B7D01333B75444BFB6000237B75D5
S21400D3300DE03B7D7A6813447A7DF9680A441278DA
S21400D3401A703B7D01333B757B7D01337B757B7D9E
S21400D350162BEED93B7D7A68134403221A703B7D68
S21400D36001333B75364BFB6000237B750DE03B7D40
S21400D3707A6813447A7DF9680A4412781A703B7DFD
S21400D38001333B757B7D01337B757B7D162BEED998
S21400D3903B7D1846FFF74EF921E0FF23FB75FB7C2B
S21400D3A04033DAB27B681A70264BFB6000237B752D
S21400D3B00BE07B7D03337A6813447A7DF9680A4470
S21400D3C012781A707B7D01337B757B7D002BF0D045
S21400D3D00420FFF72FF902E01223FB7500BFFB7D48
S21400D3E0FF2B21D07B687F221A707B680133FA7C82
S21400D3F01A707B680233FA7D1A707B680333AA22A0
S21400D4001A707B680433AA221A707B680533AA2236
S21400D4101A707B680633AA221A707B680733AA2222
S21400D4201A700320FFF706F91837BD4680BD00BF07
S21400D43000400700002007000050070018500700B3
S21400D440007007000030070080B584B000AF786039
S21400D4500123FB732223BB737B681B787B737B687B
S21400D46001331B7803F07F033B737B6801331B7823
S21400D470DBB25BB2002B01DA0023FB73414B93F85F
S21400D4803430012B07D03F4B93F83430022B02D0B8
S21400D4907F23BB734EE03B7B012B02D0022B30D0A8
S21400D4A045E0384B5B8C032B02D01323BB7327E07D
S21400D4B0FF23BB73344B93F8BB30DBB2002B01D099
S21400D4C0012300E000239AB2304B1A80FB7B012B2D
S21400D4D016D17B7B4033DAB27B681A707B680333E5
S21400D4E02A4A1288120A92B2D2B21A707B680433A1
S21400D4F0264A1288D2B21A700520FFF79BF819E068
S21400D50018E0204B5B8C052B02D01323BB730DE079
S21400D510FF23BB73FB7B012B08D17B7B4033DAB246
S21400D5207B681A700520FFF785F803E002E01223F7
S21400D530BB7300BFBB7BFF2B21D07B687F221A709A
S21400D5407B6801337A7B1A707B680233BA7B1A7069
S21400D5507B680333AA221A707B680433AA221A70E7
S21400D5607B680533AA221A707B680633AA221A70D3
S21400D5707B680733AA221A700320FFF75BF8103780
S21400D580BD4680BD0804002054040020640200202C
S21400D59080B584B000AF78602223FB730123BB7391
S21400D5A07B681B787B737B6801331B7803F07F03F3
S21400D5B03B737B689B78FB727B6801331B78DBB21E
S21400D5C05BB2002B01DA0023BB73494B93F834306F
S21400D5D0012B07D0464B93F83430022B02D0312370
S21400D5E0FB7335E0424B5B8C032B02D01323FB739B
S21400D5F02EE03B7B002B02D0032B13D025E0FB7ADA
S21400D60003F00103002B06D0FF23FB73394B0022E7
S21400D61083F8BA201CE03123FB73364B002283F8D4
S21400D620BA2015E0FB7A03F00103002B06D0FF2397
S21400D630FB73304B012283F8BA2009E03123FB73D9
S21400D6402C4B002283F8BA2002E01223FB7300BFA3
S21400D650FB7BFF2B27D1BB7B012B46D17B7B40334B
S21400D660DAB27B681A707B680133AA221A707B686C
S21400D6700233AA221A707B680333AA221A707B68C8
S21400D6800433AA221A707B680533AA221A707B68B4
S21400D6900633AA221A707B680733AA221A70012062
S21400D6A0FEF7C8FF21E07B687F221A707B68013393
S21400D6B07A7B1A707B680233FA7B1A707B680333B6
S21400D6C0AA221A707B680433AA221A707B68053374
S21400D6D0AA221A707B680633AA221A707B68073360
S21400D6E0AA221A700320FEF7A5FF1037BD4680BD9C
S21400D6F0080400205404002080B584B000AF786091
S21400D7000123BB732223FB737B681B787B737B68C8
S21400D71001331B7803F07F033B73414B93F834309F
S21400D720012B02D03123FB7329E03D4B5B8C032B8E
S21400D73003D93B4B5B8C082B02D91323FB731EE0EB
S21400D7403B7B013B032B17D801A252F823F000BF06
S21400D75061D7000067D700006DD7000073D70000C0
S21400D760FF23FB730BE0FF23FB7308E0FF23FB7331
S21400D77005E0FF23FB7302E01223FB7300BFFB7B75
S21400D780FF2B27D1BB7B012B46D17B7B4033DAB204
S21400D7907B681A707B680133AA221A707B68023392
S21400D7A0AA221A707B680333AA221A707B68043395
S21400D7B0AA221A707B680533AA221A707B68063381
S21400D7C0AA221A707B680733AA221A700120FEF775
S21400D7D031FF21E07B687F221A707B6801337A7BF9
S21400D7E01A707B680233FA7B1A707B680333AA22AE
S21400D7F01A707B680433AA221A707B680533AA2243
S21400D8001A707B680633AA221A707B680733AA222E
S21400D8101A700320FEF70EFF1037BD4680BD00BF0E
S21400D8200804002080B584B000AF78602223FB7324
S21400D8307B681B78BB737B6801331B789BB21B022B
S21400D8409AB27B6802331B789BB21344BB814C4B65
S21400D85093F83430012B07D0494B93F83430022B21
S21400D86002D03123FB7363E0454B5B8C032B02D85D
S21400D8701323FB735CE0BB894FF2901293424CD0AB
S21400D8804FF2901293420CDC4FF28B1293422FD041
S21400D8904FF28C12934242D04FF28012934215D030
S21400D8A038E04FF2931293423BD04FF293129342DA
