:020000040000FA
:20800000F06F00201184000051E4000059E4000079E4000081E4000089E4000000000000AB
:2080200000000000000000000000000091E4000099E4000000000000A1E40000A9E400003C
:20804000B5E40000BDE40000C5E40000CDE40000D5E40000DDE40000E5E40000EDE4000078
:20806000F5E40000FDE4000005E500000DE5000015E500001DE5000025E500002DE5000052
:2080800035E500003DE5000045E500004DE5000055E500005DE5000065E500006DE5000030
:2080A00075E500007DE5000085E500008DE5000095E500009DE50000A5E50000ADE5000010
:2080C000B5E50000BDE5000031E6000039E6000041E6000049E6000051E6000059E6000062
:2080E00065E6000071E6000079E6000081E6000089E6000091E6000099E60000A1E600002C
:20810000A9E60000C1E60000C9E60000D1E60000D9E60000E1E60000E9E60000F1E6000097
:20812000F9E6000001E7000009E7000011E7000019E7000021E7000029E7000031E7000060
:208140002DE8000035E800003DE8000045E800004DE8000055E800005DE8000065E8000097
:208160006DE8000075E800007DE8000085E800008DE8000095E800009DE80000A5E8000077
:20818000ADE80000B5E8000031E9000039E9000041E9000049E900005DE9000071E9000075
:2081A00079E90000F5E90000FDE9000005EA00000DEA000015EA00001DEA000025EA00009E
:2081C0002DEA000035EA00003DEA000045EA00004DEA000055EA00005DEA000065EA000007
:2081E0006DEA000075EA00007DEA000085EA00008DEA000095EA00009DEA0000A5EA0000E7
:20820000ADEA0000B5EA0000BDEA0000C5EA0000CDEA0000D5EA0000DDEA0000E5EA0000C6
:20822000EDEA0000F5EA0000FDEA0000518400005184000051840000518400005184000078
:20824000518400005184000051840000518400005184000051840000518400005184000076
:20826000518400005184000051840000518400005184000051840000518400005184000056
:20828000518400005184000051840000518400005184000051840000518400005184000036
:2082A000518400005184000051840000518400005184000051840000518400005184000016
:2082C0005184000051840000518400005184000051840000518400005184000051840000F6
:2082E0005184000051840000518400005184000051840000518400005184000051840000D6
:208300005184000051840000518400005184000051840000518400005184000051840000B5
:20832000518400005184000051840000518400005184000051840000518400005184000095
:20834000518400005184000051840000518400005184000051840000518400005184000075
:20836000518400005184000051840000518400005184000051840000518400005184000055
:20838000518400005184000051840000518400005184000051840000518400005184000035
:2083A000518400005184000051840000518400005184000051840000518400005184000015
:2083C0005184000051840000518400005184000051840000518400005184000051840000F5
:2083E00051840000518400005184000051840000518400005184000051840000FFFFFFFFAE
:20840000FFFFFFFFFFFFFFFFFFFFFFFFFE7FFFFF72B60B490A4A0A4B094C094D084E084F70
:20842000B846B946BA46BB46BC4606488546064880470648804762B608F0D8FBFEE7000031
:2084400000000000F06F0020E9060100F90A0100FFF7FEBF80B485B000AFF860B9607A6093
:20846000BB681A68BB6819687B681B68B1FBF3F3D21ABB681A60BB681A68FB681B681A4449
:20848000BB681A60BB681A687B681B68B2FBF3F39BB218461437BD465DF8047B704700BF5E
:2084A00080B582B000AF364B00225A70344B00229A70334B03221A700023FB801CE06A4617
:2084C000FB88C3F1FF2303F57F039B0013442D4A1A606946FA882C4B9B1A9B000B44294A2C
:2084E0001A606946FA88294B9B1A9B000B44254A1A60FB880133FB80FB88032BDFD904F046
:208500006FFA234B4FF08042C3F83021214A214B9B6823F4E06393601D4B4FF08042C3F82C
:2085200030211C4A1B4BDB6823F4E063D360184B4FF08042C3F82421174A174B9B6823F40D
:20854000E0639360144A144B9B6843F480739360124A124B5B6943F0040353610F4A0F4BEA
:208560009B6843F00403936005F000FC06F0CAFA00F0AEFD04F010FD0837BD4680BD00BF46
:2085800000000020DEC0ADDE00FEFFFF00FDFFFF0050064000C004400090044000F00F40EE
:2085A00080B582B000AF0023FB8006F005FB314B9A88314B9A81304B9B899BB21A462F4B16
:2085C0009A602F482D492F4AFFF744FF03461A46294BDA81274BDB881B09FB80FB88FE2B6A
:2085E00001D9FE23FB80FB88274A32F81320224B1A8100F05DFF254B93F83430022B0ED1F5
:20860000234BA5221A70224BA5225A70204BA5229A701F4BA522DA7005F0E2FCFEE704F03A
:20862000EDFD154B9B7DDBB2052B1ED801A252F823F000BF4D8600006B86000053860000C9
:20864000598600005F8600006586000004F0FCF90CE004F06BFA09E004F0DAFA06E004F0B2
:2086600031FB03E004F05EFB00E000BF0837BD4680BD00BFC0050020A40500200084FF1F71
:208680000884FF1F0484FF1F180C010034050020F06F002080B582B000AF00237B60254B09
:2086A0001B78032B41D801A252F823F0BD860000EB860000118700001F8700001E4B1B88E2
:2086C00001339AB21C4B1A8006F076FA1A4B1B88642B09D9184B00221A80164B1B780133F3
:2086E000DAB2144B1A7021E020E006F065FA134B5B8A7B60786800F0F1FA0346DAB2104BA6
:208700009A750C4B1B780133DAB20A4B1A700DE0084B1B780133DAB2064B1A7006E005F078
:208720003BFC012008F02EF900E000BF0837BD4680BD00BF0300002004000020C0050020B9
:20874000A405002080B500AF0E4B1B78012B0DD0022B14D0002B00D012E00A4B1B7801335D
:20876000DAB2084B1A7004F0E9FE09E005F026FC044B1B780133DAB2024B1A7000E000BF9D
:2087800080BD00BF0600002080B500AF044B9B7DDBB2012B00D002E000F004F800BF80BD19
:2087A000A405002080B582B000AFA44B1B7CFB71A24B1B7FBB71A14B9B7A7B719F4B5B7C87
:2087C0003B719E4BDB7EFB709C4B5B7ABB709B4B1B7A7B709A4B1B7EDBB2012B40F04082CA
:2087E000984B5B78132B00F2358201A252F823F041880000DD8900001D8A00009F8A0000DD
:20880000C58A0000F58A00001B8B00005F8C00005F8C000089890000E5880000FD89000009
:208820004D8B0000A78B0000CD8B0000FD8B0000238C00005F8C00005F8C0000B38900008D
:20884000814B1B78012B02D1BB79002B06D07F4B1B78012B06D1FB79002B03D1794B0222CA
:208860005A703EE0784B1B78002B06D1BB79012B03D1744B04225A7033E0BB78002B0AD189
:20888000724B1B78002B06D1FB79012B03D16D4B06225A7025E0FB79012B0DD16C4B1B789B
:2088A000002B09D17B79012B06D1694B01221A70644B04225A7014E0FB79012B0DD1644B9B
:2088C0001B78012B09D17B79002B06D1604B00221A705C4B06225A7003E05A4B09225A709C
:2088E000BEE1BDE15B4B1B78012B02D1FB78002B06D0594B1B78012B06D13B79002B03D1A2
:20890000504B0C225A703EE0524B1B78002B06D1FB78012B03D14B4B0E225A7033E0BB782B
:20892000002B0AD14C4B1B78002B06D13B79012B03D1444B10225A7025E03B79012B0DD103
:20894000464B1B78002B09D1BB78012B06D1434B01221A703B4B0E225A7014E03B79012B29
:208960000DD13E4B1B78012B09D1BB78002B06D13A4B00221A70334B10225A7003E0314BB8
:2089800013225A706CE16BE1354B1B780133DAB2334B1A70324B1B78042B03D8294B0022B4
:2089A0005A705DE12E4B00221A70264B0A225A7056E12B4B1B780133DAB2294B1A70284BB2
:2089C0001B78042B03D81F4B0A225A7048E1244B00221A701B4B00225A7041E1002000F0D2
:2089E0004DF90346002B04D0164B1A78154B5A7036E1144B9A78134B5A7031E1012000F0F9
:208A00003DF90346002B04D00E4B1A780D4B5A7026E10C4B9A780B4B5A7021E1094B0222C1
:208A20001A70084B09229A70FB79012B1AD1064B00221A70034B06225A7011E170050020D5
:208A4000A4050020080000200B0000200C0000200D0000200E0000200F0000201000002014
:208A600011000020BB79012B06D17F4B00221A707E4B04225A70F3E004F094FE0346012B91
:208A800000D0EDE0002004F0B7FD774B00221A70774B00221A70754B01225A70E0E0734B6A
:208AA00003221A70714B09229A7004F07BFE0346012B00D0D4E0002004F066FD6B4B012260
:208AC0005A70CDE0694B04221A70684B03229A7004F068FE0346012B00D0C1E01E2000213A
:208AE000012200F0CFFA624B01221A705F4B01225A70B5E05D4B05221A705C4B09229A70DF
:208B000004F050FE0346012B00D0A9E0002004F03BFD564B01225A70A2E0544B06221A7098
:208B2000524B05229A7004F03DFE0346012B00D096E04FF4C8700021012200F0A3FA4A4B9C
:208B400001221A70494B01225A7089E0474B0C221A70464B13229A703B79012B06D1454B1D
:208B600000221A70414B10225A7079E0FB78012B06D1414B00221A703C4B0E225A706FE0EA
:208B800004F010FE0346012B00D069E0012004F033FD394B00221A70364B00221A70334B25
:208BA0000B225A705CE0314B0D221A702F4B13229A7004F0F7FD0346012B00D050E0012016
:208BC00004F0E2FC294B0B225A7049E0274B0E221A70264B0D229A7004F0E4FD0346012B0F
:208BE00000D03DE01E200121012200F04BFA214B01221A701D4B0B225A7031E01B4B0F22B0
:208C00001A701A4B13229A7004F0CCFD0346012B00D025E0012004F0B7FC144B0B225A7001
:208C20001EE0124B10221A70104B0F229A7004F0B9FD0346012B00D012E04FF4C870012109
:208C4000012200F01FFA0C4B01221A70074B0B225A7005E0054B00225A7000BF00E000BF1C
:208C60000837BD4680BD00BF0C000020080000200B0000200E0000200F00002080B582B073
:208C800000AF0346FB71FB79184604F067FD0346002B12D0104B1B8840F2E632934207D8F4
:208CA0000D4B1B8801339AB20B4B1A8001230FE0094B00221A8000230AE0074B1B88002BF9
:208CC00005D0054B1B88013B9AB2034B1A80002318460837BD4680BD1200002080B584B0C1
:208CE00000AF78607B689AB2974B5A820123FB73954B40F215725A80934B40F216729A8049
:208D00007B68B3F5FA7F6FD80023FB738E4B40F245625A808C4B40F246629A808B4B4FF00B
:208D20008042C3F824218A4A894B1B6823F4E0631360874A864B1B6843F480731360854AE8
:208D4000844B5B6943F001035361804B4FF08042C3F83021804A804B1B6C23F4E0631364D0
:208D60007D4A7D4B1B6C43F4807313647B4A7B4B5B6943F480335361744B4FF08042C3F8D4
:208D80003421774A764B5B6A23F4E0635362744A734B5B6A43F480735362724A714B5B69CC
:208DA00043F400735361694B4FF08042C3F834216B4A6B4B1B6A23F4E0631362684A684B6C
:208DC0001B6A43F480731362664A664B5B6943F4807353614FF4C87006F03EFE06F03CFF8E
:208DE000002006F093FF20E17B68B3F5FA7F0FD97B6840F2DC5293420AD80123FB73524BB5
:208E000040F215725A80504B40F216729A800CE17B6840F2DC52934274D97B6840F6C4120F
:208E200093426FD80223FB73474B40F24D625A80454B40F24E629A80444B4FF08042C3F85F
:208E40002421434A424B1B6823F4E0631360404A3F4B1B6843F4807313603E4A3D4B5B695B
:208E600043F001035361394B4FF08042C3F83021394A394B1B6C23F4E0631364364A364B16
:208E80001B6C43F480731364344A344B5B6943F4803353612D4B4FF08042C3F83421304A48
:208EA0002F4B5B6A23F4E06353622D4A2C4B5B6A43F4807353622B4A2A4B5B6943F400737A
:208EC0005361224B4FF08042C3F83421244A244B1B6A23F4E0631362214A214B1B6A43F49C
:208EE000807313621F4A1F4B5B6943F4807353614FF4C87006F0B0FD06F0AEFE002006F0BF
:208F000005FF92E07B6840F6C41293422CD97B68B3F5616F28D80323FB730B4B40F2FD623C
:208F20005A80094B40F2FE629A804FF4C87006F093FD06F091FE002006F0E8FE06F0FEFDE4
:208F4000002006F055FE70E0A4050020005006400090044000F00F4000C00440C0F00F40E3
:208F600000D0044000F10F407B68B3F5616F34D97B6841F2941293422FD80423FB732E4B8F
:208F800040F2ED625A802C4B40F2EE629A802B4B4FF08042C3F83021294A294B1B6C23F45B
:208FA000E0631364264A264B1B6C43F480731364244A244B5B6943F4803353614FF4C87034
:208FC00006F04AFD06F048FE002006F09FFE06F0B5FD002006F00CFE27E07B6841F29412DA
:208FE000934218D90523FB73134B40F205725A80114B40F206729A804FF4C87006F02CFD7A
:2090000006F02AFE002006F081FE06F097FD002006F0EEFD09E00123FB73074B40F215728C
:209020005A80054B40F216729A80FB7B9BB218461037BD4680BD00BFA4050020005006406C
:2090400000C00440C0F00F4080B483B000AF0346FB800C37BD465DF8047B704780B483B0FB
:2090600000AF0346FB800C37BD465DF8047B704780B483B000AF0346FB800C37BD465DF837
:20908000047B704780B584B000AF0346FB800B467B7113463B71FB88B3F57A7F02D94FF43A
:2090A0007A73FB80FB889B00FB81FB88B3F57A7F02D14FF48053FB81F9897A793B790846AE
:2090C00011461A4604F0D0FA1037BD4680BD00BF80B582B000AF734B00221A70714B012276
:2090E0005A70704B01229A700023FB71CFE0FA796D4913469B0013445B000B441B88184661
:20910000FA79694913469B0013445B000B445B881946664A03465B000344DB0013440833EB
:209120001960FA79604913469B0013445B000B441B881846FA795C4913469B0013445B00E6
:209140000B441979594A03465B000344DB00134408330A461A71FA79534913469B001344FE
:209160005B000B441B881946504A0B465B000B44DB001344083300229A71FA794A491346B5
:209180009B0013445B000B441B881946474A0B465B000B44DB001344083300225A71FA79D8
:2091A000414913469B0013445B000B441B881846FA793D4913469B0013445B000B44083306
:2091C00019783A4A03465B000344DB0013440A461A70FA79344913469B0013445B000B449E
:2091E0001B881846FA79304913469B0013445B000B44D9882D4A03465B000344DB00134498
:209200000A465A80FA79284913469B0013445B000B441B881946FB7998B2244A0B465B0071
:209220000B44DB00134402469A80FA791E4913469B0013445B000B441B8819461B4A0B46C4
:209240005B000B44DB0013444FF6FF72DA800023BB7116E0FA79144913469B0013445B0067
:209260000B441B881846BA79104903465B000344DB000B44134408330022DA71BB79013396
:20928000BB71BB79072BE5D9FB790133FB71FB79172B7FF62CAF064B00221A800023FB71C8
:2092A000E6E000BF14000020600E0100C4000020C0000020FA797A4913469B0013445B00E6
:2092C0000B441B881846FA79754913469B0013445B000B445B881946724A03465B0003442F
:2092E000DB00134408331960FA796D4913469B0013445B000B441B881846FA7968491346EC
:209300009B0013445B000B441979664A03465B000344DB00134408330A461A71FA79604920
:2093200013469B0013445B000B441B8819465D4A0B465B000B44DB001344083300229A71FA
:20934000FA79574913469B0013445B000B441B881946544A0B465B000B44DB0013440833FD
:2093600000225A71FA794E4913469B0013445B000B441B881846FA79494913469B001344B0
:209380005B000B4408331978464A03465B000344DB0013440A461A70FA79414913469B00DF
:2093A00013445B000B441B881846FA793C4913469B0013445B000B44D9883A4A03465B0035
:2093C0000344DB0013440A465A80FA79344913469B0013445B000B441B881946314A0B4637
:2093E0005B000B44DB00134400229A71FA792C4913469B0013445B000B441B881946294A12
:209400000B465B000B44DB0013440022DA71FA79234913469B0013445B000B441B881946DC
:20942000204A0B465B000B44DB00134400229A800023BB7116E0FA79194913469B001344F4
:209440005B000B441B881846BA79164903465B000344DB000B44134408330022DA71BB7987
:209460000133BB71BB79072BE5D9FB790133FB71FB79062B7FF61EAF012005F05DFC0A48AC
:2094800005F0BCFF094805F0C7FF00F077FB01F01BF801F0D1F805F0C9FE0837BD4680BDB5
:2094A000180E010018000020F5990000719B000080B500AF00F098FAB04B1B884FF6FF72F9
:2094C000934205D0AD4B1B8801339AB2AB4B1A80AB4B1B78DBB2012B01D100F073F900F0D7
:2094E000ABFB01F021F8A64BDB7DDBB2012B18D1A44B002283F83020A24B002283F89020BB
:20950000A04B002283F8F0209E4B002283F850219C4B002283F8B0219A4B002283F81022B3
:209520003FE0974B9B7DDBB2002B04D1954B012283F8902035E0924B9B7DDBB2012B04D1BF
:20954000904B012283F830202BE08D4B9B7DDBB2022B04D18B4B012283F8F02021E0884B60
:209560009B7DDBB2032B04D1864B012283F8B02117E0834B9B7DDBB2042B04D1814B0122A6
:2095800083F850210DE07E4B9B7DDBB2052B04D17C4B012283F8102203E07A4B012283F8A2
:2095A0003020794B1B78C3F30103DBB21A46774B5A71754B1B78C3F38103DBB21A46734B98
:2095C0009A71714B1B78C3F30113DBB21A466F4BDA716D4B1B78C3F38113DBB21A466B4B3D
:2095E0001A72694B5B78C3F30103DBB21A46674B5A72654B5B78C3F38103DBB21A46634BDB
:209600009A72614B5B78C3F30113DBB21A465F4BDA725D4B5B78C3F38113DBB21A465B4BBA
:209620001A73594B5B88DAB2584B5A73564B1B79C3F38103DBB21A46544BDA73524B1B79A1
:20964000C3F30103DBB21A46504B9A734E4B1B79C3F38113DBB21A464C4B1A744A4B1B7909
:20966000C3F30113DBB21A46484B5A74464B5B79C3F30103DBB21A46444B9A74424B5B79C8
:20968000C3F38103DBB21A46404BDA743E4B5B79C3F30113DBB21A463C4B1A753A4B5B7947
:2096A000C3F38113DBB21A46384B5A75384B1B78C3F38103DBB21A46344BDA75344B1B7804
:2096C000C3F30103DBB21A46304B9A75304B1B78C3F30113DBB21A462C4B1A762C4B1B7883
:2096E000C3F38113DBB21A46284B5A76284B5B78C3F30303DBB21A46244B9A76244B5B7840
:20970000C3F30113DBB21A46204BDA76204B5B78C3F38113DBB21A461C4B1A771C4B9B78F0
:20972000C3F30103DBB21A46184B5A77184B9B78C3F38103DBB21A46144B9A77144B9B78CF
:20974000C3F30113DBB21A46104BDA77104B9B78C3F38113DBB21A460C4B83F820200D4B97
:209760005B78012B02D0022B16D003E0094B02229A7012E0074B01229A700EE0C000002061
:20978000A4050020C40000206F00002070050020870000201400002000BF044B5A78034BEF
:2097A0001A70024B9A78014B5A7080BD1400002080B483B000AF0346FB710C37BD465DF8D3
:2097C000047B704780B582B000AF72B60023FB711EE0FA79134913465B001344DB000B4484
:2097E0009B88002B11D0FA790E4913465B001344DB000B449B88013B98B20A4913465B008B
:209800001344DB000B4402469A80FB790133FB71FB79172BDDD962B600F006F80837BD469D
:2098200080BD00BFC400002090B587B000AF05F0B3FD0023FB75CBE000237B75FA7D6949FE
:2098400013465B001344DB000B449B88002B15D1FA7D644913465B001344DB000B441B78B3
:20986000012B0BD1FA7D5F4913465B001344DB000B44DB88002B01D001237B757B7D012BF5
:2098800040F0A380FB7D1846FFF792FFFA7D554913465B001344DB000B4408331B687B6035
:2098A000FA7D504913465B001344DB000B4408331B7903F03F03DAB23B7A62F387033B7292
:2098C000FA7D484913465B001344DB000B4408339B7903F00103DAB23B7A62F341033B727E
:2098E000FA7D404913465B001344DB000B4408335B7903F00103DAB23B7A62F300033B72E7
:209900000023BB7513E0B97DFA7DB87D354C13465B001344DB00234403440833DA7907F184
:2099200018030B4403F80F2CBB7D0133BB75FA7D2C4913465B001344DB000B4408331B79FB
:20994000BA7D9A42DFD33B1D184605F073FD03463B753B7D012B38D1FA7DF97D21480B469A
:209960005B000B44DB00034458881E4913465B001344DB000B4402469A80FA7D194913460B
:209980005B001344DB000B44DB884FF6FF7293421BD0FA7D134913465B001344DB000B440A
:2099A000DB88002B11D0FA7D0E4913465B001344DB000B44DB88013B98B20A4913465B0045
:2099C0001344DB000B440246DA80FB7D0133FB75FB7D172B7FF630AF05F09CFC1C37BD4657
:2099E00090BD00BFC400002080B400AFBD465DF8047B704790B585B000AF7860594B00223F
:209A00001A80594B5B889BB21A467B681B689A420AD07B681B68B3F5E06F05D07B681B68C4
:209A200040F2DF72934203D1786800F067FC95E07B681B6840F2F972934203D1786800F0D6
:209A4000BBFD8BE00023FB7384E0FA7B474913465B001344DB000B4408331A687B681B6891
:209A60009A4274D1FA7B414913465B001344DB000B441B78012B6AD1FA7B7B6819683B483B
:209A800013465B001344DB00034408331960FA7B7B681B79C3F38503DBB2184633491346FB
:209AA0005B001344DB000B44083302461A71FA7B7B681B79C3F34003DBB218462B4913461F
:209AC0005B001344DB000B44083302469A71FA7B7B681B79C3F30003DBB2184623491346C7
:209AE0005B001344DB000B44083302465A710023BB7312E0FA7BB97BBB7B786803445C791E
:209B00001A4813465B001344DB0003440B4408332246DA71BB7B0133BB73BB7B7A6812793E
:209B2000C2F38502D2B29342E4DBFA7B0F4913465B001344DB000B449B790133D8B20B49A9
:209B400013465B001344DB000B4402469A71FB7B0133FB73FB7B062B7FF677AF1437BD46D5
:209B600090BD00BFC0000020A40500201800002080B500AFFFF758FE80BD00BF80B500AFE8
:209B800000F002F880BD00BF80B483B000AF264B00221A70244B01225A70234B01229A70B5
:209BA0000023FB7106E0FB79204A0021D154FB790133FB71FB79632BF5D91D4B00221A8004
:209BC0001C4B002283F820201A4B002283F82120184B002283F82620164B002283F8272073
:209BE000144B002283F83420124B0022DA86114B002283F838200023FB710CE0FB790D4A9F
:209C0000134400225A71FB790A4A134400225A75FB790133FB71FB79072BEFD90C37BD4628
:209C20005DF8047B704700BF04030020080300206C0300203405002080B582B000AF844BBB
:209C4000DB8E002B17D0824BDB8E013B9AB2804BDA867F4BDB8E002B0DD17D4B93F83430AD
:209C6000012B04D07A4B93F83430022B03D1784B002283F83420764B5B8E4FF6FF72934246
:209C800005D0734B5B8E01339AB2714B5A86714B5B78013B062B00F2FE8201A252F823F0BE
:209CA000BD9C0000019D0000F19D0000699E00009F9F0000CDA000009DA10000654B5A78AD
:209CC000644B1B789A4202D0634B00221A80604B93F826205E4B93F827309A4203D05D4BCC
:209CE00005229A700BE05A4B93F82020584B93F821309A4203D0574B02229A70CFE2CEE279
:209D0000544B5A78534B1B789A4205D0504B93F820204F4B83F821204D4B5B791B029AB25F
:209D20004B4B9B799BB213439BB2BB80BB8803F470431B0A002B27D1BB8803F470631B0AE7
:209D40009AB2434B5A84444B00221A800123FB7111E0414B1B881946FB793D4A13445A79CC
:209D60003E4B5A543C4B1B8801339AB23A4B1A80FB790133FB71FB79072BEAD900F0E4FA98
:209D8000344B01229A7032E0BB8803F470431B0A102B28D1BB88C3F30B039AB22C4B5A8417
:209DA0002B4B012283F82C202B4B00221A800223FB7111E0284B1B881946FB79244A1344E1
:209DC0005A79264B5A54244B1B8801339AB2224B1A80FB790133FB71FB79072BEAD91D4B13
:209DE00003229A7003E01B4B01229A7057E256E2184B5A78174B1B789A421ED0184B9B88D3
:209E00009BB21A46124B1A61114A137D032161F3870313750E4A137D6FF3410313750C4ADC
:209E2000137D6FF300031375094B30225A75084B0A229A75064B0322DA750A4805F0FAFAA2
:209E40000346002B03D0034B04229A7027E226E234050020040300206C03002008030020F2
:209E6000A405002044050020924B5A78914B1B789A4205D0904B00229A848F4B00225A85EB
:209E80008D4B5B8D01339AB28B4B5A858A4B5B8D44F62062934202D9864B01229A70864BD5
:209EA00093F82020844B93F821309A4276D0824B93F82020804B83F821207F4B00225A8520
:209EC0007D4B5B7903F0F003202B63D17A4B93F82C301A46784B5B7903F00F039A4259D1D3
:209EE000754B93F82C300133DAB2734B83F82C20714B93F82C300F2B03D96F4B002283F866
:209F00002C200123FB7121E06C4B1B88632B1AD86A4B1B881946FB79674A13445A79684BD1
:209F20005A54664B1B8801339AB2644B1A80624B5A8C624B1B889A4200D80AE05F4B1B8888
:209F4000632B00D905E0FB790133FB71FB79072BDAD9594B9B8C01339AB2574B9A84564B9C
:209F60009B8C092B02D9534B03229A70524B5A8C524B1B889A4204D800F0E6F94D4B0122D9
:209F80009A704E4B1B88632B03D94A4B01229A7004E003E0474B01229A7080E17FE1454B78
:209FA0005A78444B1B789A426DD0434B93F82620414B83F82720434B9B889BB21A463E4B00
:209FC0001A613D4A137D6FF3000313753A4A137D6FF341031375384A137D082161F38703A7
:209FE0001375354B1B8D072B21D8334B1B8DDAB2314B5A75314B00221A800123FB7112E0CF
:20A00000FB792E4A128811462D4A515C2A4A13440A465A75294B1B8801339AB2274B1A80B2
:20A02000FB790133FB71FB79072BE9D92BE0224B1B8D03F470631B0ADBB243F01003DAB236
:20A040001D4B5A751C4B1B8DDAB21B4B9A751B4B00221A800223FB7112E0FB79174A1288A5
:20A060001146174A515C144A13440A465A75134B1B8801339AB2114B1A80FB790133FB711C
:20A08000FB79072BE9D9104805F0D4F90346002B0FD0094B1B8D072B03D8064B01229A7064
:20A0A00007E0044B06229A70034B012283F82C20F5E0F4E004030020340500206C03002048
:20A0C00008030020A405002044050020794B5A78784B1B789A4202D0774B00225A85764B05
:20A0E0005B8D01339AB2744B5A85734B5B8D44F62062934202D96F4B01229A706E4B93F81D
:20A1000020206D4B93F821309A4246D06A4B93F82020694B83F82120674B5B7903F0F0031D
:20A12000302B36D1644B5B7903F00F03002B1CD1614B9B79002B04D15F4BFF2283F82D20CA
:20A1400004E05D4B9A795C4B83F82D205A4B002283F82E20584BDB799BB201339AB2564BFC
:20A160001A86544B07229A7017E0534B5B7903F00F03012B11D0504B5B7903F00F03022B51
:20A1800003D14C4B01229A7007E04A4B01229A7085E0484B01229A7081E080E0464B5A8E1F
:20A1A000454B1B8E9A4275D9434B00225A86434B9B889BB21A46404B1A613F4A137D6FF3CD
:20A1C000000313753C4A137D6FF3410313753A4A137D082161F387031375374B93F82C30A4
:20A1E00043F02003DAB2344B5A750123FB7119E0FB79334A12881146324A515C2E4A1344CC
:20A200000A465A752E4B1B8801339AB22C4B1A80294B1A8D2A4B1B889A4200D805E0FB7932
:20A220000133FB71FB79072BE2D9234B93F82C300133DAB2204B83F82C201F4B93F82C3085
:20A240000F2B03D91C4B002283F82C201E4805F0F1F80346002B1DD0174B1A8D184B1B88E4
:20A260009A4203D8134B01229A7013E0124B93F82E300133DAB2104B83F82E200E4B93F89B
:20A280002E200D4B93F82D309A4203D3094B06229A7004E003E0074B01229A7000BF054BA3
:20A2A0005A78044B1A70034B9A78024B5A700837BD4680BD0403002034050020A4050020B4
:20A2C0006C030020080300204405002080B483B000AF0346FB71FB799AB2074B1A85064B8E
:20A2E00093F826300133DAB2034B83F826200C37BD465DF8047B70473405002080B485B01B
:20A3000000AF78600023FB730BE0FB7BFA7B79680A4451790B4A13440A465A71FB7B0133E5
:20A32000FB73FB7B072BF0D9064B93F820300133DAB2044B83F820201437BD465DF8047B26
:20A34000704700BF3405002080B582B000AF0023FB71594B1B78102B04D10123FB71564814
:20A3600000F070F9544B1B78112B04D10123FB71514800F0F9F9504B1B78142B04D10123D0
:20A38000FB714D4800F072FA4B4B1B78192B04D10123FB71484800F0EDFA474B1B78222BB5
:20A3A00004D10123FB71444800F0A4FB424B1B78272B04D10123FB713F4800F061FD3E4BE8
:20A3C0001B78282B04D10123FB713B4800F0EEFD394B1B782A2B04D10123FB71364800F095
:20A3E00095FE354B1B782E2B04D10123FB71324800F022FF304B1B782F2B04D10123FB71A1
:20A400002D4801F0BFF82C4B1B78312B04D10123FB71294802F04AF9274B1B783E2B04D16B
:20A420000123FB71244802F0D5F9234B1B78852B04D10123FB71204802F048FAFB79002B0F
:20A4400032D11E4B9B889BB21A461D4B1A611C4A137D082161F387031375194A137D6FF303
:20A4600041031375164A137D6FF300031375144B7F225A75104B1A78114B9A75104B11227E
:20A48000DA750F4BAA221A760D4BAA225A760C4BAA229A760A4BAA22DA76094BAA221A776E
:20A4A000084804F0C7FF03E0054B41F28832DA860837BD4680BD00BF08030020A4050020E0
:20A4C000340500204405002080B400AF0F4B00221A700E4B00229A700C4B04225A700C4BAE
:20A4E00000221A700B4B00221A700B4B00221A800A4B00221A800A4B00221A70094B002214
:20A500001A70BD465DF8047B704700BF7003002075030020760300207A0300207C03002064
:20A52000730300207403002080B500AF1D4B1A781D4B1B789A420AD01C4B0022DA751B4B21
:20A5400001221A76174B1A78174B1A7028E0184B1B8840F6C312934206D8154B1B88013365
:20A560009AB2134B1A801BE0114B1B8840F6C312934215D90D4B0122DA750C4B00221A76FC
:20A580000C4B1B8801339AB20A4B1A80094B1B88B3F5FA6F04D202F0D1FF022006F0F2F9AF
:20A5A00080BD00BF7303002074030020A4050020780300207A03002080B489B000AF78607D
:20A5C0000023FB770CE0FB7FFA7F79680A44527907F120010B4403F80F2CFB7F0133FB774F
:20A5E000FB7F072BEFD907F10C0305339B78C3F3C003DBB21A460B4B1A700B4B1B78013332
:20A60000DAB2094B1A70094B00221A80084B00221A80084B00221A802437BD465DF8047B70
:20A62000704700BF76030020730300207C030020780300207A03002080B400AFBD465DF863
:20A64000047B704780B584B000AF78600123FB732223BB737B681B787B737B6801331B78C1
:20A6600003F07F033B737B6801331B78DBB25BB2002B01DA0023FB733A4B5B8C022B02D071
:20A680001323BB731EE03B7B022B0AD0032B0FD0012B14D1FF23BB73324B002283F83420BF
:20A6A00010E0FF23BB732F4B022283F8342009E0FF23BB732B4B012283F8342002E0122335
:20A6C000BB7300BFBB7BFF2B27D1FB7B012B46D17B7B4033DAB27B681A707B6801333A7B4E
:20A6E0001A707B68023300221A707B68033332221A707B68043313221A707B680533882277
:20A700001A707B680633AA221A707B680733AA221A700620FFF7DAFD21E07B687F221A70C8
:20A720007B6801337A7B1A707B680233BA7B1A707B680333AA221A707B680433AA221A70CD
:20A740007B680533AA221A707B680633AA221A707B680733AA221A700320FFF7B7FD10378F
:20A76000BD4680BD3405002080B584B000AF78600123FB732223BB737B681B787B737B6804
:20A7800001331B7803F07F033B737B6801331B78DBB25BB2002B01DA0023FB73324B5B8C90
:20A7A000022B02D01323BB730EE03B7B012B02D0032B03D005E0FF23BB7305E0FF23BB7329
:20A7C00002E01223BB7300BFBB7BFF2B27D1FB7B012B46D17B7B4033DAB27B681A707B681F
:20A7E00001333A7B1A707B680233AA221A707B680333AA221A707B680433AA221A707B68B6
:20A800000533AA221A707B680633AA221A707B680733AA221A700220FFF758FD21E07B6874
:20A820007F221A707B6801337A7B1A707B680233BA7B1A707B680333AA221A707B680433F7
:20A84000AA221A707B680533AA221A707B680633AA221A707B680733AA221A700320FFF733
:20A8600035FD1037BD4680BD3405002080B584B000AF78600123BB732223FB737B681B785B
:20A880007B737B6801331B781A047B6802331B781B0213437A68033212781343BB60344B53
:20A8A00093F83430012B02D03123FB730FE0304B5B8C042B02D01323FB7308E0BB68002BBD
:20A8C00002D1FF23FB7302E07223FB7300BFFB7BFF2B27D1BB7B012B46D17B7B4033DAB26B
:20A8E0007B681A707B680133AA221A707B680233AA221A707B680333AA221A707B68043387
:20A90000AA221A707B680533AA221A707B680633AA221A707B680733AA221A700120FFF774
:20A92000D5FC21E07B687F221A707B6801337A7B1A707B680233FA7B1A707B680333AA22A5
:20A940001A707B680433AA221A707B680533AA221A707B680633AA221A707B680733AA2231
:20A960001A700320FFF7B2FC1037BD4680BD00BF3405002080B584B000AF78600123BB73A5
:20A980002223FB737B681B787B737B6801331B7803F07F033B737B6801331B78DBB25BB28F
:20A9A000002B02DA0023BB737AE0514B93F83430012B02D03123FB7372E03B7B022B02D093
:20A9C000042B35D069E04A4B5B8C042B02D01323FB732CE0FF23FB737B689B78FB72BB7BA4
:20A9E000012B24D17B7B4033DAB27B681A707B6801333A7B1A707B68023349221A707B688E
:20AA00000333AA221A707B680433AA221A707B680533AA221A707B680633AA221A707B6874
:20AA20000733AA221A700320FFF750FC38E037E02F4B5B8C072B02D01323FB732CE0FF23BB
:20AA4000FB737B689B78FB72BB7B012B24D17B7B4033DAB27B681A707B6801333A7B1A7016
:20AA60007B68023349221A707B680333AA221A707B680433AA221A707B680533AA221A7079
:20AA80007B680633AA221A707B680733AA221A700320FFF71BFC03E002E01223FB7300BF7A
:20AAA000FB7BFF2B21D07B687F221A707B6801337A7B1A707B680233FA7B1A707B68033331
:20AAC000AA221A707B680433AA221A707B680533AA221A707B680633AA221A707B680733B0
:20AAE000AA221A700320FFF7F1FB1037BD4680BD3405002080B584B000AF78602223FB7378
:20AB00007B681B787B737B6801331B789BB21B029AB27B6802331B789BB213447B81C14B1A
:20AB20005B8C032B02D01323FB7380E17B894FF28112934200F0E2804FF28112934238DC6D
:20AB40004FF21502934200F0A2804FF21502934215DC4FF21102934278D04FF211029342FE
:20AB600004DC4FF21002934265D05DE14FF21202934276D04FF2130293427DD054E14FF2FC
:20AB80005A12934200F099804FF25A12934205DC4FF21012934200F0858045E14FF25B1207
:20ABA000934200F095804FF28012934200F09B803AE14FF28C12934200F0F2804FF28C12F8
:20ABC000934219DC4FF28812934200F0C8804FF28812934205DC4FF28612934200F099807B
:20ABE00022E14FF28A12934200F0C4804FF28B12934200F0CA8017E14FF29312934200F0DC
:20AC0000F0804FF2931293420ADC4FF29012934200F0D1804FF29112934200F0D78003E146
:20AC20004FF29712934200F0E7804FF2A012934200F0ED80F8E0FF23FB737B7B4033DAB27C
:20AC40007B681A700320FFF741FBF0E0FF23FB737B7B4033DAB27B681A700320FFF736FB26
:20AC6000E5E0FF23FB737B7B4033DAB27B681A700320FFF72BFBDAE0FF23FB737B7B40332B
:20AC8000DAB27B681A700320FFF720FBCFE0FF23FB737B7B4033DAB27B681A700320FFF7CD
:20ACA00015FBC4E0FF23FB737B7B4033DAB27B681A700320FFF70AFBB9E0FF23FB737B7BB1
:20ACC0004033DAB27B681A700320FFF7FFFAAEE0FF23FB737B7B4033DAB27B681A70032053
:20ACE000FFF7F4FAA3E0FF23FB737B7B4033DAB27B681A700320FFF7E9FA98E0FF23FB73F7
:20AD00007B7B4033DAB27B681A700320FFF7DEFA8DE0FF23FB73434B93F83430002B02D168
:20AD20000123BB730EE03F4B93F83430022B02D10223BB7306E03B4B93F83430012B01D1AE
:20AD40000323BB737B7B4033DAB27B681A707B680333BA7B1A700420FFF7B8FA67E0FF2330
:20AD6000FB737B7B4033DAB27B681A700320FFF7ADFA5CE0FF23FB737B7B4033DAB27B689F
:20AD80001A700320FFF7A2FA51E0FF23FB737B7B4033DAB27B681A700320FFF797FA46E081
:20ADA000FF23FB737B7B4033DAB27B681A700320FFF78CFA3BE0FF23FB737B7B4033DAB262
:20ADC0007B681A700320FFF781FA30E0FF23FB737B7B4033DAB27B681A700320FFF776FAE7
:20ADE00025E0FF23FB737B7B4033DAB27B681A700320FFF76BFA1AE0FF23FB737B7B4033EB
:20AE0000DAB27B681A700320FFF760FA0FE0FF23FB737B7B4033DAB27B681A700320FFF7CC
:20AE200055FA04E0340500201223FB7300BFFB7BFF2B21D07B687F221A707B6801337A7B79
:20AE40001A707B680233FA7B1A707B680333AA221A707B680433AA221A707B680533AA228B
:20AE60001A707B680633AA221A707B680733AA221A700320FFF72AFA1037BD4680BD00BFE0
:20AE800080B584B000AF78600123FB732223BB737B681B787B737B6801331B7803F07F033A
:20AEA0003B737B6801331B78DBB25BB2002B01DA0023FB733B4B93F83430012B07D0394B0D
:20AEC00093F83430022B02D07F23BB7342E03B7B012B02D0022B24D039E0324B5B8C032B12
:20AEE00002D01323BB731BE0FF23BB73FB7B012B16D17B7B4033DAB27B681A707B680333CD
:20AF0000294A1288120A92B2D2B21A707B680433254A1288D2B21A700520FFF7D7F919E0A1
:20AF200018E0204B5B8C052B02D01323BB730DE0FF23BB73FB7B012B08D17B7B4033DAB2B4
:20AF40007B681A700520FFF7C1F903E002E01223BB7300BFBB7BFF2B21D07B687F221A7069
:20AF60007B6801337A7B1A707B680233BA7B1A707B680333AA221A707B680433AA221A7085
:20AF80007B680533AA221A707B680633AA221A707B680733AA221A700320FFF797F910376B
:20AFA000BD4680BD340500207E03002080B584B000AF78602223FB730123BB737B681B78EC
:20AFC0007B737B6801331B7803F07F033B737B689B78FB727B6801331B78DBB25BB2002BE4
:20AFE00001DA0023BB73474B93F83430012B07D0444B93F83430022B02D03123FB7331E051
:20B00000404B5B8C032B02D01323FB732AE03B7B002B02D0032B11D021E0FB7A03F00103E1
:20B02000002B05D0FF23FB73374B00229A7119E03123FB73344B00229A7113E0FB7A03F00F
:20B040000103002B05D0FF23FB732F4B01229A7108E03123FB732C4B00229A7102E012234F
:20B06000FB7300BFFB7BFF2B27D1BB7B012B46D17B7B4033DAB27B681A707B6801333A7B64
:20B080001A707B680233AA221A707B680333AA221A707B680433AA221A707B680533AA22F2
:20B0A0001A707B680633AA221A707B680733AA221A700220FFF70AF921E07B687F221A70F7
:20B0C0007B6801337A7B1A707B680233FA7B1A707B680333AA221A707B680433AA221A70E4
:20B0E0007B680533AA221A707B680633AA221A707B680733AA221A700320FFF7E7F81037BB
:20B10000BD4680BD34050020A405002080B584B000AF78600123BB732223FB737B681B7862
:20B120007B737B6801331B7803F07F033B73414B93F83430012B02D03123FB7329E03D4B88
:20B140005B8C032B03D93B4B5B8C082B02D91323FB731EE03B7B013B032B17D801A252F8E5
:20B1600023F000BF75B100007BB1000081B1000087B10000FF23FB730BE0FF23FB7308E04E
:20B18000FF23FB7305E0FF23FB7302E01223FB7300BFFB7BFF2B27D1BB7B012B46D17B7B5F
:20B1A0004033DAB27B681A707B680133AA221A707B680233AA221A707B680333AA221A70D9
:20B1C0007B680433AA221A707B680533AA221A707B680633AA221A707B680733AA221A70A9
:20B1E0000120FFF773F821E07B687F221A707B6801337A7B1A707B680233FA7B1A707B682E
:20B200000333AA221A707B680433AA221A707B680533AA221A707B680633AA221A707B686C
:20B220000733AA221A700320FFF750F81037BD4680BD00BF3405002080B584B000AF78608E
:20B240002223FB737B681B78BB737B6801331B789BB21B029AB27B6802331B789BB21344E8
:20B26000BB81C74B93F83430012B07D0C44B93F83430022B02D03123FB7359E1C04B5B8CA3
:20B28000032B02D81323FB7352E1BB894FF28112934200F0DC804FF28112934237DC4FF299
:20B2A0001502934200F09C804FF21502934215DC4FF21102934272D04FF21102934204DC04
:20B2C0004FF2100293425FD02FE14FF21202934270D04FF21302934277D026E14FF25A1277
:20B2E000934200F093804FF25A12934204DC4FF2101293427FD018E14FF25B12934200F021
:20B3000090804FF28012934200F096800DE14FF29012934200F0D2804FF29012934219DCDA
:20B320004FF28A12934200F0A8804FF28A12934205DC4FF28612934200F09480F5E04FF2E8
:20B340008B12934200F0A4804FF28C12934200F0AA80EAE04FF29312934200F0C5804FF29E
:20B360009312934205DC4FF29112934200F0B180DBE04FF29712934200F0C1804FF2A012FA
:20B38000934200F0C780D0E0FF23FB73BB7B4033DAB27B681A700320FEF798FFC8E0FF2346
:20B3A000FB73BB7B4033DAB27B681A700320FEF78DFFBDE0FF23FB73BB7B4033DAB27B6894
:20B3C0001A700320FEF782FFB2E0FF23FB73BB7B4033DAB27B681A700320FEF777FFA7E071
:20B3E000FF23FB73BB7B4033DAB27B681A700320FEF76CFF9CE0FF23FB73BB7B4033DAB257
:20B400007B681A700320FEF761FF91E0FF23FB73BB7B4033DAB27B681A700320FEF756FF37
:20B4200086E0FF23FB73BB7B4033DAB27B681A700320FEF74BFF7BE0FF23FB73BB7B40337E
:20B44000DAB27B681A700320FEF740FF70E0FF23FB73BB7B4033DAB27B681A700320FEF702
:20B4600035FF65E0FF23FB73BB7B4033DAB27B681A700320FEF72AFF5AE0FF23FB73BB7BE0
:20B480004033DAB27B681A700320FEF71FFF4FE0FF23FB73BB7B4033DAB27B681A70032086
:20B4A000FEF714FF44E0FF23FB73BB7B4033DAB27B681A700320FEF709FF39E0FF23FB7365
:20B4C000BB7B4033DAB27B681A700320FEF7FEFE2EE0FF23FB73BB7B4033DAB27B681A7076
:20B4E0000320FEF7F3FE23E0FF23FB73BB7B4033DAB27B681A700320FEF7E8FE18E0FF23F6
:20B50000FB73BB7B4033DAB27B681A700320FEF7DDFE0DE0FF23FB73BB7B4033DAB27B6893
:20B520001A700320FEF7D2FE02E01223FB7300BFFB7BFF2B21D07B687F221A707B6801339F
:20B54000BA7B1A707B680233FA7B1A707B680333AA221A707B680433AA221A707B6805331B
:20B56000AA221A707B680633AA221A707B680733AA221A700320FEF7A9FE1037BD4680BD4A
:20B580003405002080B584B000AF78602223FB737B681B78BB737B6801331B789BB21B02F7
:20B5A0009AB27B6802331B789BB21344BB81BC4B93F83430012B03D03123FB7301F04BB809
:20B5C000B74B5B8C062B03D91323FB7301F043B8BB89A3F57143803B0C2B01F2398001A214
:20B5E00052F823F019B6000055B70000A5B80000E1B900002BBB00006DBC0000B7BD000099
:20B60000F1BE000031C0000063C1000099C20000D9C3000011C500007B6803331B78032BBF
:20B6200002D93123FB7393E07B6803331B78002B1ED19B4B5B8C042B02D01323FB7387E05B
:20B64000FF23FB73BB7B4033DAB27B681A707B680433AA221A707B680533AA221A707B68F4
:20B660000633AA221A700420FEF730FE00F0F3BF7B6803331B78012B1ED1894B5B8C042BA1
:20B6800002D01323FB7363E0FF23FB73BB7B4033DAB27B681A707B680433AA221A707B686C
:20B6A0000533AA221A707B680633AA221A700420FEF70CFE00F0CFBF7B6803331B78022B10
:20B6C0001ED1774B5B8C042B02D01323FB733FE0FF23FB73BB7B4033DAB27B681A707B68F9
:20B6E0000433AA221A707B680533AA221A707B680633AA221A700420FEF7E8FD00F0ABBF82
:20B700007B6803331B78032B22D1654B5B8C052B02D01323FB731BE07B6804331B78642BE8
:20B7200002D93123FB7313E0FF23FB73BB7B4033DAB27B681A707B680533AA221A707B68F3
:20B740000633AA221A700520FEF7C0FD00F083BF00F081BF7B6803331B78032B02D9312318
:20B76000FB739AE07B6803331B78002B1ED14C4B5B8C042B02D01323FB738EE0FF23FB73FA
:20B78000BB7B4033DAB27B681A707B680433AA221A707B680533AA221A707B680633AA223E
:20B7A0001A700420FEF792FD00F055BF7B6803331B78012B1ED13A4B5B8C042B02D01323E9
:20B7C000FB736AE0FF23FB73BB7B4033DAB27B681A707B680433AA221A707B680533AA2228
:20B7E0001A707B680633AA221A700420FEF76EFD00F031BF7B6803331B78022B1ED1284BAE
:20B800005B8C042B02D01323FB7346E0FF23FB73BB7B4033DAB27B681A707B680433AA225E
:20B820001A707B680533AA221A707B680633AA221A700420FEF74AFD00F00DBF7B68033366
:20B840001B78032B29D17B6805331B789BB21B029AB27B6804331B789BB213447B81104B21
:20B860005B8C062B02D01323FB7316E07B89B3F5966F02D93123FB730FE0FF23FB73BB7B41
:20B880004033DAB27B681A707B680633AA221A700620FEF71BFD00F0DEBE00F0DCBE00BFC2
:20B8A000340500207B6803331B78032B02D93123FB7393E07B6803331B78002B1ED1B74B7D
:20B8C0005B8C042B02D01323FB7387E0FF23FB73BB7B4033DAB27B681A707B680433AA225D
:20B8E0001A707B680533AA221A707B680633AA221A700420FEF7EAFC00F0ADBE7B68033368
:20B900001B78012B1ED1A54B5B8C042B02D01323FB7363E0FF23FB73BB7B4033DAB27B6812
:20B920001A707B680433AA221A707B680533AA221A707B680633AA221A700420FEF7C6FC4F
:20B9400000F089BE7B6803331B78022B1ED1934B5B8C042B02D01323FB733FE0FF23FB73CF
:20B96000BB7B4033DAB27B681A707B680433AA221A707B680533AA221A707B680633AA225C
:20B980001A700420FEF7A2FC00F065BE7B6803331B78032B22D1814B5B8C052B02D013239B
:20B9A000FB731BE07B6804331B78642B02D93123FB7313E0FF23FB73BB7B4033DAB27B68AA
:20B9C0001A707B680533AA221A707B680633AA221A700520FEF77AFC00F03DBE00F03BBE96
:20B9E0007B6803331B78032B02D93123FB739AE07B6803331B78002B1ED1684B5B8C042BC7
:20BA000002D01323FB738EE0FF23FB73BB7B4033DAB27B681A707B680433AA221A707B68BD
:20BA20000533AA221A707B680633AA221A700420FEF74CFC00F00FBE7B6803331B78012B10
:20BA40001ED1564B5B8C042B02D01323FB736AE0FF23FB73BB7B4033DAB27B681A707B686B
:20BA60000433AA221A707B680533AA221A707B680633AA221A700420FEF728FC00F0EBBD81
:20BA80007B6803331B78022B1ED1444B5B8C042B02D01323FB7346E0FF23FB73BB7B403364
:20BAA000DAB27B681A707B680433AA221A707B680533AA221A707B680633AA221A70042016
:20BAC000FEF704FC00F0C7BD7B6803331B78032B29D17B6805331B789BB21B029AB27B68E2
:20BAE00004331B789BB213447B812C4B5B8C062B02D01323FB7316E07B89B3F5966F02D955
:20BB00003123FB730FE0FF23FB73BB7B4033DAB27B681A707B680633AA221A700620FEF7B5
:20BB2000D5FB00F098BD00F096BD7B6803331B78032B02D93123FB7396E07B6803331B7814
:20BB4000002B1ED1154B5B8C042B02D01323FB738AE0FF23FB73BB7B4033DAB27B681A7043
:20BB60007B680433AA221A707B680533AA221A707B680633AA221A700420FEF7A7FB00F0C7
:20BB80006ABD7B6803331B78012B21D1034B5B8C042B05D01323FB7366E000BF3405002079
:20BBA000FF23FB73BB7B4033DAB27B681A707B680433AA221A707B680533AA221A707B688F
:20BBC0000633AA221A700420FEF780FB00F043BD7B6803331B78022B1ED1B64B5B8C042B73
:20BBE00002D01323FB733FE0FF23FB73BB7B4033DAB27B681A707B680433AA221A707B682B
:20BC00000533AA221A707B680633AA221A700420FEF75CFB00F01FBD7B6803331B78032B0E
:20BC200022D1A44B5B8C052B02D01323FB731BE07B6804331B78642B02D93123FB7313E0CE
:20BC4000FF23FB73BB7B4033DAB27B681A707B680533AA221A707B680633AA221A700520AA
:20BC6000FEF734FB00F0F7BC00F0F5BC7B6803331B78032B02D93123FB739AE07B68033352
:20BC80001B78002B1ED18B4B5B8C042B02D01323FB738EE0FF23FB73BB7B4033DAB27B687F
:20BCA0001A707B680433AA221A707B680533AA221A707B680633AA221A700420FEF706FB8D
:20BCC00000F0C9BC7B6803331B78012B1ED1794B5B8C042B02D01323FB736AE0FF23FB73FE
:20BCE000BB7B4033DAB27B681A707B680433AA221A707B680533AA221A707B680633AA22D9
:20BD00001A700420FEF7E2FA00F0A5BC7B6803331B78022B1ED1674B5B8C042B02D01323BB
:20BD2000FB7346E0FF23FB73BB7B4033DAB27B681A707B680433AA221A707B680533AA22E6
:20BD40001A707B680633AA221A700420FEF7BEFA00F081BC7B6803331B78032B29D17B6832
:20BD600005331B789BB21B029AB27B6804331B789BB213447B814F4B5B8C062B02D013233B
:20BD8000FB7316E07B89B3F5966F02D93123FB730FE0FF23FB73BB7B4033DAB27B681A70D0
:20BDA0007B680633AA221A700620FEF78FFA00F052BC00F050BC7B6803331B78032B02D9BE
:20BDC0003123FB7393E07B6803331B78002B1ED1384B5B8C042B02D01323FB7387E0FF23D0
:20BDE000FB73BB7B4033DAB27B681A707B680433AA221A707B680533AA221A707B68063336
:20BE0000AA221A700420FEF761FA00F024BC7B6803331B78012B1ED1264B5B8C042B02D068
:20BE20001323FB7363E0FF23FB73BB7B4033DAB27B681A707B680433AA221A707B6805335E
:20BE4000AA221A707B680633AA221A700420FEF73DFA00F000BC7B6803331B78022B1DD157
:20BE6000144B5B8C042B02D01323FB733FE0FF23FB73BB7B4033DAB27B681A707B6804336C
:20BE8000AA221A707B680533AA221A707B680633AA221A700420FEF719FADCE37B68033365
:20BEA0001B78032B23D1034B5B8C052B04D01323FB731CE0340500207B6804331B78642B5F
:20BEC00002D93123FB7312E0FF23FB73BB7B4033DAB27B681A707B680533AA221A707B684D
:20BEE0000633AA221A700520FEF7F0F9B3E3B2E37B6803331B78032B02D93123FB7396E098
:20BF00007B6803331B78002B1DD1B14B5B8C042B02D01323FB738AE0FF23FB73BB7B403331
:20BF2000DAB27B681A707B680433AA221A707B680533AA221A707B680633AA221A70042091
:20BF4000FEF7C4F987E37B6803331B78012B1DD19F4B5B8C042B02D01323FB7367E0FF2320
:20BF6000FB73BB7B4033DAB27B681A707B680433AA221A707B680533AA221A707B680633B4
:20BF8000AA221A700420FEF7A1F964E37B6803331B78022B1DD18E4B5B8C042B02D0132393
:20BFA000FB7344E0FF23FB73BB7B4033DAB27B681A707B680433AA221A707B680533AA2266
:20BFC0001A707B680633AA221A700420FEF77EF941E37B6803331B78032B28D17B680533C3
:20BFE0001B789BB21B029AB27B6804331B789BB213447B81764B5B8C062B02D01323FB735C
:20C0000015E07B89B3F5966F02D93123FB730EE0FF23FB73BB7B4033DAB27B681A707B68DA
:20C020000633AA221A700620FEF750F913E312E37B6803331B78032B02D93123FB738FE03C
:20C040007B6803331B78002B1DD1614B5B8C042B02D01323FB7383E0FF23FB73BB7B403347
:20C06000DAB27B681A707B680433AA221A707B680533AA221A707B680633AA221A70042050
:20C08000FEF724F9E7E27B6803331B78012B1DD14F4B5B8C042B02D01323FB7360E0FF2377
:20C0A000FB73BB7B4033DAB27B681A707B680433AA221A707B680533AA221A707B68063373
:20C0C000AA221A700420FEF701F9C4E27B6803331B78022B1DD13E4B5B8C042B02D01323E3
:20C0E000FB733DE0FF23FB73BB7B4033DAB27B681A707B680433AA221A707B680533AA222C
:20C100001A707B680633AA221A700420FEF7DEF8A1E27B6803331B78032B21D12C4B5B8C87
:20C12000052B02D01323FB731AE07B6804331B78642B02D93123FB7312E0FF23FB73BB7BCE
:20C140004033DAB27B681A707B680533AA221A707B680633AA221A700520FEF7B7F87AE26B
:20C1600079E27B6803331B78032B02D93123FB7391E07B6803331B78002B1DD1144B5B8C71
:20C18000042B02D01323FB7385E0FF23FB73BB7B4033DAB27B681A707B680433AA221A70F3
:20C1A0007B680533AA221A707B680633AA221A700420FEF78BF84EE27B6803331B78012BF8
:20C1C0001FD1034B5B8C042B04D01323FB7362E034050020FF23FB73BB7B4033DAB27B6850
:20C1E0001A707B680433AA221A707B680533AA221A707B680633AA221A700420FEF766F8EB
:20C2000029E27B6803331B78022B1DD1B14B5B8C042B02D01323FB733DE0FF23FB73BB7BE1
:20C220004033DAB27B681A707B680433AA221A707B680533AA221A707B680633AA221A703F
:20C240000420FEF743F806E27B6803331B78032B21D1A04B5B8C052B02D01323FB731AE064
:20C260007B6804331B78642B02D93123FB7312E0FF23FB73BB7B4033DAB27B681A707B68DE
:20C280000533AA221A707B680633AA221A700520FEF71CF8DFE1DEE17B6803331B78032B17
:20C2A00002D93123FB7396E07B6803331B78002B1DD1884B5B8C042B02D01323FB738AE0DD
:20C2C000FF23FB73BB7B4033DAB27B681A707B680433AA221A707B680533AA221A707B6868
:20C2E0000633AA221A700420FDF7F0FFB3E17B6803331B78012B1DD1764B5B8C042B02D0A5
:20C300001323FB7367E0FF23FB73BB7B4033DAB27B681A707B680433AA221A707B68053375
:20C32000AA221A707B680633AA221A700420FDF7CDFF90E17B6803331B78022B1DD1654B69
:20C340005B8C042B02D01323FB7344E0FF23FB73BB7B4033DAB27B681A707B680433AA2215
:20C360001A707B680533AA221A707B680633AA221A700420FDF7AAFF6DE17B6803331B7895
:20C38000032B28D17B6805331B789BB21B029AB27B6804331B789BB213447B814D4B5B8C46
:20C3A000062B02D01323FB7315E07B89B3F5966F02D93123FB730EE0FF23FB73BB7B40336C
:20C3C000DAB27B681A707B680633AA221A700620FDF77CFF3FE13EE17B6803331B78032B44
:20C3E00002D93123FB7392E07B6803331B78002B1DD1384B5B8C042B02D01323FB7386E0F4
:20C40000FF23FB73BB7B4033DAB27B681A707B680433AA221A707B680533AA221A707B6826
:20C420000633AA221A700420FDF750FF13E17B6803331B78012B1DD1264B5B8C042B02D0F3
:20C440001323FB7363E0FF23FB73BB7B4033DAB27B681A707B680433AA221A707B68053338
:20C46000AA221A707B680633AA221A700420FDF72DFFF0E07B6803331B78022B1DD1154BB9
:20C480005B8C042B02D01323FB7340E0FF23FB73BB7B4033DAB27B681A707B680433AA22D8
:20C4A0001A707B680533AA221A707B680633AA221A700420FDF70AFFCDE07B6803331B7895
:20C4C000032B24D1034B5B8C052B05D01323FB731DE000BF340500207B6804331B78642B0A
:20C4E00002D93123FB7312E0FF23FB73BB7B4033DAB27B681A707B680533AA221A707B6827
:20C500000633AA221A700520FDF7E0FEA3E0A2E07B6803331B78032B02D93123FB7396E0A3
:20C520007B6803331B78002B1DD15F4B5B8C042B02D01323FB738AE0FF23FB73BB7B40335D
:20C54000DAB27B681A707B680433AA221A707B680533AA221A707B680633AA221A7004206B
:20C56000FDF7B4FE77E07B6803331B78012B1DD14D4B5B8C042B02D01323FB7367E0FF236B
:20C58000FB73BB7B4033DAB27B681A707B680433AA221A707B680533AA221A707B6806338E
:20C5A000AA221A700420FDF791FE54E07B6803331B78022B1DD13C4B5B8C042B02D01323DE
:20C5C000FB7344E0FF23FB73BB7B4033DAB27B681A707B680433AA221A707B680533AA2240
:20C5E0001A707B680633AA221A700420FDF76EFE31E07B6803331B78032B28D17B680533BC
:20C600001B789BB21B029AB27B6804331B789BB213447B81244B5B8C062B02D01323FB7387
:20C6200015E07B89B3F5966F02D93123FB730EE0FF23FB73BB7B4033DAB27B681A707B68B4
:20C640000633AA221A700620FDF740FE03E002E01223FB7300BFFB7BFF2B21D07B687F22B7
:20C660001A707B680133BA7B1A707B680233FA7B1A707B680333AA221A707B680433AA22EE
:20C680001A707B680533AA221A707B680633AA221A707B680733AA221A700320FDF716FE8F
:20C6A0001037BD4680BD00BF3405002080B584B000AF78600123FB732223BB737B681B7870
:20C6C0007B737B6801331B7803F07F033B737B6801331B78DBB25BB2002B01DA0023FB73C4
:20C6E0003B4B93F83430012B07D0394B93F83430022B02D03123BB7319E0354B5B8C052B3E
:20C7000002D01323BB7312E03B7B022B06D0032B07D0012B08D1FF23BB7308E0FF23BB73A6
:20C7200005E0FF23BB7302E01223BB7300BFBB7BFF2B27D1FB7B012B46D17B7B4033DAB2BA
:20C740007B681A707B6801333A7B1A707B680233AA221A707B680333AA221A707B6804331F
:20C76000AA221A707B680533AA221A707B680633AA221A707B680733AA221A700220FDF7F7
:20C78000A5FD21E07B687F221A707B6801337A7B1A707B680233BA7B1A707B680333AA2296
:20C7A0001A707B680433AA221A707B680533AA221A707B680633AA221A707B680733AA22B3
:20C7C0001A700320FDF782FD1037BD4680BD00BF3405002080B584B000AF78600123FB7318
:20C7E0002223BB737B681B787B737B6801331B7803F07F033B737B6801331B78DBB25BB251
:20C80000002B01DA0023FB732F4B5B8C022B02D01323BB7308E03B7B002B02D1FF23BB73D1
:20C8200002E01223BB7300BFBB7BFF2B27D1FB7B012B46D17B7B4033DAB27B681A707B689E
:20C8400001333A7B1A707B680233AA221A707B680333AA221A707B680433AA221A707B6835
:20C860000533AA221A707B680633AA221A707B680733AA221A700220FDF728FD21E07B6826
:20C880007F221A707B6801337A7B1A707B680233BA7B1A707B680333AA221A707B68043377
:20C8A000AA221A707B680533AA221A707B680633AA221A707B680733AA221A700320FDF7B5
:20C8C00005FD1037BD4680BD3405002080B584B000AF78600123FB732223BB737B681B780B
:20C8E0007B737B6801331B7803F07F033B737B6801331B78DBB25BB2002B01DA0023FB73A2
:20C90000364B93F83430012B02D03123BB7315E0324B5B8C022B02D01323BB730EE03B7BC7
:20C92000012B02D0022B03D005E0FF23BB7305E0FF23BB7302E01223BB7300BFBB7BFF2B2B
:20C9400027D1FB7B012B46D17B7B4033DAB27B681A707B6801333A7B1A707B680233AA228A
:20C960001A707B680333AA221A707B680433AA221A707B680533AA221A707B680633AA22F5
:20C980001A707B680733AA221A700220FDF79EFC21E07B687F221A707B6801337A7B1A7045
:20C9A0007B680233BA7B1A707B680333AA221A707B680433AA221A707B680533AA221A7050
:20C9C0007B680633AA221A707B680733AA221A700320FDF77BFC1037BD4680BD3405002004
:20C9E00080B400AF154B00221A70144B19221A81124B00229A71114B00225A800F4B0022B5
:20CA00009A800E4B00229A810C4B0022DA810B4B00221A760A4B5B6D0A4A1360084B9B6D4B
:20CA2000084A5360064BDB6D064A9360044B1B6E044AD360BD465DF8047B7047A405002065
:20CA4000008004409405002080B500AF354B1B7EDBB2012B64D1344B1B7BDBB2012B09D0C7
:20CA6000314BDB7BDBB2012B04D02F4BDB7DDBB2012B1ED12C4B1B7BDBB2012B04D02A4BCE
:20CA8000DB7BDBB2012B0DD1274B9B7ADBB2012B08D0254B1B7ADBB2012B03D0642000F08C
:20CAA000B7F902E0072000F0B3F9012000F094F905E0002000F0ACF9002000F08DF91A4BEE
:20CAC0009B7ADBB2012B04D0174B1B7ADBB2012B08D1154BDB7ADBB2012B03D1012000F0D8
:20CAE000A3F902E0002000F09FF90F4B5B79DBB2012B03D1012000F0B3F902E0002000F0A6
:20CB0000AFF9094BDB79DBB2012B06D1012000F0C3F9012000F0A4F902E0002000F0BCF913
:20CB200080BD00BFA40500207005002080B500AF354B1B7EDBB2012B64D1344B1B7BDBB20E
:20CB4000012B09D0314B9B7BDBB2012B04D02F4B9B7DDBB2012B1ED12C4B1B7BDBB2012BB1
:20CB600004D02A4B9B7BDBB2012B0DD1274B5B7ADBB2012B08D0254B1B7ADBB2012B03D056
:20CB8000642000F045F902E0072000F041F9012000F022F905E0002000F03AF9002000F04C
:20CBA0001BF91A4B5B7ADBB2012B04D0174B1B7ADBB2012B08D1154BDB7ADBB2012B03D1CF
:20CBC000012000F031F902E0002000F02DF90F4B5B79DBB2012B03D1012000F041F902E01A
:20CBE000002000F03DF9094BDB79DBB2012B06D1012000F051F9012000F032F902E000201E
:20CC000000F04AF980BD00BFA40500207005002080B582B000AF294B1B7EDBB2012B49D191
:20CC20000023FB800023BB80254B9B7ADBB2012B04D0234B1B7ADBB2012B19D1204BDB7A80
:20CC4000DBB2012B04D16423BB806423FB800EE01B4B9B7FDBB2012B04D10323BB800623FC
:20CC6000FB8004E00023BB800023FB8018E017E0134BDB7CDBB2012B04D16423BB806423DE
:20CC8000FB800DE00E4B9B7FDBB2012B04D10323BB800623FB8003E00023BB800023FB8047
:20CCA000BB88DBB2184600F047F9FB88DBB2184600F04EF90837BD4680BD00BFA40500206A
:20CCC0007005002080B500AF144B1B7EDBB2012B23D1134B93F82030DBB2012B04D0104B15
:20CCE000DB7FDBB2012B06D1092000F0F1F8142000F0FAF805E0002000F0EAF8002000F04B
:20CD0000F3F8074B1B7EDBB2012B03D1012000F0F7F802E0002000F0F3F880BDA4050020CD
:20CD20007005002080B582B000AF294B1B7EDBB2012B49D10023FB800023BB80254B5B7A27
:20CD4000DBB2012B04D0234B1B7ADBB2012B19D1204BDB7ADBB2012B04D16423BB80642309
:20CD6000FB800EE01B4B5B7FDBB2012B04D10323BB800623FB8004E00023BB800023FB8097
:20CD800018E017E0134B9B7CDBB2012B04D16423BB806423FB800DE00E4B5B7FDBB2012B04
:20CDA00004D10323BB800623FB8003E00023BB800023FB80BB88DBB2184600F0D5F8FB884C
:20CDC000DBB2184600F0DCF80837BD4680BD00BFA40500207005002080B483B000AF0346A9
:20CDE000FB71FB79002B06D0084A084B5B6843F00103536005E0054A044B9B6843F0010343
:20CE000093600C37BD465DF8047B704700F00F4080B582B000AF0346FB71FB79184602F080
:20CE200075FF0837BD4680BD80B483B000AF0346FB71FB79002B06D0084A084B5B6843F420
:20CE40008033536005E0054A044B9B6843F4803393600C37BD465DF8047B7047C0F00F4039
:20CE600080B483B000AF0346FB71FB79002B06D0084A084B5B6843F40073536005E0054A79
:20CE8000044B9B6843F4007393600C37BD465DF8047B704700F10F4080B483B000AF034633
:20CEA000FB71FB79002B06D0084A084B5B6843F48073536005E0054A044B9B6843F480739C
:20CEC00093600C37BD465DF8047B704700F10F4080B582B000AF0346FB71FB79184602F0BF
:20CEE00087FE0837BD4680BD80B582B000AF0346FB71FB79184602F009FF0837BD4680BD18
:20CF000080B483B000AF0346FB71FB79002B06D0084A084B5B6843F48033536005E0054A98
:20CF2000044B9B6843F4803393600C37BD465DF8047B7047C0F00F4080B582B000AF034693
:20CF4000FB71FB79184602F053FE0837BD4680BD80B582B000AF0346FB71FB79184602F042
:20CF6000D5FE0837BD4680BD80B582B000AF0346FB71FB79184602F03BFE0837BD4680BD18
:20CF800080B582B000AF0346FB71FB79184602F0BDFE0837BD4680BD90B587B000AF8F4BC3
:20CFA0003C1D0FCB84E80F003B1D184603F0C0F88B4803F009FA012003F0EEF903F03AFA77
:20CFC000884B00221A70874B00229A70854B05225A70854803F0FCFC03461A46834B1A705A
:20CFE000824B1B78FF2B00D1FEE7814B00221A707F4B00225A717E4B00229A710023FB7539
:20D0000024E0FB7D7B4A522101FB03F3134448330022DA710023BB7512E0FA7DB97DBB7D01
:20D02000754830F81340734813469B001344DB0013440B44224620F81320BB7D0133BB75E2
:20D04000BB7D262BE9D9FB7D0133FB75FB7D012BD7D9684A937843F001039370654A937864
:20D0600043F002039370634AD378022161F30103D370604AD378022161F38303D3705D4AE3
:20D08000D378012161F30513D3705A4AD3786FF38713D370574A137943F001031371554ABF
:20D0A000137943F002031371524A137943F080031371504A53796FF3020353714D4A5379D2
:20D0C0006FF3C30353714B4A53796FF304135371484A537943F020035371464A53796FF390
:20D0E00086135371434A537943F080035371414B002283F84E203F4A92F8543043F001039B
:20D1000082F854303B4A92F8543043F0020382F85430384A92F85530022161F3010382F8C2
:20D120005530344A92F85530022161F3830382F85530304A92F85530012161F3051382F850
:20D1400055302C4A92F855306FF3871382F85530284A92F8563043F0010382F85630254AA2
:20D1600092F8563043F0020382F85630214A92F8563043F0800382F856301E4A92F85730BD
:20D180006FF3020382F857301A4A92F857306FF3C30382F85730174A92F857306FF304139E
:20D1A00082F85730134A92F8573043F0200382F85730104A92F857306FF3861382F8573042
:20D1C0000C4A92F8573043F0800382F85730094B012283F8A0201C37BD4690BD080C0100C7
:20D1E000DDDC000080030020CDD70000470400202C04002088030020500F010080B582B002
:20D2000000AF894B1B78042B00F2818101A252F823F000BF29D20000E9D2000073D300001A
:20D2200011D40000D7D400007F4B1A787E4B5B789A4205D07D4B00221A807D4B00221A70BD
:20D2400000F0B0FA0346002B45D0784B1B88002B1FD1774B1B781946764A522303FB01F34F
:20D26000134402331988724B1B781846714A522303FB00F3134448339B79084601211A46FC
:20D2800000F032FC694B1B8801339AB2674B1A8021E0674B1B781946664A522303FB01F391
:20D2A000134404331988624B1B781846614A522303FB00F3134448339B79084602211A46D9
:20D2C00000F012FC594B00221A80594B1B780133DAB2574B1A70564B1B78012B03D9524BF4
:20D2E00001229A7014E113E14F4B1A784E4B5B789A4205D04D4B01221A804D4B00221A7036
:20D3000000F050FA0346002B2AD0484B1B88102B1DD8474B1A78454B1B88DBB200201146A4
:20D320001A4600F0A1F9414B1B8801339AB23F4B1A803E4B1B88102B12D93C4B01221A809A
:20D340003B4B1B780133DAB2394B1A7008E0374B01221A80364B1B780133DAB2344B1A70E2
:20D36000334B1B78012B03D92F4B02229A70CFE0CEE02D4B1A782C4B5B789A4205D02B4B14
:20D3800000221A802A4B00221A7000F00BFA0346002B34D0254B1B88002B0CD1244B1B7826
:20D3A0000420194600F0ACF9204B1B8801339AB21E4B1A8023E01D4B1B88012B0CD11C4B46
:20D3C0001B780520194600F09BF9184B1B8801339AB2164B1A8012E0144B1B88022B0ED131
:20D3E000134B1B780620194600F08AF90F4B00221A800F4B1B780133DAB20D4B1A700C4B48
:20D400001B78012B03D9084B03229A7080E07FE0054B1A78044B5B789A4202D0034B00220E
:20D420001A800023FB714FE080030020480400204A04002088030020FB793C4A522101FB03
:20D4400003F3134408331B88002B0CD0FB79374A522101FB03F3134408331B88FA79104642
:20D460001946FBF7F1FDFB79304A522101FB03F313440A331B88002B0CD0FB792B4A522180
:20D4800001FB03F313440A331B88FA7910461946FBF7E4FDFB79254A522101FB03F31344C9
:20D4A0000C331B88002B0CD0FB79204A522101FB03F313440C331B88FA7910461946FBF7ED
:20D4C000D7FDFB790133FB71FB79012BB4D9184B04229A701CE0164B1A78154B5B789A42A6
:20D4E00002D0144B00221A80124B1B8801339AB2104B1A800F4B1A880F4B1B889A4203D31F
:20D500000B4B02229A7003E0FBF73EF900E000BF074B1A78064B5A70054B9A78044B1A70A2
:20D5200000F054F90837BD4680BD00BF8803002080030020480400202484FF1F80B582B089
:20D5400000AF0F4B5B79002B17D10023FB710BE0FB790C4A522101FB03F313440633002280
:20D560001A80FB790133FB71FB79012BF0D9054BDB881846032100F009FB0837BD4680BDEC
:20D580002C0400208803002080B584B000AF0346FB710023FB73FB79012B05D8144B5B7982
:20D5A000002B01D10123FB73FB7B012B1DD1FB79104A522101FB03F3134406334FF6FF72D3
:20D5C0001A80FB790B4A522101FB03F3134406331888FB79074A522101FB03F31344483357
:20D5E0009B7903211A4600F07FFA1037BD4680BD2C0400208803002080B584B000AF034647
:20D60000FB710023FB73FB79012B05D8144B5B79002B01D10123FB73FB7B012B1CD1FB79CB
:20D62000104A522101FB03F31344063300221A80FB790C4A522101FB03F313440633188880
:20D64000FB79084A522101FB03F3134448339B7903211A4600F048FA1037BD4680BD00BFBD
:20D660002C0400208803002080B584B000AF0346FB800B467B7113463B710023FB737B790C
:20D68000012B0BD83B79002B08D03B79102B05D8194B5B79002B01D10123FB73FB7B012B8F
:20D6A00026D13B790633BB737A79B97B134813469B001344DB0013440B44FA8820F813203D
:20D6C0007A79B97B0D4813469B001344DB0013440B4430F813007B79084A522101FB03F31C
:20D6E000134448339B79BA7B11461A4600F0FCF91037BD4680BD00BF2C0400208803002032
:20D7000080B584B000AF03460A46FB711346BB710023FB73BB79012B08D8FB79262B05D8F4
:20D720000C4B5B79002B01D10123FB73FB7B012B0CD1BB79084A522101FB03F313444833F3
:20D740009B79FA791046194600F06EFA1037BD4680BD00BF2C0400208803002080B485B08B
:20D7600000AF0346FB710023FB730023BB81FB79012B01D80123FB73FB7B012B08D1FB795B
:20D78000074A522101FB03F313444833DB79BB81BB89DBB218461437BD465DF8047B704769
:20D7A0008803002080B483B000AF0023FB71064B5B79002B01D10123FB71FB7918460C3752
:20D7C000BD465DF8047B70472C04002090B583B000AF0023BB7100233B71AC4B1B78002B71
:20D7E00002D0012B0FD077E1A84B5B79012B03D0A64B5B79022B05D100F05EFAA34B01220D
:20D800001A7069E168E1FF237B71A14B1B7803F00803DBB2002B1ED10023FB7114E0FB79C2
:20D820009C4A522101FB03F3134448339B79984A1278C2F30312D2B2934202D1FB797B71F5
:20D8400005E0FB790133FB71FB79012BE7D97B79FF2B00D140E18D4B1A798C4BDB789A42EE
:20D8600040F0BA80894B9A78884B5B789A4240F0B3800123BB710023FB710FE0FB79834A64
:20D8800013445A7CFB7981490B44DB799A4202D00023BB7107E0FB790133FB717B4BDB7869
:20D8A000FA799A42EAD3BB79012B40F09480784B1B7803F00803DBB2002B40F08C80734BB2
:20D8C000DB7C3B71714B5B79022B29D17B796F4A127911466D4A0A44507C6E4A522101FB07
:20D8E00003F31344503302461A70684B9B78013B664A13445B7CFB70644B1B791033634A08
:20D9000013440133FF201946012200F069FD0346BB70FA78BB789A425DD00023BB715DE0D7
:20D920005A4B5B79012B56D17B79584A12791146564A0A44507C574A522101FB03F313448C
:20D94000503302461A70514B9B78013B4F4A13445B7CFB704D4B1B7910334C4A13445A1C83
:20D960004A4B9B781946494B1B79CB1A013BFF2011461A4600F034FD0346BB70FA78BB7847
:20D980009A4202D00023BB7125E07A7939793F4B1B7901333D4803445C7C3E4813469B0070
:20D9A0001344DB0013440B44224600F813207A793979364B1B790233344803445C7C3548F5
:20D9C00013469B001344DB0013440B445B00034422465A7002E001E00023BB71BB79002B36
:20D9E00049D12B4B1B7803F00803DBB2002B25D00023FB711EE0FB79264A522101FB03F383
:20DA000013444833DB79FF2B11D0FB792149522202FB03F20A444832D2790132D0B21D4A62
:20DA2000522101FB03F3134448330246DA71FB790133FB71FB79012BDDD946E07B79154A39
:20DA4000522101FB03F313444833DB79FF2B3CD07B791049522202FB03F20A444832D2793F
:20DA60000132D0B20B4A522101FB03F3134448330246DA7129E0064B1B7803F00803DBB25A
:20DA8000002B19D00023FB7112E000BF2C0400208403002088030020FB79114A522101FB52
:20DAA00003F3134448330022DA71FB790133FB71FB79012BF0D908E07B79094A522101FB16
:20DAC00003F3134448330022DA71064B00225A71044B00221A7000BF0C37BD4690BD00BFC7
:20DAE000880300202C04002080B582B000AF0346FB800B467B7113463B71214B06221A71F0
:20DB00001F4B0022DA701E4B00225A701C4B08229A703B7903F00F03D9B21A4A137861F3B8
:20DB200007131370174A13786FF3C3031370154A1378012161F302031370114B5522DA71AB
:20DB4000104B1A780E4B1A720D4A7B795372FB88DAB20B4B9A72FB881B0A9BB2DAB2084B9E
:20DB6000DA72FF200849042200F03AFC03461A46034B1A73024B02225A710837BD4680BD5E
:20DB80002C040020840300203404002080B582B000AF03460A46FB8013467B711F4B062235
:20DBA0001A711E4B0022DA701C4B00225A701B4B06229A701A4A137843F0F0031370184A20
:20DBC000137843F008031370154A1378012161F302031370114B5522DA71114B1A780F4BAB
:20DBE0001A720E4A7B795372FB88DAB20B4B9A72FB881B0A9BB2DAB2084BDA72FF20094986
:20DC0000042200F0EDFB03461A46044B1A73034B02225A710837BD4680BD00BF2C040020B6
:20DC2000840300203404002080B582B000AF03460A46FB711346BB711C4B04221A711B4BC7
:20DC40000022DA70194B00225A70184B08229A70BB7903F00F03D9B2154A137861F3071355
:20DC60001370134A13786FF3C3031370104A1378052161F3020313700C4B5522DA710C4B37
:20DC80001A780A4B1A72094AFB795372FF200949022200F0A5FB03461A46044B9A72034B0E
:20DCA00001225A710837BD4680BD00BF2C040020840300203404002080B500AF064BDB7960
:20DCC0009BB2184602F08EFB034BDB780133DAB2014BDA7080BD00BF2C04002080B582B074
:20DCE00000AF78600B467B801E4B5B78092B14D81C4B5B7819467B681B88DAB2194B0B4497
:20DD00005A74184B5A78174B9B789A4205D2154B5B780133DAB2134B5A70124BDA78114BB2
:20DD20001B799A420FD20F4BDB781A460D4B1344DB799BB2184602F055FB0A4BDB780133B9
:20DD4000DAB2084BDA70074B5A78064B9B789A4204D1054B1B78184602F062FE0837BD468C
:20DD600080BD00BF2C0400204704002080B500AF134801F0FFFF134B00221A70114B002236
:20DD80009A70104B04225A700F4B00221A810E4B32225A810C4B00221A730B4B00225A7344
:20DDA000094B00229A7300F04FFA00BF00F062FA00BF00F077FA00BF00F08CFA80BD00BF4B
:20DDC000A00F01004C0400205004002080B500AF6C4B1B78032B00F2CA8001A252F823F017
:20DDE000F1DD000011DE00005FDE00002FDF0000644B1A78634B5B789A4202D0624B0022DC
:20DE00001A80032000F076F95E4B01229A70AFE05C4B1A785B4B5B789A4202D05A4B00225A
:20DE20001A80594B1B8801339AB2574B1A80564B1B881E2B05D9544B00221A80032000F06C
:20DE400059F900F0D3F80346002B07D04F4B9B7B012B03D14B4B02229A7089E088E0494B91
:20DE60001A78484B5B789A420DD0484B00221A81022000F0D7F800BF00BF00F0A3F900BFF7
:20DE800000BF00F077FA414B1B8901339AB23F4B1A813E4B1A893D4B5B899A421AD302200A
:20DEA00000F0C0F800BF00F0CFF900BF00F0E2F900BF00F0F7F900BF00F00CFA00F096F8E7
:20DEC0000346002B06D0314B9B7B032B02D12D4B03229A702D4B1B7803F02003DBB2002BE5
:20DEE00003D12B4B01221A7002E0294B00221A70264BDB7803F00103DBB2002B16D0234A63
:20DF0000D378012161F34713D370204AD3786FF30413D3701D4AD3786FF30003D3701B4B72
:20DF20005B8818461B4902F0C1F821E020E0154B1A78144B5B789A420AD0134B00221A809C
:20DF400000F0E0F900BF00F0F7F900BF00F058F90D4B1B8801339AB20B4B1A800A4B1B88F6
:20DF6000B3F57A7F02D900F021FA01E000E000BF044B1A78034B5A70024B9A78014B1A706C
:20DF800080BD00BF4C0400206004002050040020A40500205204002080B400AF064B012287
:20DFA0009A73054B1B7B0133DAB2034B1A73BD465DF8047B704700BF5004002080B400AF2F
:20DFC000064B03229A73054B1B7B0133DAB2034B1A73BD465DF8047B704700BF500400207C
:20DFE00080B500AF00F0E2F980BD00BF80B483B000AF0B4B1A7B0A4B5B7B9A4202D0012378
:20E00000FB7101E00023FB71054B1A7B044B5A73FB7918460C37BD465DF8047B704700BFC1
:20E020005004002080B582B000AF0346FB71FB79072B59D8FB79072B34D801A252F823F018
:20E0400061E0000069E0000071E0000079E0000081E0000089E0000091E000009BE00000D6
:20E06000234B06225A811EE0214B0C225A811AE01F4B18225A8116E01D4B30225A8112E0C6
:20E080001B4B60225A810EE0194BC0225A810AE0174B4FF440725A8105E0154B4FF4406268
:20E0A0005A8100E000BF124A53786FF3471353700F4A53786FF304135370FB7903F007036F
:20E0C000D9B20B4A537861F302035370084A13786FF3C7131370064B1B881846044901F04D
:20E0E000E5FF034B00221A810837BD4680BD00BF5004002080B582B000AF0346FB71FB7940
:20E10000072B59D8FB79072B34D801A252F823F031E1000039E1000041E1000049E1000072
:20E1200051E1000059E1000061E100006BE10000234B04225A811EE0214B08225A811AE00D
:20E140001F4B10225A8116E01D4B20225A8112E01B4B40225A810EE0194B80225A810AE07F
:20E16000174B4FF400725A8105E0154B4FF400625A8100E000BF124A53786FF347135370A3
:20E180000F4A53786FF304135370FB7903F00703D9B20B4A537861F302035370084A13780A
:20E1A0006FF3C7131370064B1B881846044901F07DFF034B00221A810837BD4680BD00BF4B
:20E1C0005004002080B500AF0B4AD378012161F34713D370084AD3786FF30413D370064A8B
:20E1E000D37843F00C03D370034B5B881846034901F05CFF80BD00BF500400205204002042
:20E2000080B500AF0E4AD378012161F34713D3700B4AD3786FF30413D370094AD378012148
:20E2200061F38303D370064AD3786FF34103D370034B5B881846034901F038FF80BD00BF3E
:20E24000500400205204002080B500AF084A53786FF347135370064A537843F01003537030
:20E26000034B1B881846024901F020FF80BD00BF5004002080B500AF084AD378012161F38D
:20E280004713D370054AD37843F01003D370034B5B881846024901F009FF80BD500400203A
:20E2A0005204002080B500AF084A5379022161F347135371054A537943F010035371034BDE
:20E2C0009B881846024901F0F1FE80BD500400205404002080B500AF084AD379032161F36F
:20E2E0004713D371054AD37943F01003D371034BDB881846024901F0D9FE80BD5004002088
:20E300005604002080B500AFFFF7E4FF084AD379032161F34713D371054AD3796FF30413FE
:20E32000D371034BDB881846024901F0BFFE80BD500400205604002080B500AF0B4A537961
:20E34000022161F347135371084A53796FF304135371064A137943F008031371034B9B88BE
:20E360001846034901F0A2FE80BD00BF500400205404002080B500AF0A4B00229A80094AB2
:20E380005379022161F347135371064A53796FF304135371034B9B881846034901F086FE33
:20E3A00080BD00BF500400205404002080B500AF0A4A53786FF347135370084A53786FF374
:20E3C00004135370054A137843F080031370034B1B881846014901F069FE80BD50040020AE
:20E3E00080B487B000AF0346B9607A60FB73FB7BFB7400237B610DE0BA687B6913441A7899
:20E40000FB7C5340DBB21A46084B9B5CFB747B6901337B617A697B689A42EDD3FB7C184621
:20E420001C37BD465DF8047B704700BFC00F010080B500AF02F070F9FAF732F800F002F828
:20E4400062B680BD80B400AFBD465DF8047B704780B400AFFEE700BF80B400AF054B00221A
:20E460001A6000BF034B1B68002BFBD0BD465DF8047B70476404002080B400AFFEE700BFFF
:20E4800080B400AFFEE700BF80B400AFFEE700BF80B400AFFEE700BF80B400AFFEE700BF60
:20E4A00080B400AFFEE700BF80B500AF02F082FA80BD00BF80B400AFFEE700BF80B400AF1D
:20E4C000FEE700BF80B400AFFEE700BF80B400AFFEE700BF80B400AFFEE700BF80B400AF20
:20E4E000FEE700BF80B400AFFEE700BF80B400AFFEE700BF80B400AFFEE700BF80B400AF00
:20E50000FEE700BF80B400AFFEE700BF80B400AFFEE700BF80B400AFFEE700BF80B400AFDF
:20E52000FEE700BF80B400AFFEE700BF80B400AFFEE700BF80B400AFFEE700BF80B400AFBF
:20E54000FEE700BF80B400AFFEE700BF80B400AFFEE700BF80B400AFFEE700BF80B400AF9F
:20E56000FEE700BF80B400AFFEE700BF80B400AFFEE700BF80B400AFFEE700BF80B400AF7F
:20E58000FEE700BF80B400AFFEE700BF80B400AFFEE700BF80B400AFFEE700BF80B400AF5F
:20E5A000FEE700BF80B400AFFEE700BF80B400AFFEE700BF80B400AFFEE700BF80B500AF3E
:20E5C0001A4B5B6903F48013002B05D0174A174B5B6943F480135361144B5B6903F4003336
:20E5E000002B05D0114A114B5B6943F4003353610E4B5B6903F40023002B05D00B4A0B4BA0
:20E600005B6943F400235361084B5B6903F40003002B01D002F010F8044B5B6903F4001304
:20E62000002B01D001F014FF80BD00BF00B0064080B400AFFEE700BF80B400AFFEE700BFDA
:20E6400080B400AFFEE700BF80B400AFFEE700BF80B400AFFEE700BF80B500AF00F018FB3E
:20E6600080BD00BF80B500AF00F03CFB80BD00BF80B400AFFEE700BF80B400AFFEE700BF89
:20E6800080B400AFFEE700BF80B400AFFEE700BF80B400AFFEE700BF80B400AFFEE700BF5E
:20E6A00080B400AFFEE700BF80B400AF034A034BDB6843F00103D360FEE700BF0070034051
:20E6C00080B400AFFEE700BF80B400AFFEE700BF80B400AFFEE700BF80B400AFFEE700BF1E
:20E6E00080B400AFFEE700BF80B400AFFEE700BF80B400AFFEE700BF80B400AFFEE700BFFE
:20E7000080B400AFFEE700BF80B400AFFEE700BF80B400AFFEE700BF80B400AFFEE700BFDD
:20E7200080B400AFFEE700BF80B400AFFEE700BF80B483B000AF3C4B1B687B607B6803F0FA
:20E7400080737B60384B5B687B607B6803F080737B60354B9B687B607B6803F080737B6024
:20E76000314BDB687B607B6803F080737B602E4B1B697B607B6803F080737B602A4B5B69A6
:20E780007B607B6803F080737B60274B9B697B607B6803F080737B60234BDB697B607B6895
:20E7A00003F080737B60204B1B6A7B607B6803F080737B601C4B5B6A7B607B6803F0807359
:20E7C0007B60194B9B6A7B607B6803F080737B60154BDB6A7B607B6803F080737B60124BF5
:20E7E0001B6B7B607B6803F080737B600E4B5B6B7B607B6803F080737B600B4B9B6B7B603F
:20E800007B6803F080737B60074BDB6B7B607B6803F080737B60044B1B6C7B607B6803F0B6
:20E8200080737B60FEE700BF00D0044080B400AFFEE700BF80B400AFFEE700BF80B400AF61
:20E84000FEE700BF80B400AFFEE700BF80B400AFFEE700BF80B400AFFEE700BF80B400AF9C
:20E86000FEE700BF80B400AFFEE700BF80B400AFFEE700BF80B400AFFEE700BF80B400AF7C
:20E88000FEE700BF80B400AFFEE700BF80B400AFFEE700BF80B400AFFEE700BF80B400AF5C
:20E8A000FEE700BF80B400AFFEE700BF80B400AFFEE700BF80B582B000AF0023FB712CE0F5
:20E8C000194B1B6BFA79012101FA02F21340002B20D0FA79154913465B0013449B000B4496
:20E8E0001B78002B02D100F075FE0DE0FA790F4913465B0013449B000B441B78012B03D1E4
:20E90000FB79184600F072FE074AFB79012101FA03F31363FB790133FB71FB790F2BCFD90D
